{
  "contracts/presale.sol": {
    "Deelance_PreSale": {
      "abi": [
        {
          "inputs": [],
          "stateMutability": "nonpayable",
          "type": "constructor"
        },
        {
          "anonymous": false,
          "inputs": [
            {
              "indexed": true,
              "internalType": "address",
              "name": "previousOwner",
              "type": "address"
            },
            {
              "indexed": true,
              "internalType": "address",
              "name": "newOwner",
              "type": "address"
            }
          ],
          "name": "OwnershipTransferred",
          "type": "event"
        },
        {
          "anonymous": false,
          "inputs": [
            {
              "indexed": false,
              "internalType": "address",
              "name": "account",
              "type": "address"
            }
          ],
          "name": "Paused",
          "type": "event"
        },
        {
          "anonymous": false,
          "inputs": [
            {
              "indexed": true,
              "internalType": "address",
              "name": "user",
              "type": "address"
            },
            {
              "indexed": true,
              "internalType": "uint256",
              "name": "tokensBought",
              "type": "uint256"
            },
            {
              "indexed": true,
              "internalType": "address",
              "name": "purchaseToken",
              "type": "address"
            },
            {
              "indexed": false,
              "internalType": "uint256",
              "name": "amountPaid",
              "type": "uint256"
            },
            {
              "indexed": false,
              "internalType": "uint256",
              "name": "timestamp",
              "type": "uint256"
            }
          ],
          "name": "TokensBought",
          "type": "event"
        },
        {
          "anonymous": false,
          "inputs": [
            {
              "indexed": true,
              "internalType": "address",
              "name": "user",
              "type": "address"
            },
            {
              "indexed": false,
              "internalType": "uint256",
              "name": "amount",
              "type": "uint256"
            },
            {
              "indexed": false,
              "internalType": "uint256",
              "name": "timestamp",
              "type": "uint256"
            }
          ],
          "name": "TokensClaimed",
          "type": "event"
        },
        {
          "anonymous": false,
          "inputs": [
            {
              "indexed": false,
              "internalType": "address",
              "name": "account",
              "type": "address"
            }
          ],
          "name": "Unpaused",
          "type": "event"
        },
        {
          "inputs": [],
          "name": "baseDecimals",
          "outputs": [
            {
              "internalType": "uint256",
              "name": "",
              "type": "uint256"
            }
          ],
          "stateMutability": "view",
          "type": "function"
        },
        {
          "inputs": [
            {
              "internalType": "uint256",
              "name": "amount",
              "type": "uint256"
            }
          ],
          "name": "buyWithETH",
          "outputs": [],
          "stateMutability": "payable",
          "type": "function"
        },
        {
          "inputs": [
            {
              "internalType": "uint256",
              "name": "amount",
              "type": "uint256"
            },
            {
              "internalType": "uint256",
              "name": "purchaseToken",
              "type": "uint256"
            }
          ],
          "name": "buyWithUSD",
          "outputs": [],
          "stateMutability": "nonpayable",
          "type": "function"
        },
        {
          "inputs": [
            {
              "internalType": "uint256",
              "name": "_claimStart",
              "type": "uint256"
            }
          ],
          "name": "changeClaimStart",
          "outputs": [],
          "stateMutability": "nonpayable",
          "type": "function"
        },
        {
          "inputs": [
            {
              "internalType": "uint256",
              "name": "_amount",
              "type": "uint256"
            }
          ],
          "name": "changeMinimumBuyAmount",
          "outputs": [],
          "stateMutability": "nonpayable",
          "type": "function"
        },
        {
          "inputs": [
            {
              "internalType": "uint256",
              "name": "_startTime",
              "type": "uint256"
            },
            {
              "internalType": "uint256",
              "name": "_endTime",
              "type": "uint256"
            }
          ],
          "name": "changeSaleTimes",
          "outputs": [],
          "stateMutability": "nonpayable",
          "type": "function"
        },
        {
          "inputs": [
            {
              "internalType": "uint256",
              "name": "_hardcapSize",
              "type": "uint256"
            }
          ],
          "name": "changehardcapSize",
          "outputs": [],
          "stateMutability": "nonpayable",
          "type": "function"
        },
        {
          "inputs": [],
          "name": "claim",
          "outputs": [],
          "stateMutability": "nonpayable",
          "type": "function"
        },
        {
          "inputs": [],
          "name": "claimStart",
          "outputs": [
            {
              "internalType": "uint256",
              "name": "",
              "type": "uint256"
            }
          ],
          "stateMutability": "view",
          "type": "function"
        },
        {
          "inputs": [],
          "name": "currentStep",
          "outputs": [
            {
              "internalType": "uint256",
              "name": "",
              "type": "uint256"
            }
          ],
          "stateMutability": "view",
          "type": "function"
        },
        {
          "inputs": [],
          "name": "endTime",
          "outputs": [
            {
              "internalType": "uint256",
              "name": "",
              "type": "uint256"
            }
          ],
          "stateMutability": "view",
          "type": "function"
        },
        {
          "inputs": [
            {
              "internalType": "uint256",
              "name": "amount",
              "type": "uint256"
            }
          ],
          "name": "getETHAmount",
          "outputs": [
            {
              "internalType": "uint256",
              "name": "ETHAmount",
              "type": "uint256"
            }
          ],
          "stateMutability": "view",
          "type": "function"
        },
        {
          "inputs": [],
          "name": "getETHLatestPrice",
          "outputs": [
            {
              "internalType": "uint256",
              "name": "",
              "type": "uint256"
            }
          ],
          "stateMutability": "view",
          "type": "function"
        },
        {
          "inputs": [
            {
              "internalType": "uint256",
              "name": "amount",
              "type": "uint256"
            },
            {
              "internalType": "uint256",
              "name": "purchaseToken",
              "type": "uint256"
            }
          ],
          "name": "getTokenAmount",
          "outputs": [
            {
              "internalType": "uint256",
              "name": "usdPrice",
              "type": "uint256"
            }
          ],
          "stateMutability": "view",
          "type": "function"
        },
        {
          "inputs": [],
          "name": "hardcapSize",
          "outputs": [
            {
              "internalType": "uint256",
              "name": "",
              "type": "uint256"
            }
          ],
          "stateMutability": "view",
          "type": "function"
        },
        {
          "inputs": [],
          "name": "hardcapsizeUSD",
          "outputs": [
            {
              "internalType": "uint256",
              "name": "",
              "type": "uint256"
            }
          ],
          "stateMutability": "view",
          "type": "function"
        },
        {
          "inputs": [
            {
              "internalType": "address",
              "name": "",
              "type": "address"
            }
          ],
          "name": "hasClaimed",
          "outputs": [
            {
              "internalType": "bool",
              "name": "",
              "type": "bool"
            }
          ],
          "stateMutability": "view",
          "type": "function"
        },
        {
          "inputs": [],
          "name": "inSale",
          "outputs": [
            {
              "internalType": "uint256",
              "name": "",
              "type": "uint256"
            }
          ],
          "stateMutability": "view",
          "type": "function"
        },
        {
          "inputs": [],
          "name": "inSaleUSDvalue",
          "outputs": [
            {
              "internalType": "uint256",
              "name": "",
              "type": "uint256"
            }
          ],
          "stateMutability": "view",
          "type": "function"
        },
        {
          "inputs": [],
          "name": "isPresalePaused",
          "outputs": [
            {
              "internalType": "bool",
              "name": "",
              "type": "bool"
            }
          ],
          "stateMutability": "view",
          "type": "function"
        },
        {
          "inputs": [],
          "name": "minimumBuyAmount",
          "outputs": [
            {
              "internalType": "uint256",
              "name": "",
              "type": "uint256"
            }
          ],
          "stateMutability": "view",
          "type": "function"
        },
        {
          "inputs": [],
          "name": "nextPrice",
          "outputs": [
            {
              "internalType": "uint256",
              "name": "",
              "type": "uint256"
            }
          ],
          "stateMutability": "view",
          "type": "function"
        },
        {
          "inputs": [],
          "name": "owner",
          "outputs": [
            {
              "internalType": "address",
              "name": "",
              "type": "address"
            }
          ],
          "stateMutability": "view",
          "type": "function"
        },
        {
          "inputs": [],
          "name": "pause",
          "outputs": [],
          "stateMutability": "nonpayable",
          "type": "function"
        },
        {
          "inputs": [],
          "name": "paused",
          "outputs": [
            {
              "internalType": "bool",
              "name": "",
              "type": "bool"
            }
          ],
          "stateMutability": "view",
          "type": "function"
        },
        {
          "inputs": [],
          "name": "renounceOwnership",
          "outputs": [],
          "stateMutability": "nonpayable",
          "type": "function"
        },
        {
          "inputs": [],
          "name": "salePrice",
          "outputs": [
            {
              "internalType": "uint256",
              "name": "",
              "type": "uint256"
            }
          ],
          "stateMutability": "view",
          "type": "function"
        },
        {
          "inputs": [],
          "name": "saleToken",
          "outputs": [
            {
              "internalType": "address",
              "name": "",
              "type": "address"
            }
          ],
          "stateMutability": "view",
          "type": "function"
        },
        {
          "inputs": [
            {
              "internalType": "address",
              "name": "_dAddress",
              "type": "address"
            }
          ],
          "name": "setDaddress",
          "outputs": [],
          "stateMutability": "nonpayable",
          "type": "function"
        },
        {
          "inputs": [
            {
              "internalType": "uint256",
              "name": "_value",
              "type": "uint256"
            }
          ],
          "name": "setSalePrice",
          "outputs": [],
          "stateMutability": "nonpayable",
          "type": "function"
        },
        {
          "inputs": [
            {
              "internalType": "uint256",
              "name": "_value",
              "type": "uint256"
            }
          ],
          "name": "settotalTokensForPresale",
          "outputs": [],
          "stateMutability": "nonpayable",
          "type": "function"
        },
        {
          "inputs": [
            {
              "internalType": "uint256",
              "name": "_value",
              "type": "uint256"
            }
          ],
          "name": "settotalUsdValueForPresale",
          "outputs": [],
          "stateMutability": "nonpayable",
          "type": "function"
        },
        {
          "inputs": [
            {
              "internalType": "uint256",
              "name": "_claimStart",
              "type": "uint256"
            },
            {
              "internalType": "uint256",
              "name": "tokensAmount",
              "type": "uint256"
            },
            {
              "internalType": "address",
              "name": "_saleToken",
              "type": "address"
            }
          ],
          "name": "startClaim",
          "outputs": [],
          "stateMutability": "nonpayable",
          "type": "function"
        },
        {
          "inputs": [],
          "name": "startTime",
          "outputs": [
            {
              "internalType": "uint256",
              "name": "",
              "type": "uint256"
            }
          ],
          "stateMutability": "view",
          "type": "function"
        },
        {
          "inputs": [],
          "name": "totalTokensForPresale",
          "outputs": [
            {
              "internalType": "uint256",
              "name": "",
              "type": "uint256"
            }
          ],
          "stateMutability": "view",
          "type": "function"
        },
        {
          "inputs": [],
          "name": "totalUsdValueForPresale",
          "outputs": [
            {
              "internalType": "uint256",
              "name": "",
              "type": "uint256"
            }
          ],
          "stateMutability": "view",
          "type": "function"
        },
        {
          "inputs": [
            {
              "internalType": "address",
              "name": "newOwner",
              "type": "address"
            }
          ],
          "name": "transferOwnership",
          "outputs": [],
          "stateMutability": "nonpayable",
          "type": "function"
        },
        {
          "inputs": [],
          "name": "uniswapV2Router",
          "outputs": [
            {
              "internalType": "contract IUniswapV2Router02",
              "name": "",
              "type": "address"
            }
          ],
          "stateMutability": "view",
          "type": "function"
        },
        {
          "inputs": [],
          "name": "unpause",
          "outputs": [],
          "stateMutability": "nonpayable",
          "type": "function"
        },
        {
          "inputs": [
            {
              "internalType": "address",
              "name": "",
              "type": "address"
            }
          ],
          "name": "userDeposits",
          "outputs": [
            {
              "internalType": "uint256",
              "name": "",
              "type": "uint256"
            }
          ],
          "stateMutability": "view",
          "type": "function"
        },
        {
          "inputs": [],
          "name": "withdrawETHs",
          "outputs": [],
          "stateMutability": "nonpayable",
          "type": "function"
        },
        {
          "inputs": [
            {
              "internalType": "address",
              "name": "token",
              "type": "address"
            },
            {
              "internalType": "uint256",
              "name": "amount",
              "type": "uint256"
            }
          ],
          "name": "withdrawTokens",
          "outputs": [],
          "stateMutability": "nonpayable",
          "type": "function"
        }
      ],
      "devdoc": {
        "kind": "dev",
        "methods": {
          "owner()": {
            "details": "Returns the address of the current owner."
          },
          "paused()": {
            "details": "Returns true if the contract is paused, and false otherwise."
          },
          "renounceOwnership()": {
            "details": "Leaves the contract without owner. It will not be possible to call `onlyOwner` functions anymore. Can only be called by the current owner. NOTE: Renouncing ownership will leave the contract without an owner, thereby removing any functionality that is only available to the owner."
          },
          "transferOwnership(address)": {
            "details": "Transfers ownership of the contract to a new account (`newOwner`). Can only be called by the current owner."
          }
        },
        "version": 1
      },
      "evm": {
        "bytecode": {
          "linkReferences": {},
          "object": "60806040523480156200001157600080fd5b506001600055620000223362000133565b6001805460ff60a01b19169055600280546001600160a01b031916737a250d5630b4cf539739df2c5dacb4c659f2488d908117909155670de0b6b3a7640000600e55667c5850872380006003556311b3dc40600a818155600582905560075560085542600b81905562000099906276a70062000288565b600c55601380546001600160a01b0319908116735f4ec3df9cbd43714fe2740f5e3616155c5b841917909155601680548216730ae9285d8c67956639b82bafa08a03156379408c179055601480548216737a250d5630b4cf539739df2c5dacb4c659f2488d1790556015805490911673dac17f958d2ee523a2206206994597c13d831ec71790556200012c600162000185565b50620002b0565b600180546001600160a01b038381166001600160a01b0319831681179093556040519116919082907f8be0079c531659141344cd1fd0a4f28419497f9722a3daafe3b4186f6b6457e090600090a35050565b60118190556001819003620001c857667c585087238000600355668e1bc9bf040000600455622dc6c060108190556006556a027b46536c66c8e300000060095550565b806002036200020557668e1bc9bf040000600355669fdf42f6e48000600455623d090060108190556006556a034f086f3b33b68400000060095550565b806003036200023c57669fdf42f6e480006003819055600455624c4b4060108190556006556a0422ca8b0a00a42500000060095550565b60405162461bcd60e51b815260206004820152601960248201527f50726573616c652069742773206f7665722c20736f7272792100000000000000604482015260640160405180910390fd5b80820180821115620002aa57634e487b7160e01b600052601160045260246000fd5b92915050565b61224480620002c06000396000f3fe6080604052600436106102515760003560e01c806378e9792511610139578063b32c7dc1116100b6578063e9b8c8961161007a578063e9b8c8961461066a578063ef46b2ab1461068a578063ef9089d6146106aa578063f04d688f146106c0578063f2fde38b146106d6578063f51f96dd146106f657600080fd5b8063b32c7dc1146105df578063bc755ec0146105f4578063dfc7bf6d14610614578063e3c3bb661461062a578063e985e3671461064a57600080fd5b806394dc9cf3116100fd57806394dc9cf31461056157806394e992561461057457806399f0293514610589578063a1bbc6a7146105a9578063b2caaebd146105bf57600080fd5b806378e97925146104ec5780638008d5bc146105025780638456cb59146105185780638d6a2ed51461052d5780638da5cb5b1461054357600080fd5b80631e8f0d39116101d257806343a649e31161019657806343a649e31461043d5780634e71d92d1461045d5780635bc34f71146104725780635c975abb14610488578063715018a6146104a757806373b2e80e146104bc57600080fd5b80631e8f0d39146103bc5780632e5afcef146103e65780633197cbb6146103fc57806333f76178146104125780633f4ba83a1461042857600080fd5b80630bc1236e116102195780630bc1236e1461030e5780630dc9c8381461032e57806311b3840e1461034e5780631694505e146103645780631919fed71461039c57600080fd5b806305f7de4b1461025657806306b091f91461027f57806307f18082146102a157806308677efa146102c15780630ba36dcd146102e1575b600080fd5b34801561026257600080fd5b5061026c60095481565b6040519081526020015b60405180910390f35b34801561028b57600080fd5b5061029f61029a366004611fa9565b61070c565b005b3480156102ad57600080fd5b5061029f6102bc366004611fd3565b6107ab565b3480156102cd57600080fd5b5061029f6102dc366004611fd3565b610898565b3480156102ed57600080fd5b5061026c6102fc366004611fec565b60176020526000908152604090205481565b34801561031a57600080fd5b5061026c610329366004612007565b6108f4565b34801561033a57600080fd5b5061029f610349366004612007565b61092b565b34801561035a57600080fd5b5061026c60055481565b34801561037057600080fd5b50600254610384906001600160a01b031681565b6040516001600160a01b039091168152602001610276565b3480156103a857600080fd5b5061029f6103b7366004611fd3565b610a25565b3480156103c857600080fd5b50600f546103d69060ff1681565b6040519015158152602001610276565b3480156103f257600080fd5b5061026c60105481565b34801561040857600080fd5b5061026c600c5481565b34801561041e57600080fd5b5061026c600e5481565b34801561043457600080fd5b5061029f610a32565b34801561044957600080fd5b5061029f610458366004611fd3565b610a4e565b34801561046957600080fd5b5061029f610a90565b34801561047e57600080fd5b5061026c60115481565b34801561049457600080fd5b50600154600160a01b900460ff166103d6565b3480156104b357600080fd5b5061029f610cbc565b3480156104c857600080fd5b506103d66104d7366004611fec565b60186020526000908152604090205460ff1681565b3480156104f857600080fd5b5061026c600b5481565b34801561050e57600080fd5b5061026c60085481565b34801561052457600080fd5b5061029f610cd0565b34801561053957600080fd5b5061026c60075481565b34801561054f57600080fd5b506001546001600160a01b0316610384565b61029f61056f366004611fd3565b610cef565b34801561058057600080fd5b5061026c6110a5565b34801561059557600080fd5b5061029f6105a4366004612007565b611136565b3480156105b557600080fd5b5061026c600a5481565b3480156105cb57600080fd5b5061029f6105da366004612029565b611605565b3480156105eb57600080fd5b5061029f61179e565b34801561060057600080fd5b5061029f61060f366004611fec565b611852565b34801561062057600080fd5b5061026c60065481565b34801561063657600080fd5b5061029f610645366004611fd3565b61187c565b34801561065657600080fd5b50601254610384906001600160a01b031681565b34801561067657600080fd5b5061029f610685366004611fd3565b6118e7565b34801561069657600080fd5b5061026c6106a5366004611fd3565b611918565b3480156106b657600080fd5b5061026c60045481565b3480156106cc57600080fd5b5061026c600d5481565b3480156106e257600080fd5b5061029f6106f1366004611fec565b611951565b34801561070257600080fd5b5061026c60035481565b6107146119c7565b816001600160a01b031663a9059cbb6107356001546001600160a01b031690565b6040516001600160e01b031960e084901b1681526001600160a01b039091166004820152602481018490526044016020604051808303816000875af1158015610782573d6000803e3d6000fd5b505050506040513d601f19601f820116820180604052508101906107a6919061205e565b505050565b6107b36119c7565b6000600d541161080a5760405162461bcd60e51b815260206004820152601a60248201527f496e697469616c20636c61696d2064617461206e6f742073657400000000000060448201526064015b60405180910390fd5b600c54811161084e5760405162461bcd60e51b815260206004820152601060248201526f53616c6520696e2070726f677265737360801b6044820152606401610801565b4281116108935760405162461bcd60e51b815260206004820152601360248201527210db185a5b481cdd185c9d081a5b881c185cdd606a1b6044820152606401610801565b600d55565b6108a06119c7565b6000811180156108b257506007548114155b6108ef5760405162461bcd60e51b815260206004820152600e60248201526d125b9d985b1a5908185b5bdd5b9d60921b6044820152606401610801565b600755565b60006108ff83611a21565b905081158061090e5750816001145b156109255761092264e8d4a5100082612096565b90505b92915050565b6109336119c7565b60008211806109425750600081115b6109835760405162461bcd60e51b8152602060048201526012602482015271496e76616c696420706172616d657465727360701b6044820152606401610801565b81156109d2578142106109cc5760405162461bcd60e51b815260206004820152601160248201527014d85b19481d1a5b59481a5b881c185cdd607a1b6044820152606401610801565b600b8290555b8015610a2157600b548111610a1b5760405162461bcd60e51b815260206004820152600f60248201526e496e76616c696420656e6454696d6560881b6044820152606401610801565b600c8190555b5050565b610a2d6119c7565b600355565b610a3a6119c7565b610a42611c0b565b600f805460ff19169055565b610a566119c7565b6006546000610a6582806120b8565b9050610a7981670de0b6b3a76400006120cb565b600954610a8691906120e2565b6009555050600655565b610a98611c60565b6012546001600160a01b0316610ae75760405162461bcd60e51b815260206004820152601460248201527314d85b19481d1bdad95b881b9bdd08185919195960621b6044820152606401610801565b600d54421015610b395760405162461bcd60e51b815260206004820152601960248201527f436c61696d20686173206e6f74207374617274656420796574000000000000006044820152606401610801565b3360009081526018602052604090205460ff1615610b8b5760405162461bcd60e51b815260206004820152600f60248201526e105b1c9958591e4818db185a5b5959608a1b6044820152606401610801565b336000908152601860209081526040808320805460ff19166001179055601790915290205480610bf05760405162461bcd60e51b815260206004820152601060248201526f4e6f7468696e6720746f20636c61696d60801b6044820152606401610801565b336000818152601760209081526040808320839055601254815163a9059cbb60e01b815260048101959095526024850186905290516001600160a01b039091169363a9059cbb93604480830194939283900301908290875af1158015610c5a573d6000803e3d6000fd5b505050506040513d601f19601f82011682018060405250810190610c7e919061205e565b506040805182815242602082015233917f9923b4306c6c030f2bdfbf156517d5983b87e15b96176da122cd4f2effa4ba7b910160405180910390a250565b610cc46119c7565b610cce6000611cad565b565b610cd86119c7565b610ce0611cff565b600f805460ff19166001179055565b60165481906001600160a01b03163314610a2157600b544210158015610d175750600c544211155b610d5d5760405162461bcd60e51b8152602060048201526017602482015276496e76616c69642074696d6520666f7220627579696e6760481b6044820152606401610801565b600754811015610da25760405162461bcd60e51b815260206004820152601060248201526f151bdbc81cdb585b1b08185b5bdd5b9d60821b6044820152606401610801565b600081118015610db457506008548111155b610df65760405162461bcd60e51b8152602060048201526013602482015272125b9d985b1a59081cd85b1948185b5bdd5b9d606a1b6044820152606401610801565b610dfe611c60565b610e06611d42565b6000610e1183611a21565b905080158015610e2357506011546003145b15610e405760405162461bcd60e51b8152600401610801906120f5565b6000610e4a6110a5565b610e5c83670de0b6b3a76400006120cb565b610e669190612096565b905080341015610ea75760405162461bcd60e51b815260206004820152600c60248201526b13195cdcc81c185e5b595b9d60a21b6044820152606401610801565b6000610eb382346120b8565b9050600954831115610f6f57600060095484610ecf91906120b8565b9050610ee86011546001610ee391906120e2565b611d9b565b8560086000828254610efa91906120b8565b9091555050600954811115610f515760405162461bcd60e51b815260206004820152601d60248201527f506c6561736520747279207769746820736d616c6c20616d6f756e742e0000006044820152606401610801565b8060096000828254610f6391906120b8565b90915550610ffd915050565b60095483148015610f8257506011546003145b15610fcc57600354610f949084612096565b94508460086000828254610fa891906120b8565b925050819055508260096000828254610fc191906120b8565b90915550610ffd9050565b8460086000828254610fde91906120b8565b925050819055508260096000828254610ff791906120b8565b90915550505b61100f85670de0b6b3a76400006120cb565b336000908152601760205260408120805490919061102e9084906120e2565b9091555050601654611049906001600160a01b031683611e67565b8015611059576110593382611e67565b60408051838152426020820152600091879133917f62e796e00a8e66154d78da76daae129635b4795a6e1b889f2caa6c5cea22ac68910160405180910390a4505050610a216001600055565b600080601360009054906101000a90046001600160a01b03166001600160a01b031663feaf968c6040518163ffffffff1660e01b815260040160a060405180830381865afa1580156110fb573d6000803e3d6000fd5b505050506040513d601f19601f8201168201806040525081019061111f9190612146565b505050915050806402540be4006109259190612196565b60165482906001600160a01b031633146107a657600b54421015801561115e5750600c544211155b6111a45760405162461bcd60e51b8152602060048201526017602482015276496e76616c69642074696d6520666f7220627579696e6760481b6044820152606401610801565b6007548110156111e95760405162461bcd60e51b815260206004820152601060248201526f151bdbc81cdb585b1b08185b5bdd5b9d60821b6044820152606401610801565b6000811180156111fb57506008548111155b61123d5760405162461bcd60e51b8152602060048201526013602482015272125b9d985b1a59081cd85b1948185b5bdd5b9d606a1b6044820152606401610801565b611245611c60565b600061125084611a21565b90508015801561126257506011546003145b1561127f5760405162461bcd60e51b8152600401610801906120f5565b82158061128c5750826001145b506009548111156112f2576000600954826112a791906120b8565b90506112bb6011546001610ee391906120e2565b84600860008282546112cd91906120b8565b9250508190555080600960008282546112e691906120b8565b90915550611380915050565b6009548114801561130557506011546003145b1561134f576003546113179082612096565b9350836008600082825461132b91906120b8565b92505081905550806009600082825461134491906120b8565b909155506113809050565b836008600082825461136191906120b8565b92505081905550806009600082825461137a91906120b8565b90915550505b61139284670de0b6b3a76400006120cb565b33600090815260176020526040812080549091906113b19084906120e2565b90915550600090508381036113ce57506015546001600160a01b03165b60006001600160a01b03821663dd62ed3e336040516001600160e01b031960e084901b1681526001600160a01b039091166004820152306024820152604401602060405180830381865afa15801561142a573d6000803e3d6000fd5b505050506040513d601f19601f8201168201806040525081019061144e91906121c6565b9050808311156114aa5760405162461bcd60e51b815260206004820152602160248201527f4d616b65207375726520746f2061646420656e6f75676820616c6c6f77616e636044820152606560f81b6064820152608401610801565b60006001600160a01b038316336001546001600160a01b03166114d264e8d4a5100088612096565b6040516001600160a01b039384166024820152929091166044830152606482015260840160408051601f198184030181529181526020820180516001600160e01b03166323b872dd60e01b1790525161152b91906121df565b6000604051808303816000865af19150503d8060008114611568576040519150601f19603f3d011682016040523d82523d6000602084013e61156d565b606091505b50509050806115b55760405162461bcd60e51b8152602060048201526014602482015273151bdad95b881c185e5b595b9d0819985a5b195960621b6044820152606401610801565b604080518581524260208201526001600160a01b03851691899133917f62e796e00a8e66154d78da76daae129635b4795a6e1b889f2caa6c5cea22ac68910160405180910390a450505050505050565b61160d6119c7565b600c548311801561161d57504283115b6116695760405162461bcd60e51b815260206004820152601860248201527f496e76616c696420636c61696d2073746172742074696d6500000000000000006044820152606401610801565b6001600160a01b0381166116b45760405162461bcd60e51b81526020600482015260126024820152715a65726f20746f6b656e206164647265737360701b6044820152606401610801565b600d54156116f85760405162461bcd60e51b815260206004820152601160248201527010db185a5b48185b1c9958591e481cd95d607a1b6044820152606401610801565b600d839055601280546001600160a01b0319166001600160a01b0383169081179091556323b872dd336040516001600160e01b031960e084901b1681526001600160a01b039091166004820152306024820152604481018590526064016020604051808303816000875af1158015611774573d6000803e3d6000fd5b505050506040513d601f19601f82011682018060405250810190611798919061205e565b50505050565b6117a66119c7565b60006117ba6001546001600160a01b031690565b6001600160a01b03164760405160006040518083038185875af1925050503d8060008114611804576040519150601f19603f3d011682016040523d82523d6000602084013e611809565b606091505b505090508061184f5760405162461bcd60e51b81526020600482015260126024820152714661696c656420746f20776974686472617760701b6044820152606401610801565b50565b61185a6119c7565b601680546001600160a01b0319166001600160a01b0392909216919091179055565b6118846119c7565b6000811180156118965750600a548114155b6118e25760405162461bcd60e51b815260206004820152601860248201527f496e76616c6964206861726463617053697a652073697a6500000000000000006044820152606401610801565b600a55565b6118ef6119c7565b60055460006118fe82806120b8565b90508060085461190e91906120e2565b6008555050600555565b60008061192483611a21565b905061192e6110a5565b61194082670de0b6b3a76400006120cb565b61194a9190612096565b9392505050565b6119596119c7565b6001600160a01b0381166119be5760405162461bcd60e51b815260206004820152602660248201527f4f776e61626c653a206e6577206f776e657220697320746865207a65726f206160448201526564647265737360d01b6064820152608401610801565b61184f81611cad565b6001546001600160a01b03163314610cce5760405162461bcd60e51b815260206004820181905260248201527f4f776e61626c653a2063616c6c6572206973206e6f7420746865206f776e65726044820152606401610801565b600080600954600654670de0b6b3a7640000611a3d91906120cb565b611a4791906120b8565b6016549091506001600160a01b03163314611bb65760008060035485611a6d91906120cb565b611a7790846120e2565b601054611a8c90670de0b6b3a76400006120cb565b108015611a9b57506003601154105b15611b525760035483601054670de0b6b3a7640000611aba91906120cb565b611ac491906120b8565b611ace9190612096565b9150611ada82866120b8565b600f5490915060ff161515600103611b255760405162461bcd60e51b815260206004820152600e60248201526d1c1c995cd85b19481c185d5cd95960921b6044820152606401610801565b600454611b3290826120cb565b600354611b3f90846120cb565b611b4991906120e2565b95945050505050565b600354611b5f90866120cb565b611b6990846120e2565b601054611b7e90670de0b6b3a76400006120cb565b108015611b8d57506011546003145b15611bb35782601054670de0b6b3a7640000611ba991906120cb565b611b4991906120b8565b50505b600f5460ff161515600103611bfe5760405162461bcd60e51b815260206004820152600e60248201526d1c1c995cd85b19481c185d5cd95960921b6044820152606401610801565b60035461194a90846120cb565b611c13611f3d565b6001805460ff60a01b191690557f5db9ee0a495bf2e6ff9c91a7834c1ba4fdd244a5e8aa4e537bd38aeae4b073aa335b6040516001600160a01b03909116815260200160405180910390a1565b600154600160a01b900460ff1615610cce5760405162461bcd60e51b815260206004820152601060248201526f14185d5cd8589b194e881c185d5cd95960821b6044820152606401610801565b600180546001600160a01b038381166001600160a01b0319831681179093556040519116919082907f8be0079c531659141344cd1fd0a4f28419497f9722a3daafe3b4186f6b6457e090600090a35050565b611d07611c60565b6001805460ff60a01b1916600160a01b1790557f62e78cea01bee320cd4e420270b5ea74000d11b0c9f74754ebdbfc544b05a258611c433390565b600260005403611d945760405162461bcd60e51b815260206004820152601f60248201527f5265656e7472616e637947756172643a207265656e7472616e742063616c6c006044820152606401610801565b6002600055565b60118190556001819003611ddd57667c585087238000600355668e1bc9bf040000600455622dc6c060108190556006556a027b46536c66c8e300000060095550565b80600203611e1957668e1bc9bf040000600355669fdf42f6e48000600455623d090060108190556006556a034f086f3b33b68400000060095550565b80600303611e4f57669fdf42f6e480006003819055600455624c4b4060108190556006556a0422ca8b0a00a42500000060095550565b60405162461bcd60e51b8152600401610801906120f5565b80471015611ea55760405162461bcd60e51b815260206004820152600b60248201526a4c6f772062616c616e636560a81b6044820152606401610801565b6000826001600160a01b03168260405160006040518083038185875af1925050503d8060008114611ef2576040519150601f19603f3d011682016040523d82523d6000602084013e611ef7565b606091505b50509050806107a65760405162461bcd60e51b81526020600482015260126024820152711155120814185e5b595b9d0819985a5b195960721b6044820152606401610801565b600154600160a01b900460ff16610cce5760405162461bcd60e51b815260206004820152601460248201527314185d5cd8589b194e881b9bdd081c185d5cd95960621b6044820152606401610801565b80356001600160a01b0381168114611fa457600080fd5b919050565b60008060408385031215611fbc57600080fd5b611fc583611f8d565b946020939093013593505050565b600060208284031215611fe557600080fd5b5035919050565b600060208284031215611ffe57600080fd5b61092282611f8d565b6000806040838503121561201a57600080fd5b50508035926020909101359150565b60008060006060848603121561203e57600080fd5b833592506020840135915061205560408501611f8d565b90509250925092565b60006020828403121561207057600080fd5b8151801515811461194a57600080fd5b634e487b7160e01b600052601160045260246000fd5b6000826120b357634e487b7160e01b600052601260045260246000fd5b500490565b8181038181111561092557610925612080565b808202811582820484141761092557610925612080565b8082018082111561092557610925612080565b60208082526019908201527f50726573616c652069742773206f7665722c20736f7272792100000000000000604082015260600190565b805169ffffffffffffffffffff81168114611fa457600080fd5b600080600080600060a0868803121561215e57600080fd5b6121678661212c565b945060208601519350604086015192506060860151915061218a6080870161212c565b90509295509295909350565b80820260008212600160ff1b841416156121b2576121b2612080565b818105831482151761092557610925612080565b6000602082840312156121d857600080fd5b5051919050565b6000825160005b8181101561220057602081860181015185830152016121e6565b50600092019182525091905056fea2646970667358221220178d6e6cfdb366ccdf05e6c15a8a1eca740f739d61f2afdc48481fff2f6f8ffc64736f6c63430008110033",
          "opcodes": "PUSH1 0x80 PUSH1 0x40 MSTORE CALLVALUE DUP1 ISZERO PUSH3 0x11 JUMPI PUSH1 0x0 DUP1 REVERT JUMPDEST POP PUSH1 0x1 PUSH1 0x0 SSTORE PUSH3 0x22 CALLER PUSH3 0x133 JUMP JUMPDEST PUSH1 0x1 DUP1 SLOAD PUSH1 0xFF PUSH1 0xA0 SHL NOT AND SWAP1 SSTORE PUSH1 0x2 DUP1 SLOAD PUSH1 0x1 PUSH1 0x1 PUSH1 0xA0 SHL SUB NOT AND PUSH20 0x7A250D5630B4CF539739DF2C5DACB4C659F2488D SWAP1 DUP2 OR SWAP1 SWAP2 SSTORE PUSH8 0xDE0B6B3A7640000 PUSH1 0xE SSTORE PUSH7 0x7C585087238000 PUSH1 0x3 SSTORE PUSH4 0x11B3DC40 PUSH1 0xA DUP2 DUP2 SSTORE PUSH1 0x5 DUP3 SWAP1 SSTORE PUSH1 0x7 SSTORE PUSH1 0x8 SSTORE TIMESTAMP PUSH1 0xB DUP2 SWAP1 SSTORE PUSH3 0x99 SWAP1 PUSH3 0x76A700 PUSH3 0x288 JUMP JUMPDEST PUSH1 0xC SSTORE PUSH1 0x13 DUP1 SLOAD PUSH1 0x1 PUSH1 0x1 PUSH1 0xA0 SHL SUB NOT SWAP1 DUP2 AND PUSH20 0x5F4EC3DF9CBD43714FE2740F5E3616155C5B8419 OR SWAP1 SWAP2 SSTORE PUSH1 0x16 DUP1 SLOAD DUP3 AND PUSH20 0xAE9285D8C67956639B82BAFA08A03156379408C OR SWAP1 SSTORE PUSH1 0x14 DUP1 SLOAD DUP3 AND PUSH20 0x7A250D5630B4CF539739DF2C5DACB4C659F2488D OR SWAP1 SSTORE PUSH1 0x15 DUP1 SLOAD SWAP1 SWAP2 AND PUSH20 0xDAC17F958D2EE523A2206206994597C13D831EC7 OR SWAP1 SSTORE PUSH3 0x12C PUSH1 0x1 PUSH3 0x185 JUMP JUMPDEST POP PUSH3 0x2B0 JUMP JUMPDEST PUSH1 0x1 DUP1 SLOAD PUSH1 0x1 PUSH1 0x1 PUSH1 0xA0 SHL SUB DUP4 DUP2 AND PUSH1 0x1 PUSH1 0x1 PUSH1 0xA0 SHL SUB NOT DUP4 AND DUP2 OR SWAP1 SWAP4 SSTORE PUSH1 0x40 MLOAD SWAP2 AND SWAP2 SWAP1 DUP3 SWAP1 PUSH32 0x8BE0079C531659141344CD1FD0A4F28419497F9722A3DAAFE3B4186F6B6457E0 SWAP1 PUSH1 0x0 SWAP1 LOG3 POP POP JUMP JUMPDEST PUSH1 0x11 DUP2 SWAP1 SSTORE PUSH1 0x1 DUP2 SWAP1 SUB PUSH3 0x1C8 JUMPI PUSH7 0x7C585087238000 PUSH1 0x3 SSTORE PUSH7 0x8E1BC9BF040000 PUSH1 0x4 SSTORE PUSH3 0x2DC6C0 PUSH1 0x10 DUP2 SWAP1 SSTORE PUSH1 0x6 SSTORE PUSH11 0x27B46536C66C8E3000000 PUSH1 0x9 SSTORE POP JUMP JUMPDEST DUP1 PUSH1 0x2 SUB PUSH3 0x205 JUMPI PUSH7 0x8E1BC9BF040000 PUSH1 0x3 SSTORE PUSH7 0x9FDF42F6E48000 PUSH1 0x4 SSTORE PUSH3 0x3D0900 PUSH1 0x10 DUP2 SWAP1 SSTORE PUSH1 0x6 SSTORE PUSH11 0x34F086F3B33B684000000 PUSH1 0x9 SSTORE POP JUMP JUMPDEST DUP1 PUSH1 0x3 SUB PUSH3 0x23C JUMPI PUSH7 0x9FDF42F6E48000 PUSH1 0x3 DUP2 SWAP1 SSTORE PUSH1 0x4 SSTORE PUSH3 0x4C4B40 PUSH1 0x10 DUP2 SWAP1 SSTORE PUSH1 0x6 SSTORE PUSH11 0x422CA8B0A00A425000000 PUSH1 0x9 SSTORE POP JUMP JUMPDEST PUSH1 0x40 MLOAD PUSH3 0x461BCD PUSH1 0xE5 SHL DUP2 MSTORE PUSH1 0x20 PUSH1 0x4 DUP3 ADD MSTORE PUSH1 0x19 PUSH1 0x24 DUP3 ADD MSTORE PUSH32 0x50726573616C652069742773206F7665722C20736F7272792100000000000000 PUSH1 0x44 DUP3 ADD MSTORE PUSH1 0x64 ADD PUSH1 0x40 MLOAD DUP1 SWAP2 SUB SWAP1 REVERT JUMPDEST DUP1 DUP3 ADD DUP1 DUP3 GT ISZERO PUSH3 0x2AA JUMPI PUSH4 0x4E487B71 PUSH1 0xE0 SHL PUSH1 0x0 MSTORE PUSH1 0x11 PUSH1 0x4 MSTORE PUSH1 0x24 PUSH1 0x0 REVERT JUMPDEST SWAP3 SWAP2 POP POP JUMP JUMPDEST PUSH2 0x2244 DUP1 PUSH3 0x2C0 PUSH1 0x0 CODECOPY PUSH1 0x0 RETURN INVALID PUSH1 0x80 PUSH1 0x40 MSTORE PUSH1 0x4 CALLDATASIZE LT PUSH2 0x251 JUMPI PUSH1 0x0 CALLDATALOAD PUSH1 0xE0 SHR DUP1 PUSH4 0x78E97925 GT PUSH2 0x139 JUMPI DUP1 PUSH4 0xB32C7DC1 GT PUSH2 0xB6 JUMPI DUP1 PUSH4 0xE9B8C896 GT PUSH2 0x7A JUMPI DUP1 PUSH4 0xE9B8C896 EQ PUSH2 0x66A JUMPI DUP1 PUSH4 0xEF46B2AB EQ PUSH2 0x68A JUMPI DUP1 PUSH4 0xEF9089D6 EQ PUSH2 0x6AA JUMPI DUP1 PUSH4 0xF04D688F EQ PUSH2 0x6C0 JUMPI DUP1 PUSH4 0xF2FDE38B EQ PUSH2 0x6D6 JUMPI DUP1 PUSH4 0xF51F96DD EQ PUSH2 0x6F6 JUMPI PUSH1 0x0 DUP1 REVERT JUMPDEST DUP1 PUSH4 0xB32C7DC1 EQ PUSH2 0x5DF JUMPI DUP1 PUSH4 0xBC755EC0 EQ PUSH2 0x5F4 JUMPI DUP1 PUSH4 0xDFC7BF6D EQ PUSH2 0x614 JUMPI DUP1 PUSH4 0xE3C3BB66 EQ PUSH2 0x62A JUMPI DUP1 PUSH4 0xE985E367 EQ PUSH2 0x64A JUMPI PUSH1 0x0 DUP1 REVERT JUMPDEST DUP1 PUSH4 0x94DC9CF3 GT PUSH2 0xFD JUMPI DUP1 PUSH4 0x94DC9CF3 EQ PUSH2 0x561 JUMPI DUP1 PUSH4 0x94E99256 EQ PUSH2 0x574 JUMPI DUP1 PUSH4 0x99F02935 EQ PUSH2 0x589 JUMPI DUP1 PUSH4 0xA1BBC6A7 EQ PUSH2 0x5A9 JUMPI DUP1 PUSH4 0xB2CAAEBD EQ PUSH2 0x5BF JUMPI PUSH1 0x0 DUP1 REVERT JUMPDEST DUP1 PUSH4 0x78E97925 EQ PUSH2 0x4EC JUMPI DUP1 PUSH4 0x8008D5BC EQ PUSH2 0x502 JUMPI DUP1 PUSH4 0x8456CB59 EQ PUSH2 0x518 JUMPI DUP1 PUSH4 0x8D6A2ED5 EQ PUSH2 0x52D JUMPI DUP1 PUSH4 0x8DA5CB5B EQ PUSH2 0x543 JUMPI PUSH1 0x0 DUP1 REVERT JUMPDEST DUP1 PUSH4 0x1E8F0D39 GT PUSH2 0x1D2 JUMPI DUP1 PUSH4 0x43A649E3 GT PUSH2 0x196 JUMPI DUP1 PUSH4 0x43A649E3 EQ PUSH2 0x43D JUMPI DUP1 PUSH4 0x4E71D92D EQ PUSH2 0x45D JUMPI DUP1 PUSH4 0x5BC34F71 EQ PUSH2 0x472 JUMPI DUP1 PUSH4 0x5C975ABB EQ PUSH2 0x488 JUMPI DUP1 PUSH4 0x715018A6 EQ PUSH2 0x4A7 JUMPI DUP1 PUSH4 0x73B2E80E EQ PUSH2 0x4BC JUMPI PUSH1 0x0 DUP1 REVERT JUMPDEST DUP1 PUSH4 0x1E8F0D39 EQ PUSH2 0x3BC JUMPI DUP1 PUSH4 0x2E5AFCEF EQ PUSH2 0x3E6 JUMPI DUP1 PUSH4 0x3197CBB6 EQ PUSH2 0x3FC JUMPI DUP1 PUSH4 0x33F76178 EQ PUSH2 0x412 JUMPI DUP1 PUSH4 0x3F4BA83A EQ PUSH2 0x428 JUMPI PUSH1 0x0 DUP1 REVERT JUMPDEST DUP1 PUSH4 0xBC1236E GT PUSH2 0x219 JUMPI DUP1 PUSH4 0xBC1236E EQ PUSH2 0x30E JUMPI DUP1 PUSH4 0xDC9C838 EQ PUSH2 0x32E JUMPI DUP1 PUSH4 0x11B3840E EQ PUSH2 0x34E JUMPI DUP1 PUSH4 0x1694505E EQ PUSH2 0x364 JUMPI DUP1 PUSH4 0x1919FED7 EQ PUSH2 0x39C JUMPI PUSH1 0x0 DUP1 REVERT JUMPDEST DUP1 PUSH4 0x5F7DE4B EQ PUSH2 0x256 JUMPI DUP1 PUSH4 0x6B091F9 EQ PUSH2 0x27F JUMPI DUP1 PUSH4 0x7F18082 EQ PUSH2 0x2A1 JUMPI DUP1 PUSH4 0x8677EFA EQ PUSH2 0x2C1 JUMPI DUP1 PUSH4 0xBA36DCD EQ PUSH2 0x2E1 JUMPI JUMPDEST PUSH1 0x0 DUP1 REVERT JUMPDEST CALLVALUE DUP1 ISZERO PUSH2 0x262 JUMPI PUSH1 0x0 DUP1 REVERT JUMPDEST POP PUSH2 0x26C PUSH1 0x9 SLOAD DUP2 JUMP JUMPDEST PUSH1 0x40 MLOAD SWAP1 DUP2 MSTORE PUSH1 0x20 ADD JUMPDEST PUSH1 0x40 MLOAD DUP1 SWAP2 SUB SWAP1 RETURN JUMPDEST CALLVALUE DUP1 ISZERO PUSH2 0x28B JUMPI PUSH1 0x0 DUP1 REVERT JUMPDEST POP PUSH2 0x29F PUSH2 0x29A CALLDATASIZE PUSH1 0x4 PUSH2 0x1FA9 JUMP JUMPDEST PUSH2 0x70C JUMP JUMPDEST STOP JUMPDEST CALLVALUE DUP1 ISZERO PUSH2 0x2AD JUMPI PUSH1 0x0 DUP1 REVERT JUMPDEST POP PUSH2 0x29F PUSH2 0x2BC CALLDATASIZE PUSH1 0x4 PUSH2 0x1FD3 JUMP JUMPDEST PUSH2 0x7AB JUMP JUMPDEST CALLVALUE DUP1 ISZERO PUSH2 0x2CD JUMPI PUSH1 0x0 DUP1 REVERT JUMPDEST POP PUSH2 0x29F PUSH2 0x2DC CALLDATASIZE PUSH1 0x4 PUSH2 0x1FD3 JUMP JUMPDEST PUSH2 0x898 JUMP JUMPDEST CALLVALUE DUP1 ISZERO PUSH2 0x2ED JUMPI PUSH1 0x0 DUP1 REVERT JUMPDEST POP PUSH2 0x26C PUSH2 0x2FC CALLDATASIZE PUSH1 0x4 PUSH2 0x1FEC JUMP JUMPDEST PUSH1 0x17 PUSH1 0x20 MSTORE PUSH1 0x0 SWAP1 DUP2 MSTORE PUSH1 0x40 SWAP1 KECCAK256 SLOAD DUP2 JUMP JUMPDEST CALLVALUE DUP1 ISZERO PUSH2 0x31A JUMPI PUSH1 0x0 DUP1 REVERT JUMPDEST POP PUSH2 0x26C PUSH2 0x329 CALLDATASIZE PUSH1 0x4 PUSH2 0x2007 JUMP JUMPDEST PUSH2 0x8F4 JUMP JUMPDEST CALLVALUE DUP1 ISZERO PUSH2 0x33A JUMPI PUSH1 0x0 DUP1 REVERT JUMPDEST POP PUSH2 0x29F PUSH2 0x349 CALLDATASIZE PUSH1 0x4 PUSH2 0x2007 JUMP JUMPDEST PUSH2 0x92B JUMP JUMPDEST CALLVALUE DUP1 ISZERO PUSH2 0x35A JUMPI PUSH1 0x0 DUP1 REVERT JUMPDEST POP PUSH2 0x26C PUSH1 0x5 SLOAD DUP2 JUMP JUMPDEST CALLVALUE DUP1 ISZERO PUSH2 0x370 JUMPI PUSH1 0x0 DUP1 REVERT JUMPDEST POP PUSH1 0x2 SLOAD PUSH2 0x384 SWAP1 PUSH1 0x1 PUSH1 0x1 PUSH1 0xA0 SHL SUB AND DUP2 JUMP JUMPDEST PUSH1 0x40 MLOAD PUSH1 0x1 PUSH1 0x1 PUSH1 0xA0 SHL SUB SWAP1 SWAP2 AND DUP2 MSTORE PUSH1 0x20 ADD PUSH2 0x276 JUMP JUMPDEST CALLVALUE DUP1 ISZERO PUSH2 0x3A8 JUMPI PUSH1 0x0 DUP1 REVERT JUMPDEST POP PUSH2 0x29F PUSH2 0x3B7 CALLDATASIZE PUSH1 0x4 PUSH2 0x1FD3 JUMP JUMPDEST PUSH2 0xA25 JUMP JUMPDEST CALLVALUE DUP1 ISZERO PUSH2 0x3C8 JUMPI PUSH1 0x0 DUP1 REVERT JUMPDEST POP PUSH1 0xF SLOAD PUSH2 0x3D6 SWAP1 PUSH1 0xFF AND DUP2 JUMP JUMPDEST PUSH1 0x40 MLOAD SWAP1 ISZERO ISZERO DUP2 MSTORE PUSH1 0x20 ADD PUSH2 0x276 JUMP JUMPDEST CALLVALUE DUP1 ISZERO PUSH2 0x3F2 JUMPI PUSH1 0x0 DUP1 REVERT JUMPDEST POP PUSH2 0x26C PUSH1 0x10 SLOAD DUP2 JUMP JUMPDEST CALLVALUE DUP1 ISZERO PUSH2 0x408 JUMPI PUSH1 0x0 DUP1 REVERT JUMPDEST POP PUSH2 0x26C PUSH1 0xC SLOAD DUP2 JUMP JUMPDEST CALLVALUE DUP1 ISZERO PUSH2 0x41E JUMPI PUSH1 0x0 DUP1 REVERT JUMPDEST POP PUSH2 0x26C PUSH1 0xE SLOAD DUP2 JUMP JUMPDEST CALLVALUE DUP1 ISZERO PUSH2 0x434 JUMPI PUSH1 0x0 DUP1 REVERT JUMPDEST POP PUSH2 0x29F PUSH2 0xA32 JUMP JUMPDEST CALLVALUE DUP1 ISZERO PUSH2 0x449 JUMPI PUSH1 0x0 DUP1 REVERT JUMPDEST POP PUSH2 0x29F PUSH2 0x458 CALLDATASIZE PUSH1 0x4 PUSH2 0x1FD3 JUMP JUMPDEST PUSH2 0xA4E JUMP JUMPDEST CALLVALUE DUP1 ISZERO PUSH2 0x469 JUMPI PUSH1 0x0 DUP1 REVERT JUMPDEST POP PUSH2 0x29F PUSH2 0xA90 JUMP JUMPDEST CALLVALUE DUP1 ISZERO PUSH2 0x47E JUMPI PUSH1 0x0 DUP1 REVERT JUMPDEST POP PUSH2 0x26C PUSH1 0x11 SLOAD DUP2 JUMP JUMPDEST CALLVALUE DUP1 ISZERO PUSH2 0x494 JUMPI PUSH1 0x0 DUP1 REVERT JUMPDEST POP PUSH1 0x1 SLOAD PUSH1 0x1 PUSH1 0xA0 SHL SWAP1 DIV PUSH1 0xFF AND PUSH2 0x3D6 JUMP JUMPDEST CALLVALUE DUP1 ISZERO PUSH2 0x4B3 JUMPI PUSH1 0x0 DUP1 REVERT JUMPDEST POP PUSH2 0x29F PUSH2 0xCBC JUMP JUMPDEST CALLVALUE DUP1 ISZERO PUSH2 0x4C8 JUMPI PUSH1 0x0 DUP1 REVERT JUMPDEST POP PUSH2 0x3D6 PUSH2 0x4D7 CALLDATASIZE PUSH1 0x4 PUSH2 0x1FEC JUMP JUMPDEST PUSH1 0x18 PUSH1 0x20 MSTORE PUSH1 0x0 SWAP1 DUP2 MSTORE PUSH1 0x40 SWAP1 KECCAK256 SLOAD PUSH1 0xFF AND DUP2 JUMP JUMPDEST CALLVALUE DUP1 ISZERO PUSH2 0x4F8 JUMPI PUSH1 0x0 DUP1 REVERT JUMPDEST POP PUSH2 0x26C PUSH1 0xB SLOAD DUP2 JUMP JUMPDEST CALLVALUE DUP1 ISZERO PUSH2 0x50E JUMPI PUSH1 0x0 DUP1 REVERT JUMPDEST POP PUSH2 0x26C PUSH1 0x8 SLOAD DUP2 JUMP JUMPDEST CALLVALUE DUP1 ISZERO PUSH2 0x524 JUMPI PUSH1 0x0 DUP1 REVERT JUMPDEST POP PUSH2 0x29F PUSH2 0xCD0 JUMP JUMPDEST CALLVALUE DUP1 ISZERO PUSH2 0x539 JUMPI PUSH1 0x0 DUP1 REVERT JUMPDEST POP PUSH2 0x26C PUSH1 0x7 SLOAD DUP2 JUMP JUMPDEST CALLVALUE DUP1 ISZERO PUSH2 0x54F JUMPI PUSH1 0x0 DUP1 REVERT JUMPDEST POP PUSH1 0x1 SLOAD PUSH1 0x1 PUSH1 0x1 PUSH1 0xA0 SHL SUB AND PUSH2 0x384 JUMP JUMPDEST PUSH2 0x29F PUSH2 0x56F CALLDATASIZE PUSH1 0x4 PUSH2 0x1FD3 JUMP JUMPDEST PUSH2 0xCEF JUMP JUMPDEST CALLVALUE DUP1 ISZERO PUSH2 0x580 JUMPI PUSH1 0x0 DUP1 REVERT JUMPDEST POP PUSH2 0x26C PUSH2 0x10A5 JUMP JUMPDEST CALLVALUE DUP1 ISZERO PUSH2 0x595 JUMPI PUSH1 0x0 DUP1 REVERT JUMPDEST POP PUSH2 0x29F PUSH2 0x5A4 CALLDATASIZE PUSH1 0x4 PUSH2 0x2007 JUMP JUMPDEST PUSH2 0x1136 JUMP JUMPDEST CALLVALUE DUP1 ISZERO PUSH2 0x5B5 JUMPI PUSH1 0x0 DUP1 REVERT JUMPDEST POP PUSH2 0x26C PUSH1 0xA SLOAD DUP2 JUMP JUMPDEST CALLVALUE DUP1 ISZERO PUSH2 0x5CB JUMPI PUSH1 0x0 DUP1 REVERT JUMPDEST POP PUSH2 0x29F PUSH2 0x5DA CALLDATASIZE PUSH1 0x4 PUSH2 0x2029 JUMP JUMPDEST PUSH2 0x1605 JUMP JUMPDEST CALLVALUE DUP1 ISZERO PUSH2 0x5EB JUMPI PUSH1 0x0 DUP1 REVERT JUMPDEST POP PUSH2 0x29F PUSH2 0x179E JUMP JUMPDEST CALLVALUE DUP1 ISZERO PUSH2 0x600 JUMPI PUSH1 0x0 DUP1 REVERT JUMPDEST POP PUSH2 0x29F PUSH2 0x60F CALLDATASIZE PUSH1 0x4 PUSH2 0x1FEC JUMP JUMPDEST PUSH2 0x1852 JUMP JUMPDEST CALLVALUE DUP1 ISZERO PUSH2 0x620 JUMPI PUSH1 0x0 DUP1 REVERT JUMPDEST POP PUSH2 0x26C PUSH1 0x6 SLOAD DUP2 JUMP JUMPDEST CALLVALUE DUP1 ISZERO PUSH2 0x636 JUMPI PUSH1 0x0 DUP1 REVERT JUMPDEST POP PUSH2 0x29F PUSH2 0x645 CALLDATASIZE PUSH1 0x4 PUSH2 0x1FD3 JUMP JUMPDEST PUSH2 0x187C JUMP JUMPDEST CALLVALUE DUP1 ISZERO PUSH2 0x656 JUMPI PUSH1 0x0 DUP1 REVERT JUMPDEST POP PUSH1 0x12 SLOAD PUSH2 0x384 SWAP1 PUSH1 0x1 PUSH1 0x1 PUSH1 0xA0 SHL SUB AND DUP2 JUMP JUMPDEST CALLVALUE DUP1 ISZERO PUSH2 0x676 JUMPI PUSH1 0x0 DUP1 REVERT JUMPDEST POP PUSH2 0x29F PUSH2 0x685 CALLDATASIZE PUSH1 0x4 PUSH2 0x1FD3 JUMP JUMPDEST PUSH2 0x18E7 JUMP JUMPDEST CALLVALUE DUP1 ISZERO PUSH2 0x696 JUMPI PUSH1 0x0 DUP1 REVERT JUMPDEST POP PUSH2 0x26C PUSH2 0x6A5 CALLDATASIZE PUSH1 0x4 PUSH2 0x1FD3 JUMP JUMPDEST PUSH2 0x1918 JUMP JUMPDEST CALLVALUE DUP1 ISZERO PUSH2 0x6B6 JUMPI PUSH1 0x0 DUP1 REVERT JUMPDEST POP PUSH2 0x26C PUSH1 0x4 SLOAD DUP2 JUMP JUMPDEST CALLVALUE DUP1 ISZERO PUSH2 0x6CC JUMPI PUSH1 0x0 DUP1 REVERT JUMPDEST POP PUSH2 0x26C PUSH1 0xD SLOAD DUP2 JUMP JUMPDEST CALLVALUE DUP1 ISZERO PUSH2 0x6E2 JUMPI PUSH1 0x0 DUP1 REVERT JUMPDEST POP PUSH2 0x29F PUSH2 0x6F1 CALLDATASIZE PUSH1 0x4 PUSH2 0x1FEC JUMP JUMPDEST PUSH2 0x1951 JUMP JUMPDEST CALLVALUE DUP1 ISZERO PUSH2 0x702 JUMPI PUSH1 0x0 DUP1 REVERT JUMPDEST POP PUSH2 0x26C PUSH1 0x3 SLOAD DUP2 JUMP JUMPDEST PUSH2 0x714 PUSH2 0x19C7 JUMP JUMPDEST DUP2 PUSH1 0x1 PUSH1 0x1 PUSH1 0xA0 SHL SUB AND PUSH4 0xA9059CBB PUSH2 0x735 PUSH1 0x1 SLOAD PUSH1 0x1 PUSH1 0x1 PUSH1 0xA0 SHL SUB AND SWAP1 JUMP JUMPDEST PUSH1 0x40 MLOAD PUSH1 0x1 PUSH1 0x1 PUSH1 0xE0 SHL SUB NOT PUSH1 0xE0 DUP5 SWAP1 SHL AND DUP2 MSTORE PUSH1 0x1 PUSH1 0x1 PUSH1 0xA0 SHL SUB SWAP1 SWAP2 AND PUSH1 0x4 DUP3 ADD MSTORE PUSH1 0x24 DUP2 ADD DUP5 SWAP1 MSTORE PUSH1 0x44 ADD PUSH1 0x20 PUSH1 0x40 MLOAD DUP1 DUP4 SUB DUP2 PUSH1 0x0 DUP8 GAS CALL ISZERO DUP1 ISZERO PUSH2 0x782 JUMPI RETURNDATASIZE PUSH1 0x0 DUP1 RETURNDATACOPY RETURNDATASIZE PUSH1 0x0 REVERT JUMPDEST POP POP POP POP PUSH1 0x40 MLOAD RETURNDATASIZE PUSH1 0x1F NOT PUSH1 0x1F DUP3 ADD AND DUP3 ADD DUP1 PUSH1 0x40 MSTORE POP DUP2 ADD SWAP1 PUSH2 0x7A6 SWAP2 SWAP1 PUSH2 0x205E JUMP JUMPDEST POP POP POP JUMP JUMPDEST PUSH2 0x7B3 PUSH2 0x19C7 JUMP JUMPDEST PUSH1 0x0 PUSH1 0xD SLOAD GT PUSH2 0x80A JUMPI PUSH1 0x40 MLOAD PUSH3 0x461BCD PUSH1 0xE5 SHL DUP2 MSTORE PUSH1 0x20 PUSH1 0x4 DUP3 ADD MSTORE PUSH1 0x1A PUSH1 0x24 DUP3 ADD MSTORE PUSH32 0x496E697469616C20636C61696D2064617461206E6F7420736574000000000000 PUSH1 0x44 DUP3 ADD MSTORE PUSH1 0x64 ADD JUMPDEST PUSH1 0x40 MLOAD DUP1 SWAP2 SUB SWAP1 REVERT JUMPDEST PUSH1 0xC SLOAD DUP2 GT PUSH2 0x84E JUMPI PUSH1 0x40 MLOAD PUSH3 0x461BCD PUSH1 0xE5 SHL DUP2 MSTORE PUSH1 0x20 PUSH1 0x4 DUP3 ADD MSTORE PUSH1 0x10 PUSH1 0x24 DUP3 ADD MSTORE PUSH16 0x53616C6520696E2070726F6772657373 PUSH1 0x80 SHL PUSH1 0x44 DUP3 ADD MSTORE PUSH1 0x64 ADD PUSH2 0x801 JUMP JUMPDEST TIMESTAMP DUP2 GT PUSH2 0x893 JUMPI PUSH1 0x40 MLOAD PUSH3 0x461BCD PUSH1 0xE5 SHL DUP2 MSTORE PUSH1 0x20 PUSH1 0x4 DUP3 ADD MSTORE PUSH1 0x13 PUSH1 0x24 DUP3 ADD MSTORE PUSH19 0x10DB185A5B481CDD185C9D081A5B881C185CDD PUSH1 0x6A SHL PUSH1 0x44 DUP3 ADD MSTORE PUSH1 0x64 ADD PUSH2 0x801 JUMP JUMPDEST PUSH1 0xD SSTORE JUMP JUMPDEST PUSH2 0x8A0 PUSH2 0x19C7 JUMP JUMPDEST PUSH1 0x0 DUP2 GT DUP1 ISZERO PUSH2 0x8B2 JUMPI POP PUSH1 0x7 SLOAD DUP2 EQ ISZERO JUMPDEST PUSH2 0x8EF JUMPI PUSH1 0x40 MLOAD PUSH3 0x461BCD PUSH1 0xE5 SHL DUP2 MSTORE PUSH1 0x20 PUSH1 0x4 DUP3 ADD MSTORE PUSH1 0xE PUSH1 0x24 DUP3 ADD MSTORE PUSH14 0x125B9D985B1A5908185B5BDD5B9D PUSH1 0x92 SHL PUSH1 0x44 DUP3 ADD MSTORE PUSH1 0x64 ADD PUSH2 0x801 JUMP JUMPDEST PUSH1 0x7 SSTORE JUMP JUMPDEST PUSH1 0x0 PUSH2 0x8FF DUP4 PUSH2 0x1A21 JUMP JUMPDEST SWAP1 POP DUP2 ISZERO DUP1 PUSH2 0x90E JUMPI POP DUP2 PUSH1 0x1 EQ JUMPDEST ISZERO PUSH2 0x925 JUMPI PUSH2 0x922 PUSH5 0xE8D4A51000 DUP3 PUSH2 0x2096 JUMP JUMPDEST SWAP1 POP JUMPDEST SWAP3 SWAP2 POP POP JUMP JUMPDEST PUSH2 0x933 PUSH2 0x19C7 JUMP JUMPDEST PUSH1 0x0 DUP3 GT DUP1 PUSH2 0x942 JUMPI POP PUSH1 0x0 DUP2 GT JUMPDEST PUSH2 0x983 JUMPI PUSH1 0x40 MLOAD PUSH3 0x461BCD PUSH1 0xE5 SHL DUP2 MSTORE PUSH1 0x20 PUSH1 0x4 DUP3 ADD MSTORE PUSH1 0x12 PUSH1 0x24 DUP3 ADD MSTORE PUSH18 0x496E76616C696420706172616D6574657273 PUSH1 0x70 SHL PUSH1 0x44 DUP3 ADD MSTORE PUSH1 0x64 ADD PUSH2 0x801 JUMP JUMPDEST DUP2 ISZERO PUSH2 0x9D2 JUMPI DUP2 TIMESTAMP LT PUSH2 0x9CC JUMPI PUSH1 0x40 MLOAD PUSH3 0x461BCD PUSH1 0xE5 SHL DUP2 MSTORE PUSH1 0x20 PUSH1 0x4 DUP3 ADD MSTORE PUSH1 0x11 PUSH1 0x24 DUP3 ADD MSTORE PUSH17 0x14D85B19481D1A5B59481A5B881C185CDD PUSH1 0x7A SHL PUSH1 0x44 DUP3 ADD MSTORE PUSH1 0x64 ADD PUSH2 0x801 JUMP JUMPDEST PUSH1 0xB DUP3 SWAP1 SSTORE JUMPDEST DUP1 ISZERO PUSH2 0xA21 JUMPI PUSH1 0xB SLOAD DUP2 GT PUSH2 0xA1B JUMPI PUSH1 0x40 MLOAD PUSH3 0x461BCD PUSH1 0xE5 SHL DUP2 MSTORE PUSH1 0x20 PUSH1 0x4 DUP3 ADD MSTORE PUSH1 0xF PUSH1 0x24 DUP3 ADD MSTORE PUSH15 0x496E76616C696420656E6454696D65 PUSH1 0x88 SHL PUSH1 0x44 DUP3 ADD MSTORE PUSH1 0x64 ADD PUSH2 0x801 JUMP JUMPDEST PUSH1 0xC DUP2 SWAP1 SSTORE JUMPDEST POP POP JUMP JUMPDEST PUSH2 0xA2D PUSH2 0x19C7 JUMP JUMPDEST PUSH1 0x3 SSTORE JUMP JUMPDEST PUSH2 0xA3A PUSH2 0x19C7 JUMP JUMPDEST PUSH2 0xA42 PUSH2 0x1C0B JUMP JUMPDEST PUSH1 0xF DUP1 SLOAD PUSH1 0xFF NOT AND SWAP1 SSTORE JUMP JUMPDEST PUSH2 0xA56 PUSH2 0x19C7 JUMP JUMPDEST PUSH1 0x6 SLOAD PUSH1 0x0 PUSH2 0xA65 DUP3 DUP1 PUSH2 0x20B8 JUMP JUMPDEST SWAP1 POP PUSH2 0xA79 DUP2 PUSH8 0xDE0B6B3A7640000 PUSH2 0x20CB JUMP JUMPDEST PUSH1 0x9 SLOAD PUSH2 0xA86 SWAP2 SWAP1 PUSH2 0x20E2 JUMP JUMPDEST PUSH1 0x9 SSTORE POP POP PUSH1 0x6 SSTORE JUMP JUMPDEST PUSH2 0xA98 PUSH2 0x1C60 JUMP JUMPDEST PUSH1 0x12 SLOAD PUSH1 0x1 PUSH1 0x1 PUSH1 0xA0 SHL SUB AND PUSH2 0xAE7 JUMPI PUSH1 0x40 MLOAD PUSH3 0x461BCD PUSH1 0xE5 SHL DUP2 MSTORE PUSH1 0x20 PUSH1 0x4 DUP3 ADD MSTORE PUSH1 0x14 PUSH1 0x24 DUP3 ADD MSTORE PUSH20 0x14D85B19481D1BDAD95B881B9BDD081859191959 PUSH1 0x62 SHL PUSH1 0x44 DUP3 ADD MSTORE PUSH1 0x64 ADD PUSH2 0x801 JUMP JUMPDEST PUSH1 0xD SLOAD TIMESTAMP LT ISZERO PUSH2 0xB39 JUMPI PUSH1 0x40 MLOAD PUSH3 0x461BCD PUSH1 0xE5 SHL DUP2 MSTORE PUSH1 0x20 PUSH1 0x4 DUP3 ADD MSTORE PUSH1 0x19 PUSH1 0x24 DUP3 ADD MSTORE PUSH32 0x436C61696D20686173206E6F7420737461727465642079657400000000000000 PUSH1 0x44 DUP3 ADD MSTORE PUSH1 0x64 ADD PUSH2 0x801 JUMP JUMPDEST CALLER PUSH1 0x0 SWAP1 DUP2 MSTORE PUSH1 0x18 PUSH1 0x20 MSTORE PUSH1 0x40 SWAP1 KECCAK256 SLOAD PUSH1 0xFF AND ISZERO PUSH2 0xB8B JUMPI PUSH1 0x40 MLOAD PUSH3 0x461BCD PUSH1 0xE5 SHL DUP2 MSTORE PUSH1 0x20 PUSH1 0x4 DUP3 ADD MSTORE PUSH1 0xF PUSH1 0x24 DUP3 ADD MSTORE PUSH15 0x105B1C9958591E4818DB185A5B5959 PUSH1 0x8A SHL PUSH1 0x44 DUP3 ADD MSTORE PUSH1 0x64 ADD PUSH2 0x801 JUMP JUMPDEST CALLER PUSH1 0x0 SWAP1 DUP2 MSTORE PUSH1 0x18 PUSH1 0x20 SWAP1 DUP2 MSTORE PUSH1 0x40 DUP1 DUP4 KECCAK256 DUP1 SLOAD PUSH1 0xFF NOT AND PUSH1 0x1 OR SWAP1 SSTORE PUSH1 0x17 SWAP1 SWAP2 MSTORE SWAP1 KECCAK256 SLOAD DUP1 PUSH2 0xBF0 JUMPI PUSH1 0x40 MLOAD PUSH3 0x461BCD PUSH1 0xE5 SHL DUP2 MSTORE PUSH1 0x20 PUSH1 0x4 DUP3 ADD MSTORE PUSH1 0x10 PUSH1 0x24 DUP3 ADD MSTORE PUSH16 0x4E6F7468696E6720746F20636C61696D PUSH1 0x80 SHL PUSH1 0x44 DUP3 ADD MSTORE PUSH1 0x64 ADD PUSH2 0x801 JUMP JUMPDEST CALLER PUSH1 0x0 DUP2 DUP2 MSTORE PUSH1 0x17 PUSH1 0x20 SWAP1 DUP2 MSTORE PUSH1 0x40 DUP1 DUP4 KECCAK256 DUP4 SWAP1 SSTORE PUSH1 0x12 SLOAD DUP2 MLOAD PUSH4 0xA9059CBB PUSH1 0xE0 SHL DUP2 MSTORE PUSH1 0x4 DUP2 ADD SWAP6 SWAP1 SWAP6 MSTORE PUSH1 0x24 DUP6 ADD DUP7 SWAP1 MSTORE SWAP1 MLOAD PUSH1 0x1 PUSH1 0x1 PUSH1 0xA0 SHL SUB SWAP1 SWAP2 AND SWAP4 PUSH4 0xA9059CBB SWAP4 PUSH1 0x44 DUP1 DUP4 ADD SWAP5 SWAP4 SWAP3 DUP4 SWAP1 SUB ADD SWAP1 DUP3 SWAP1 DUP8 GAS CALL ISZERO DUP1 ISZERO PUSH2 0xC5A JUMPI RETURNDATASIZE PUSH1 0x0 DUP1 RETURNDATACOPY RETURNDATASIZE PUSH1 0x0 REVERT JUMPDEST POP POP POP POP PUSH1 0x40 MLOAD RETURNDATASIZE PUSH1 0x1F NOT PUSH1 0x1F DUP3 ADD AND DUP3 ADD DUP1 PUSH1 0x40 MSTORE POP DUP2 ADD SWAP1 PUSH2 0xC7E SWAP2 SWAP1 PUSH2 0x205E JUMP JUMPDEST POP PUSH1 0x40 DUP1 MLOAD DUP3 DUP2 MSTORE TIMESTAMP PUSH1 0x20 DUP3 ADD MSTORE CALLER SWAP2 PUSH32 0x9923B4306C6C030F2BDFBF156517D5983B87E15B96176DA122CD4F2EFFA4BA7B SWAP2 ADD PUSH1 0x40 MLOAD DUP1 SWAP2 SUB SWAP1 LOG2 POP JUMP JUMPDEST PUSH2 0xCC4 PUSH2 0x19C7 JUMP JUMPDEST PUSH2 0xCCE PUSH1 0x0 PUSH2 0x1CAD JUMP JUMPDEST JUMP JUMPDEST PUSH2 0xCD8 PUSH2 0x19C7 JUMP JUMPDEST PUSH2 0xCE0 PUSH2 0x1CFF JUMP JUMPDEST PUSH1 0xF DUP1 SLOAD PUSH1 0xFF NOT AND PUSH1 0x1 OR SWAP1 SSTORE JUMP JUMPDEST PUSH1 0x16 SLOAD DUP2 SWAP1 PUSH1 0x1 PUSH1 0x1 PUSH1 0xA0 SHL SUB AND CALLER EQ PUSH2 0xA21 JUMPI PUSH1 0xB SLOAD TIMESTAMP LT ISZERO DUP1 ISZERO PUSH2 0xD17 JUMPI POP PUSH1 0xC SLOAD TIMESTAMP GT ISZERO JUMPDEST PUSH2 0xD5D JUMPI PUSH1 0x40 MLOAD PUSH3 0x461BCD PUSH1 0xE5 SHL DUP2 MSTORE PUSH1 0x20 PUSH1 0x4 DUP3 ADD MSTORE PUSH1 0x17 PUSH1 0x24 DUP3 ADD MSTORE PUSH23 0x496E76616C69642074696D6520666F7220627579696E67 PUSH1 0x48 SHL PUSH1 0x44 DUP3 ADD MSTORE PUSH1 0x64 ADD PUSH2 0x801 JUMP JUMPDEST PUSH1 0x7 SLOAD DUP2 LT ISZERO PUSH2 0xDA2 JUMPI PUSH1 0x40 MLOAD PUSH3 0x461BCD PUSH1 0xE5 SHL DUP2 MSTORE PUSH1 0x20 PUSH1 0x4 DUP3 ADD MSTORE PUSH1 0x10 PUSH1 0x24 DUP3 ADD MSTORE PUSH16 0x151BDBC81CDB585B1B08185B5BDD5B9D PUSH1 0x82 SHL PUSH1 0x44 DUP3 ADD MSTORE PUSH1 0x64 ADD PUSH2 0x801 JUMP JUMPDEST PUSH1 0x0 DUP2 GT DUP1 ISZERO PUSH2 0xDB4 JUMPI POP PUSH1 0x8 SLOAD DUP2 GT ISZERO JUMPDEST PUSH2 0xDF6 JUMPI PUSH1 0x40 MLOAD PUSH3 0x461BCD PUSH1 0xE5 SHL DUP2 MSTORE PUSH1 0x20 PUSH1 0x4 DUP3 ADD MSTORE PUSH1 0x13 PUSH1 0x24 DUP3 ADD MSTORE PUSH19 0x125B9D985B1A59081CD85B1948185B5BDD5B9D PUSH1 0x6A SHL PUSH1 0x44 DUP3 ADD MSTORE PUSH1 0x64 ADD PUSH2 0x801 JUMP JUMPDEST PUSH2 0xDFE PUSH2 0x1C60 JUMP JUMPDEST PUSH2 0xE06 PUSH2 0x1D42 JUMP JUMPDEST PUSH1 0x0 PUSH2 0xE11 DUP4 PUSH2 0x1A21 JUMP JUMPDEST SWAP1 POP DUP1 ISZERO DUP1 ISZERO PUSH2 0xE23 JUMPI POP PUSH1 0x11 SLOAD PUSH1 0x3 EQ JUMPDEST ISZERO PUSH2 0xE40 JUMPI PUSH1 0x40 MLOAD PUSH3 0x461BCD PUSH1 0xE5 SHL DUP2 MSTORE PUSH1 0x4 ADD PUSH2 0x801 SWAP1 PUSH2 0x20F5 JUMP JUMPDEST PUSH1 0x0 PUSH2 0xE4A PUSH2 0x10A5 JUMP JUMPDEST PUSH2 0xE5C DUP4 PUSH8 0xDE0B6B3A7640000 PUSH2 0x20CB JUMP JUMPDEST PUSH2 0xE66 SWAP2 SWAP1 PUSH2 0x2096 JUMP JUMPDEST SWAP1 POP DUP1 CALLVALUE LT ISZERO PUSH2 0xEA7 JUMPI PUSH1 0x40 MLOAD PUSH3 0x461BCD PUSH1 0xE5 SHL DUP2 MSTORE PUSH1 0x20 PUSH1 0x4 DUP3 ADD MSTORE PUSH1 0xC PUSH1 0x24 DUP3 ADD MSTORE PUSH12 0x13195CDCC81C185E5B595B9D PUSH1 0xA2 SHL PUSH1 0x44 DUP3 ADD MSTORE PUSH1 0x64 ADD PUSH2 0x801 JUMP JUMPDEST PUSH1 0x0 PUSH2 0xEB3 DUP3 CALLVALUE PUSH2 0x20B8 JUMP JUMPDEST SWAP1 POP PUSH1 0x9 SLOAD DUP4 GT ISZERO PUSH2 0xF6F JUMPI PUSH1 0x0 PUSH1 0x9 SLOAD DUP5 PUSH2 0xECF SWAP2 SWAP1 PUSH2 0x20B8 JUMP JUMPDEST SWAP1 POP PUSH2 0xEE8 PUSH1 0x11 SLOAD PUSH1 0x1 PUSH2 0xEE3 SWAP2 SWAP1 PUSH2 0x20E2 JUMP JUMPDEST PUSH2 0x1D9B JUMP JUMPDEST DUP6 PUSH1 0x8 PUSH1 0x0 DUP3 DUP3 SLOAD PUSH2 0xEFA SWAP2 SWAP1 PUSH2 0x20B8 JUMP JUMPDEST SWAP1 SWAP2 SSTORE POP POP PUSH1 0x9 SLOAD DUP2 GT ISZERO PUSH2 0xF51 JUMPI PUSH1 0x40 MLOAD PUSH3 0x461BCD PUSH1 0xE5 SHL DUP2 MSTORE PUSH1 0x20 PUSH1 0x4 DUP3 ADD MSTORE PUSH1 0x1D PUSH1 0x24 DUP3 ADD MSTORE PUSH32 0x506C6561736520747279207769746820736D616C6C20616D6F756E742E000000 PUSH1 0x44 DUP3 ADD MSTORE PUSH1 0x64 ADD PUSH2 0x801 JUMP JUMPDEST DUP1 PUSH1 0x9 PUSH1 0x0 DUP3 DUP3 SLOAD PUSH2 0xF63 SWAP2 SWAP1 PUSH2 0x20B8 JUMP JUMPDEST SWAP1 SWAP2 SSTORE POP PUSH2 0xFFD SWAP2 POP POP JUMP JUMPDEST PUSH1 0x9 SLOAD DUP4 EQ DUP1 ISZERO PUSH2 0xF82 JUMPI POP PUSH1 0x11 SLOAD PUSH1 0x3 EQ JUMPDEST ISZERO PUSH2 0xFCC JUMPI PUSH1 0x3 SLOAD PUSH2 0xF94 SWAP1 DUP5 PUSH2 0x2096 JUMP JUMPDEST SWAP5 POP DUP5 PUSH1 0x8 PUSH1 0x0 DUP3 DUP3 SLOAD PUSH2 0xFA8 SWAP2 SWAP1 PUSH2 0x20B8 JUMP JUMPDEST SWAP3 POP POP DUP2 SWAP1 SSTORE POP DUP3 PUSH1 0x9 PUSH1 0x0 DUP3 DUP3 SLOAD PUSH2 0xFC1 SWAP2 SWAP1 PUSH2 0x20B8 JUMP JUMPDEST SWAP1 SWAP2 SSTORE POP PUSH2 0xFFD SWAP1 POP JUMP JUMPDEST DUP5 PUSH1 0x8 PUSH1 0x0 DUP3 DUP3 SLOAD PUSH2 0xFDE SWAP2 SWAP1 PUSH2 0x20B8 JUMP JUMPDEST SWAP3 POP POP DUP2 SWAP1 SSTORE POP DUP3 PUSH1 0x9 PUSH1 0x0 DUP3 DUP3 SLOAD PUSH2 0xFF7 SWAP2 SWAP1 PUSH2 0x20B8 JUMP JUMPDEST SWAP1 SWAP2 SSTORE POP POP JUMPDEST PUSH2 0x100F DUP6 PUSH8 0xDE0B6B3A7640000 PUSH2 0x20CB JUMP JUMPDEST CALLER PUSH1 0x0 SWAP1 DUP2 MSTORE PUSH1 0x17 PUSH1 0x20 MSTORE PUSH1 0x40 DUP2 KECCAK256 DUP1 SLOAD SWAP1 SWAP2 SWAP1 PUSH2 0x102E SWAP1 DUP5 SWAP1 PUSH2 0x20E2 JUMP JUMPDEST SWAP1 SWAP2 SSTORE POP POP PUSH1 0x16 SLOAD PUSH2 0x1049 SWAP1 PUSH1 0x1 PUSH1 0x1 PUSH1 0xA0 SHL SUB AND DUP4 PUSH2 0x1E67 JUMP JUMPDEST DUP1 ISZERO PUSH2 0x1059 JUMPI PUSH2 0x1059 CALLER DUP3 PUSH2 0x1E67 JUMP JUMPDEST PUSH1 0x40 DUP1 MLOAD DUP4 DUP2 MSTORE TIMESTAMP PUSH1 0x20 DUP3 ADD MSTORE PUSH1 0x0 SWAP2 DUP8 SWAP2 CALLER SWAP2 PUSH32 0x62E796E00A8E66154D78DA76DAAE129635B4795A6E1B889F2CAA6C5CEA22AC68 SWAP2 ADD PUSH1 0x40 MLOAD DUP1 SWAP2 SUB SWAP1 LOG4 POP POP POP PUSH2 0xA21 PUSH1 0x1 PUSH1 0x0 SSTORE JUMP JUMPDEST PUSH1 0x0 DUP1 PUSH1 0x13 PUSH1 0x0 SWAP1 SLOAD SWAP1 PUSH2 0x100 EXP SWAP1 DIV PUSH1 0x1 PUSH1 0x1 PUSH1 0xA0 SHL SUB AND PUSH1 0x1 PUSH1 0x1 PUSH1 0xA0 SHL SUB AND PUSH4 0xFEAF968C PUSH1 0x40 MLOAD DUP2 PUSH4 0xFFFFFFFF AND PUSH1 0xE0 SHL DUP2 MSTORE PUSH1 0x4 ADD PUSH1 0xA0 PUSH1 0x40 MLOAD DUP1 DUP4 SUB DUP2 DUP7 GAS STATICCALL ISZERO DUP1 ISZERO PUSH2 0x10FB JUMPI RETURNDATASIZE PUSH1 0x0 DUP1 RETURNDATACOPY RETURNDATASIZE PUSH1 0x0 REVERT JUMPDEST POP POP POP POP PUSH1 0x40 MLOAD RETURNDATASIZE PUSH1 0x1F NOT PUSH1 0x1F DUP3 ADD AND DUP3 ADD DUP1 PUSH1 0x40 MSTORE POP DUP2 ADD SWAP1 PUSH2 0x111F SWAP2 SWAP1 PUSH2 0x2146 JUMP JUMPDEST POP POP POP SWAP2 POP POP DUP1 PUSH5 0x2540BE400 PUSH2 0x925 SWAP2 SWAP1 PUSH2 0x2196 JUMP JUMPDEST PUSH1 0x16 SLOAD DUP3 SWAP1 PUSH1 0x1 PUSH1 0x1 PUSH1 0xA0 SHL SUB AND CALLER EQ PUSH2 0x7A6 JUMPI PUSH1 0xB SLOAD TIMESTAMP LT ISZERO DUP1 ISZERO PUSH2 0x115E JUMPI POP PUSH1 0xC SLOAD TIMESTAMP GT ISZERO JUMPDEST PUSH2 0x11A4 JUMPI PUSH1 0x40 MLOAD PUSH3 0x461BCD PUSH1 0xE5 SHL DUP2 MSTORE PUSH1 0x20 PUSH1 0x4 DUP3 ADD MSTORE PUSH1 0x17 PUSH1 0x24 DUP3 ADD MSTORE PUSH23 0x496E76616C69642074696D6520666F7220627579696E67 PUSH1 0x48 SHL PUSH1 0x44 DUP3 ADD MSTORE PUSH1 0x64 ADD PUSH2 0x801 JUMP JUMPDEST PUSH1 0x7 SLOAD DUP2 LT ISZERO PUSH2 0x11E9 JUMPI PUSH1 0x40 MLOAD PUSH3 0x461BCD PUSH1 0xE5 SHL DUP2 MSTORE PUSH1 0x20 PUSH1 0x4 DUP3 ADD MSTORE PUSH1 0x10 PUSH1 0x24 DUP3 ADD MSTORE PUSH16 0x151BDBC81CDB585B1B08185B5BDD5B9D PUSH1 0x82 SHL PUSH1 0x44 DUP3 ADD MSTORE PUSH1 0x64 ADD PUSH2 0x801 JUMP JUMPDEST PUSH1 0x0 DUP2 GT DUP1 ISZERO PUSH2 0x11FB JUMPI POP PUSH1 0x8 SLOAD DUP2 GT ISZERO JUMPDEST PUSH2 0x123D JUMPI PUSH1 0x40 MLOAD PUSH3 0x461BCD PUSH1 0xE5 SHL DUP2 MSTORE PUSH1 0x20 PUSH1 0x4 DUP3 ADD MSTORE PUSH1 0x13 PUSH1 0x24 DUP3 ADD MSTORE PUSH19 0x125B9D985B1A59081CD85B1948185B5BDD5B9D PUSH1 0x6A SHL PUSH1 0x44 DUP3 ADD MSTORE PUSH1 0x64 ADD PUSH2 0x801 JUMP JUMPDEST PUSH2 0x1245 PUSH2 0x1C60 JUMP JUMPDEST PUSH1 0x0 PUSH2 0x1250 DUP5 PUSH2 0x1A21 JUMP JUMPDEST SWAP1 POP DUP1 ISZERO DUP1 ISZERO PUSH2 0x1262 JUMPI POP PUSH1 0x11 SLOAD PUSH1 0x3 EQ JUMPDEST ISZERO PUSH2 0x127F JUMPI PUSH1 0x40 MLOAD PUSH3 0x461BCD PUSH1 0xE5 SHL DUP2 MSTORE PUSH1 0x4 ADD PUSH2 0x801 SWAP1 PUSH2 0x20F5 JUMP JUMPDEST DUP3 ISZERO DUP1 PUSH2 0x128C JUMPI POP DUP3 PUSH1 0x1 EQ JUMPDEST POP PUSH1 0x9 SLOAD DUP2 GT ISZERO PUSH2 0x12F2 JUMPI PUSH1 0x0 PUSH1 0x9 SLOAD DUP3 PUSH2 0x12A7 SWAP2 SWAP1 PUSH2 0x20B8 JUMP JUMPDEST SWAP1 POP PUSH2 0x12BB PUSH1 0x11 SLOAD PUSH1 0x1 PUSH2 0xEE3 SWAP2 SWAP1 PUSH2 0x20E2 JUMP JUMPDEST DUP5 PUSH1 0x8 PUSH1 0x0 DUP3 DUP3 SLOAD PUSH2 0x12CD SWAP2 SWAP1 PUSH2 0x20B8 JUMP JUMPDEST SWAP3 POP POP DUP2 SWAP1 SSTORE POP DUP1 PUSH1 0x9 PUSH1 0x0 DUP3 DUP3 SLOAD PUSH2 0x12E6 SWAP2 SWAP1 PUSH2 0x20B8 JUMP JUMPDEST SWAP1 SWAP2 SSTORE POP PUSH2 0x1380 SWAP2 POP POP JUMP JUMPDEST PUSH1 0x9 SLOAD DUP2 EQ DUP1 ISZERO PUSH2 0x1305 JUMPI POP PUSH1 0x11 SLOAD PUSH1 0x3 EQ JUMPDEST ISZERO PUSH2 0x134F JUMPI PUSH1 0x3 SLOAD PUSH2 0x1317 SWAP1 DUP3 PUSH2 0x2096 JUMP JUMPDEST SWAP4 POP DUP4 PUSH1 0x8 PUSH1 0x0 DUP3 DUP3 SLOAD PUSH2 0x132B SWAP2 SWAP1 PUSH2 0x20B8 JUMP JUMPDEST SWAP3 POP POP DUP2 SWAP1 SSTORE POP DUP1 PUSH1 0x9 PUSH1 0x0 DUP3 DUP3 SLOAD PUSH2 0x1344 SWAP2 SWAP1 PUSH2 0x20B8 JUMP JUMPDEST SWAP1 SWAP2 SSTORE POP PUSH2 0x1380 SWAP1 POP JUMP JUMPDEST DUP4 PUSH1 0x8 PUSH1 0x0 DUP3 DUP3 SLOAD PUSH2 0x1361 SWAP2 SWAP1 PUSH2 0x20B8 JUMP JUMPDEST SWAP3 POP POP DUP2 SWAP1 SSTORE POP DUP1 PUSH1 0x9 PUSH1 0x0 DUP3 DUP3 SLOAD PUSH2 0x137A SWAP2 SWAP1 PUSH2 0x20B8 JUMP JUMPDEST SWAP1 SWAP2 SSTORE POP POP JUMPDEST PUSH2 0x1392 DUP5 PUSH8 0xDE0B6B3A7640000 PUSH2 0x20CB JUMP JUMPDEST CALLER PUSH1 0x0 SWAP1 DUP2 MSTORE PUSH1 0x17 PUSH1 0x20 MSTORE PUSH1 0x40 DUP2 KECCAK256 DUP1 SLOAD SWAP1 SWAP2 SWAP1 PUSH2 0x13B1 SWAP1 DUP5 SWAP1 PUSH2 0x20E2 JUMP JUMPDEST SWAP1 SWAP2 SSTORE POP PUSH1 0x0 SWAP1 POP DUP4 DUP2 SUB PUSH2 0x13CE JUMPI POP PUSH1 0x15 SLOAD PUSH1 0x1 PUSH1 0x1 PUSH1 0xA0 SHL SUB AND JUMPDEST PUSH1 0x0 PUSH1 0x1 PUSH1 0x1 PUSH1 0xA0 SHL SUB DUP3 AND PUSH4 0xDD62ED3E CALLER PUSH1 0x40 MLOAD PUSH1 0x1 PUSH1 0x1 PUSH1 0xE0 SHL SUB NOT PUSH1 0xE0 DUP5 SWAP1 SHL AND DUP2 MSTORE PUSH1 0x1 PUSH1 0x1 PUSH1 0xA0 SHL SUB SWAP1 SWAP2 AND PUSH1 0x4 DUP3 ADD MSTORE ADDRESS PUSH1 0x24 DUP3 ADD MSTORE PUSH1 0x44 ADD PUSH1 0x20 PUSH1 0x40 MLOAD DUP1 DUP4 SUB DUP2 DUP7 GAS STATICCALL ISZERO DUP1 ISZERO PUSH2 0x142A JUMPI RETURNDATASIZE PUSH1 0x0 DUP1 RETURNDATACOPY RETURNDATASIZE PUSH1 0x0 REVERT JUMPDEST POP POP POP POP PUSH1 0x40 MLOAD RETURNDATASIZE PUSH1 0x1F NOT PUSH1 0x1F DUP3 ADD AND DUP3 ADD DUP1 PUSH1 0x40 MSTORE POP DUP2 ADD SWAP1 PUSH2 0x144E SWAP2 SWAP1 PUSH2 0x21C6 JUMP JUMPDEST SWAP1 POP DUP1 DUP4 GT ISZERO PUSH2 0x14AA JUMPI PUSH1 0x40 MLOAD PUSH3 0x461BCD PUSH1 0xE5 SHL DUP2 MSTORE PUSH1 0x20 PUSH1 0x4 DUP3 ADD MSTORE PUSH1 0x21 PUSH1 0x24 DUP3 ADD MSTORE PUSH32 0x4D616B65207375726520746F2061646420656E6F75676820616C6C6F77616E63 PUSH1 0x44 DUP3 ADD MSTORE PUSH1 0x65 PUSH1 0xF8 SHL PUSH1 0x64 DUP3 ADD MSTORE PUSH1 0x84 ADD PUSH2 0x801 JUMP JUMPDEST PUSH1 0x0 PUSH1 0x1 PUSH1 0x1 PUSH1 0xA0 SHL SUB DUP4 AND CALLER PUSH1 0x1 SLOAD PUSH1 0x1 PUSH1 0x1 PUSH1 0xA0 SHL SUB AND PUSH2 0x14D2 PUSH5 0xE8D4A51000 DUP9 PUSH2 0x2096 JUMP JUMPDEST PUSH1 0x40 MLOAD PUSH1 0x1 PUSH1 0x1 PUSH1 0xA0 SHL SUB SWAP4 DUP5 AND PUSH1 0x24 DUP3 ADD MSTORE SWAP3 SWAP1 SWAP2 AND PUSH1 0x44 DUP4 ADD MSTORE PUSH1 0x64 DUP3 ADD MSTORE PUSH1 0x84 ADD PUSH1 0x40 DUP1 MLOAD PUSH1 0x1F NOT DUP2 DUP5 SUB ADD DUP2 MSTORE SWAP2 DUP2 MSTORE PUSH1 0x20 DUP3 ADD DUP1 MLOAD PUSH1 0x1 PUSH1 0x1 PUSH1 0xE0 SHL SUB AND PUSH4 0x23B872DD PUSH1 0xE0 SHL OR SWAP1 MSTORE MLOAD PUSH2 0x152B SWAP2 SWAP1 PUSH2 0x21DF JUMP JUMPDEST PUSH1 0x0 PUSH1 0x40 MLOAD DUP1 DUP4 SUB DUP2 PUSH1 0x0 DUP7 GAS CALL SWAP2 POP POP RETURNDATASIZE DUP1 PUSH1 0x0 DUP2 EQ PUSH2 0x1568 JUMPI PUSH1 0x40 MLOAD SWAP2 POP PUSH1 0x1F NOT PUSH1 0x3F RETURNDATASIZE ADD AND DUP3 ADD PUSH1 0x40 MSTORE RETURNDATASIZE DUP3 MSTORE RETURNDATASIZE PUSH1 0x0 PUSH1 0x20 DUP5 ADD RETURNDATACOPY PUSH2 0x156D JUMP JUMPDEST PUSH1 0x60 SWAP2 POP JUMPDEST POP POP SWAP1 POP DUP1 PUSH2 0x15B5 JUMPI PUSH1 0x40 MLOAD PUSH3 0x461BCD PUSH1 0xE5 SHL DUP2 MSTORE PUSH1 0x20 PUSH1 0x4 DUP3 ADD MSTORE PUSH1 0x14 PUSH1 0x24 DUP3 ADD MSTORE PUSH20 0x151BDAD95B881C185E5B595B9D0819985A5B1959 PUSH1 0x62 SHL PUSH1 0x44 DUP3 ADD MSTORE PUSH1 0x64 ADD PUSH2 0x801 JUMP JUMPDEST PUSH1 0x40 DUP1 MLOAD DUP6 DUP2 MSTORE TIMESTAMP PUSH1 0x20 DUP3 ADD MSTORE PUSH1 0x1 PUSH1 0x1 PUSH1 0xA0 SHL SUB DUP6 AND SWAP2 DUP10 SWAP2 CALLER SWAP2 PUSH32 0x62E796E00A8E66154D78DA76DAAE129635B4795A6E1B889F2CAA6C5CEA22AC68 SWAP2 ADD PUSH1 0x40 MLOAD DUP1 SWAP2 SUB SWAP1 LOG4 POP POP POP POP POP POP POP JUMP JUMPDEST PUSH2 0x160D PUSH2 0x19C7 JUMP JUMPDEST PUSH1 0xC SLOAD DUP4 GT DUP1 ISZERO PUSH2 0x161D JUMPI POP TIMESTAMP DUP4 GT JUMPDEST PUSH2 0x1669 JUMPI PUSH1 0x40 MLOAD PUSH3 0x461BCD PUSH1 0xE5 SHL DUP2 MSTORE PUSH1 0x20 PUSH1 0x4 DUP3 ADD MSTORE PUSH1 0x18 PUSH1 0x24 DUP3 ADD MSTORE PUSH32 0x496E76616C696420636C61696D2073746172742074696D650000000000000000 PUSH1 0x44 DUP3 ADD MSTORE PUSH1 0x64 ADD PUSH2 0x801 JUMP JUMPDEST PUSH1 0x1 PUSH1 0x1 PUSH1 0xA0 SHL SUB DUP2 AND PUSH2 0x16B4 JUMPI PUSH1 0x40 MLOAD PUSH3 0x461BCD PUSH1 0xE5 SHL DUP2 MSTORE PUSH1 0x20 PUSH1 0x4 DUP3 ADD MSTORE PUSH1 0x12 PUSH1 0x24 DUP3 ADD MSTORE PUSH18 0x5A65726F20746F6B656E2061646472657373 PUSH1 0x70 SHL PUSH1 0x44 DUP3 ADD MSTORE PUSH1 0x64 ADD PUSH2 0x801 JUMP JUMPDEST PUSH1 0xD SLOAD ISZERO PUSH2 0x16F8 JUMPI PUSH1 0x40 MLOAD PUSH3 0x461BCD PUSH1 0xE5 SHL DUP2 MSTORE PUSH1 0x20 PUSH1 0x4 DUP3 ADD MSTORE PUSH1 0x11 PUSH1 0x24 DUP3 ADD MSTORE PUSH17 0x10DB185A5B48185B1C9958591E481CD95D PUSH1 0x7A SHL PUSH1 0x44 DUP3 ADD MSTORE PUSH1 0x64 ADD PUSH2 0x801 JUMP JUMPDEST PUSH1 0xD DUP4 SWAP1 SSTORE PUSH1 0x12 DUP1 SLOAD PUSH1 0x1 PUSH1 0x1 PUSH1 0xA0 SHL SUB NOT AND PUSH1 0x1 PUSH1 0x1 PUSH1 0xA0 SHL SUB DUP4 AND SWAP1 DUP2 OR SWAP1 SWAP2 SSTORE PUSH4 0x23B872DD CALLER PUSH1 0x40 MLOAD PUSH1 0x1 PUSH1 0x1 PUSH1 0xE0 SHL SUB NOT PUSH1 0xE0 DUP5 SWAP1 SHL AND DUP2 MSTORE PUSH1 0x1 PUSH1 0x1 PUSH1 0xA0 SHL SUB SWAP1 SWAP2 AND PUSH1 0x4 DUP3 ADD MSTORE ADDRESS PUSH1 0x24 DUP3 ADD MSTORE PUSH1 0x44 DUP2 ADD DUP6 SWAP1 MSTORE PUSH1 0x64 ADD PUSH1 0x20 PUSH1 0x40 MLOAD DUP1 DUP4 SUB DUP2 PUSH1 0x0 DUP8 GAS CALL ISZERO DUP1 ISZERO PUSH2 0x1774 JUMPI RETURNDATASIZE PUSH1 0x0 DUP1 RETURNDATACOPY RETURNDATASIZE PUSH1 0x0 REVERT JUMPDEST POP POP POP POP PUSH1 0x40 MLOAD RETURNDATASIZE PUSH1 0x1F NOT PUSH1 0x1F DUP3 ADD AND DUP3 ADD DUP1 PUSH1 0x40 MSTORE POP DUP2 ADD SWAP1 PUSH2 0x1798 SWAP2 SWAP1 PUSH2 0x205E JUMP JUMPDEST POP POP POP POP JUMP JUMPDEST PUSH2 0x17A6 PUSH2 0x19C7 JUMP JUMPDEST PUSH1 0x0 PUSH2 0x17BA PUSH1 0x1 SLOAD PUSH1 0x1 PUSH1 0x1 PUSH1 0xA0 SHL SUB AND SWAP1 JUMP JUMPDEST PUSH1 0x1 PUSH1 0x1 PUSH1 0xA0 SHL SUB AND SELFBALANCE PUSH1 0x40 MLOAD PUSH1 0x0 PUSH1 0x40 MLOAD DUP1 DUP4 SUB DUP2 DUP6 DUP8 GAS CALL SWAP3 POP POP POP RETURNDATASIZE DUP1 PUSH1 0x0 DUP2 EQ PUSH2 0x1804 JUMPI PUSH1 0x40 MLOAD SWAP2 POP PUSH1 0x1F NOT PUSH1 0x3F RETURNDATASIZE ADD AND DUP3 ADD PUSH1 0x40 MSTORE RETURNDATASIZE DUP3 MSTORE RETURNDATASIZE PUSH1 0x0 PUSH1 0x20 DUP5 ADD RETURNDATACOPY PUSH2 0x1809 JUMP JUMPDEST PUSH1 0x60 SWAP2 POP JUMPDEST POP POP SWAP1 POP DUP1 PUSH2 0x184F JUMPI PUSH1 0x40 MLOAD PUSH3 0x461BCD PUSH1 0xE5 SHL DUP2 MSTORE PUSH1 0x20 PUSH1 0x4 DUP3 ADD MSTORE PUSH1 0x12 PUSH1 0x24 DUP3 ADD MSTORE PUSH18 0x4661696C656420746F207769746864726177 PUSH1 0x70 SHL PUSH1 0x44 DUP3 ADD MSTORE PUSH1 0x64 ADD PUSH2 0x801 JUMP JUMPDEST POP JUMP JUMPDEST PUSH2 0x185A PUSH2 0x19C7 JUMP JUMPDEST PUSH1 0x16 DUP1 SLOAD PUSH1 0x1 PUSH1 0x1 PUSH1 0xA0 SHL SUB NOT AND PUSH1 0x1 PUSH1 0x1 PUSH1 0xA0 SHL SUB SWAP3 SWAP1 SWAP3 AND SWAP2 SWAP1 SWAP2 OR SWAP1 SSTORE JUMP JUMPDEST PUSH2 0x1884 PUSH2 0x19C7 JUMP JUMPDEST PUSH1 0x0 DUP2 GT DUP1 ISZERO PUSH2 0x1896 JUMPI POP PUSH1 0xA SLOAD DUP2 EQ ISZERO JUMPDEST PUSH2 0x18E2 JUMPI PUSH1 0x40 MLOAD PUSH3 0x461BCD PUSH1 0xE5 SHL DUP2 MSTORE PUSH1 0x20 PUSH1 0x4 DUP3 ADD MSTORE PUSH1 0x18 PUSH1 0x24 DUP3 ADD MSTORE PUSH32 0x496E76616C6964206861726463617053697A652073697A650000000000000000 PUSH1 0x44 DUP3 ADD MSTORE PUSH1 0x64 ADD PUSH2 0x801 JUMP JUMPDEST PUSH1 0xA SSTORE JUMP JUMPDEST PUSH2 0x18EF PUSH2 0x19C7 JUMP JUMPDEST PUSH1 0x5 SLOAD PUSH1 0x0 PUSH2 0x18FE DUP3 DUP1 PUSH2 0x20B8 JUMP JUMPDEST SWAP1 POP DUP1 PUSH1 0x8 SLOAD PUSH2 0x190E SWAP2 SWAP1 PUSH2 0x20E2 JUMP JUMPDEST PUSH1 0x8 SSTORE POP POP PUSH1 0x5 SSTORE JUMP JUMPDEST PUSH1 0x0 DUP1 PUSH2 0x1924 DUP4 PUSH2 0x1A21 JUMP JUMPDEST SWAP1 POP PUSH2 0x192E PUSH2 0x10A5 JUMP JUMPDEST PUSH2 0x1940 DUP3 PUSH8 0xDE0B6B3A7640000 PUSH2 0x20CB JUMP JUMPDEST PUSH2 0x194A SWAP2 SWAP1 PUSH2 0x2096 JUMP JUMPDEST SWAP4 SWAP3 POP POP POP JUMP JUMPDEST PUSH2 0x1959 PUSH2 0x19C7 JUMP JUMPDEST PUSH1 0x1 PUSH1 0x1 PUSH1 0xA0 SHL SUB DUP2 AND PUSH2 0x19BE JUMPI PUSH1 0x40 MLOAD PUSH3 0x461BCD PUSH1 0xE5 SHL DUP2 MSTORE PUSH1 0x20 PUSH1 0x4 DUP3 ADD MSTORE PUSH1 0x26 PUSH1 0x24 DUP3 ADD MSTORE PUSH32 0x4F776E61626C653A206E6577206F776E657220697320746865207A65726F2061 PUSH1 0x44 DUP3 ADD MSTORE PUSH6 0x646472657373 PUSH1 0xD0 SHL PUSH1 0x64 DUP3 ADD MSTORE PUSH1 0x84 ADD PUSH2 0x801 JUMP JUMPDEST PUSH2 0x184F DUP2 PUSH2 0x1CAD JUMP JUMPDEST PUSH1 0x1 SLOAD PUSH1 0x1 PUSH1 0x1 PUSH1 0xA0 SHL SUB AND CALLER EQ PUSH2 0xCCE JUMPI PUSH1 0x40 MLOAD PUSH3 0x461BCD PUSH1 0xE5 SHL DUP2 MSTORE PUSH1 0x20 PUSH1 0x4 DUP3 ADD DUP2 SWAP1 MSTORE PUSH1 0x24 DUP3 ADD MSTORE PUSH32 0x4F776E61626C653A2063616C6C6572206973206E6F7420746865206F776E6572 PUSH1 0x44 DUP3 ADD MSTORE PUSH1 0x64 ADD PUSH2 0x801 JUMP JUMPDEST PUSH1 0x0 DUP1 PUSH1 0x9 SLOAD PUSH1 0x6 SLOAD PUSH8 0xDE0B6B3A7640000 PUSH2 0x1A3D SWAP2 SWAP1 PUSH2 0x20CB JUMP JUMPDEST PUSH2 0x1A47 SWAP2 SWAP1 PUSH2 0x20B8 JUMP JUMPDEST PUSH1 0x16 SLOAD SWAP1 SWAP2 POP PUSH1 0x1 PUSH1 0x1 PUSH1 0xA0 SHL SUB AND CALLER EQ PUSH2 0x1BB6 JUMPI PUSH1 0x0 DUP1 PUSH1 0x3 SLOAD DUP6 PUSH2 0x1A6D SWAP2 SWAP1 PUSH2 0x20CB JUMP JUMPDEST PUSH2 0x1A77 SWAP1 DUP5 PUSH2 0x20E2 JUMP JUMPDEST PUSH1 0x10 SLOAD PUSH2 0x1A8C SWAP1 PUSH8 0xDE0B6B3A7640000 PUSH2 0x20CB JUMP JUMPDEST LT DUP1 ISZERO PUSH2 0x1A9B JUMPI POP PUSH1 0x3 PUSH1 0x11 SLOAD LT JUMPDEST ISZERO PUSH2 0x1B52 JUMPI PUSH1 0x3 SLOAD DUP4 PUSH1 0x10 SLOAD PUSH8 0xDE0B6B3A7640000 PUSH2 0x1ABA SWAP2 SWAP1 PUSH2 0x20CB JUMP JUMPDEST PUSH2 0x1AC4 SWAP2 SWAP1 PUSH2 0x20B8 JUMP JUMPDEST PUSH2 0x1ACE SWAP2 SWAP1 PUSH2 0x2096 JUMP JUMPDEST SWAP2 POP PUSH2 0x1ADA DUP3 DUP7 PUSH2 0x20B8 JUMP JUMPDEST PUSH1 0xF SLOAD SWAP1 SWAP2 POP PUSH1 0xFF AND ISZERO ISZERO PUSH1 0x1 SUB PUSH2 0x1B25 JUMPI PUSH1 0x40 MLOAD PUSH3 0x461BCD PUSH1 0xE5 SHL DUP2 MSTORE PUSH1 0x20 PUSH1 0x4 DUP3 ADD MSTORE PUSH1 0xE PUSH1 0x24 DUP3 ADD MSTORE PUSH14 0x1C1C995CD85B19481C185D5CD959 PUSH1 0x92 SHL PUSH1 0x44 DUP3 ADD MSTORE PUSH1 0x64 ADD PUSH2 0x801 JUMP JUMPDEST PUSH1 0x4 SLOAD PUSH2 0x1B32 SWAP1 DUP3 PUSH2 0x20CB JUMP JUMPDEST PUSH1 0x3 SLOAD PUSH2 0x1B3F SWAP1 DUP5 PUSH2 0x20CB JUMP JUMPDEST PUSH2 0x1B49 SWAP2 SWAP1 PUSH2 0x20E2 JUMP JUMPDEST SWAP6 SWAP5 POP POP POP POP POP JUMP JUMPDEST PUSH1 0x3 SLOAD PUSH2 0x1B5F SWAP1 DUP7 PUSH2 0x20CB JUMP JUMPDEST PUSH2 0x1B69 SWAP1 DUP5 PUSH2 0x20E2 JUMP JUMPDEST PUSH1 0x10 SLOAD PUSH2 0x1B7E SWAP1 PUSH8 0xDE0B6B3A7640000 PUSH2 0x20CB JUMP JUMPDEST LT DUP1 ISZERO PUSH2 0x1B8D JUMPI POP PUSH1 0x11 SLOAD PUSH1 0x3 EQ JUMPDEST ISZERO PUSH2 0x1BB3 JUMPI DUP3 PUSH1 0x10 SLOAD PUSH8 0xDE0B6B3A7640000 PUSH2 0x1BA9 SWAP2 SWAP1 PUSH2 0x20CB JUMP JUMPDEST PUSH2 0x1B49 SWAP2 SWAP1 PUSH2 0x20B8 JUMP JUMPDEST POP POP JUMPDEST PUSH1 0xF SLOAD PUSH1 0xFF AND ISZERO ISZERO PUSH1 0x1 SUB PUSH2 0x1BFE JUMPI PUSH1 0x40 MLOAD PUSH3 0x461BCD PUSH1 0xE5 SHL DUP2 MSTORE PUSH1 0x20 PUSH1 0x4 DUP3 ADD MSTORE PUSH1 0xE PUSH1 0x24 DUP3 ADD MSTORE PUSH14 0x1C1C995CD85B19481C185D5CD959 PUSH1 0x92 SHL PUSH1 0x44 DUP3 ADD MSTORE PUSH1 0x64 ADD PUSH2 0x801 JUMP JUMPDEST PUSH1 0x3 SLOAD PUSH2 0x194A SWAP1 DUP5 PUSH2 0x20CB JUMP JUMPDEST PUSH2 0x1C13 PUSH2 0x1F3D JUMP JUMPDEST PUSH1 0x1 DUP1 SLOAD PUSH1 0xFF PUSH1 0xA0 SHL NOT AND SWAP1 SSTORE PUSH32 0x5DB9EE0A495BF2E6FF9C91A7834C1BA4FDD244A5E8AA4E537BD38AEAE4B073AA CALLER JUMPDEST PUSH1 0x40 MLOAD PUSH1 0x1 PUSH1 0x1 PUSH1 0xA0 SHL SUB SWAP1 SWAP2 AND DUP2 MSTORE PUSH1 0x20 ADD PUSH1 0x40 MLOAD DUP1 SWAP2 SUB SWAP1 LOG1 JUMP JUMPDEST PUSH1 0x1 SLOAD PUSH1 0x1 PUSH1 0xA0 SHL SWAP1 DIV PUSH1 0xFF AND ISZERO PUSH2 0xCCE JUMPI PUSH1 0x40 MLOAD PUSH3 0x461BCD PUSH1 0xE5 SHL DUP2 MSTORE PUSH1 0x20 PUSH1 0x4 DUP3 ADD MSTORE PUSH1 0x10 PUSH1 0x24 DUP3 ADD MSTORE PUSH16 0x14185D5CD8589B194E881C185D5CD959 PUSH1 0x82 SHL PUSH1 0x44 DUP3 ADD MSTORE PUSH1 0x64 ADD PUSH2 0x801 JUMP JUMPDEST PUSH1 0x1 DUP1 SLOAD PUSH1 0x1 PUSH1 0x1 PUSH1 0xA0 SHL SUB DUP4 DUP2 AND PUSH1 0x1 PUSH1 0x1 PUSH1 0xA0 SHL SUB NOT DUP4 AND DUP2 OR SWAP1 SWAP4 SSTORE PUSH1 0x40 MLOAD SWAP2 AND SWAP2 SWAP1 DUP3 SWAP1 PUSH32 0x8BE0079C531659141344CD1FD0A4F28419497F9722A3DAAFE3B4186F6B6457E0 SWAP1 PUSH1 0x0 SWAP1 LOG3 POP POP JUMP JUMPDEST PUSH2 0x1D07 PUSH2 0x1C60 JUMP JUMPDEST PUSH1 0x1 DUP1 SLOAD PUSH1 0xFF PUSH1 0xA0 SHL NOT AND PUSH1 0x1 PUSH1 0xA0 SHL OR SWAP1 SSTORE PUSH32 0x62E78CEA01BEE320CD4E420270B5EA74000D11B0C9F74754EBDBFC544B05A258 PUSH2 0x1C43 CALLER SWAP1 JUMP JUMPDEST PUSH1 0x2 PUSH1 0x0 SLOAD SUB PUSH2 0x1D94 JUMPI PUSH1 0x40 MLOAD PUSH3 0x461BCD PUSH1 0xE5 SHL DUP2 MSTORE PUSH1 0x20 PUSH1 0x4 DUP3 ADD MSTORE PUSH1 0x1F PUSH1 0x24 DUP3 ADD MSTORE PUSH32 0x5265656E7472616E637947756172643A207265656E7472616E742063616C6C00 PUSH1 0x44 DUP3 ADD MSTORE PUSH1 0x64 ADD PUSH2 0x801 JUMP JUMPDEST PUSH1 0x2 PUSH1 0x0 SSTORE JUMP JUMPDEST PUSH1 0x11 DUP2 SWAP1 SSTORE PUSH1 0x1 DUP2 SWAP1 SUB PUSH2 0x1DDD JUMPI PUSH7 0x7C585087238000 PUSH1 0x3 SSTORE PUSH7 0x8E1BC9BF040000 PUSH1 0x4 SSTORE PUSH3 0x2DC6C0 PUSH1 0x10 DUP2 SWAP1 SSTORE PUSH1 0x6 SSTORE PUSH11 0x27B46536C66C8E3000000 PUSH1 0x9 SSTORE POP JUMP JUMPDEST DUP1 PUSH1 0x2 SUB PUSH2 0x1E19 JUMPI PUSH7 0x8E1BC9BF040000 PUSH1 0x3 SSTORE PUSH7 0x9FDF42F6E48000 PUSH1 0x4 SSTORE PUSH3 0x3D0900 PUSH1 0x10 DUP2 SWAP1 SSTORE PUSH1 0x6 SSTORE PUSH11 0x34F086F3B33B684000000 PUSH1 0x9 SSTORE POP JUMP JUMPDEST DUP1 PUSH1 0x3 SUB PUSH2 0x1E4F JUMPI PUSH7 0x9FDF42F6E48000 PUSH1 0x3 DUP2 SWAP1 SSTORE PUSH1 0x4 SSTORE PUSH3 0x4C4B40 PUSH1 0x10 DUP2 SWAP1 SSTORE PUSH1 0x6 SSTORE PUSH11 0x422CA8B0A00A425000000 PUSH1 0x9 SSTORE POP JUMP JUMPDEST PUSH1 0x40 MLOAD PUSH3 0x461BCD PUSH1 0xE5 SHL DUP2 MSTORE PUSH1 0x4 ADD PUSH2 0x801 SWAP1 PUSH2 0x20F5 JUMP JUMPDEST DUP1 SELFBALANCE LT ISZERO PUSH2 0x1EA5 JUMPI PUSH1 0x40 MLOAD PUSH3 0x461BCD PUSH1 0xE5 SHL DUP2 MSTORE PUSH1 0x20 PUSH1 0x4 DUP3 ADD MSTORE PUSH1 0xB PUSH1 0x24 DUP3 ADD MSTORE PUSH11 0x4C6F772062616C616E6365 PUSH1 0xA8 SHL PUSH1 0x44 DUP3 ADD MSTORE PUSH1 0x64 ADD PUSH2 0x801 JUMP JUMPDEST PUSH1 0x0 DUP3 PUSH1 0x1 PUSH1 0x1 PUSH1 0xA0 SHL SUB AND DUP3 PUSH1 0x40 MLOAD PUSH1 0x0 PUSH1 0x40 MLOAD DUP1 DUP4 SUB DUP2 DUP6 DUP8 GAS CALL SWAP3 POP POP POP RETURNDATASIZE DUP1 PUSH1 0x0 DUP2 EQ PUSH2 0x1EF2 JUMPI PUSH1 0x40 MLOAD SWAP2 POP PUSH1 0x1F NOT PUSH1 0x3F RETURNDATASIZE ADD AND DUP3 ADD PUSH1 0x40 MSTORE RETURNDATASIZE DUP3 MSTORE RETURNDATASIZE PUSH1 0x0 PUSH1 0x20 DUP5 ADD RETURNDATACOPY PUSH2 0x1EF7 JUMP JUMPDEST PUSH1 0x60 SWAP2 POP JUMPDEST POP POP SWAP1 POP DUP1 PUSH2 0x7A6 JUMPI PUSH1 0x40 MLOAD PUSH3 0x461BCD PUSH1 0xE5 SHL DUP2 MSTORE PUSH1 0x20 PUSH1 0x4 DUP3 ADD MSTORE PUSH1 0x12 PUSH1 0x24 DUP3 ADD MSTORE PUSH18 0x1155120814185E5B595B9D0819985A5B1959 PUSH1 0x72 SHL PUSH1 0x44 DUP3 ADD MSTORE PUSH1 0x64 ADD PUSH2 0x801 JUMP JUMPDEST PUSH1 0x1 SLOAD PUSH1 0x1 PUSH1 0xA0 SHL SWAP1 DIV PUSH1 0xFF AND PUSH2 0xCCE JUMPI PUSH1 0x40 MLOAD PUSH3 0x461BCD PUSH1 0xE5 SHL DUP2 MSTORE PUSH1 0x20 PUSH1 0x4 DUP3 ADD MSTORE PUSH1 0x14 PUSH1 0x24 DUP3 ADD MSTORE PUSH20 0x14185D5CD8589B194E881B9BDD081C185D5CD959 PUSH1 0x62 SHL PUSH1 0x44 DUP3 ADD MSTORE PUSH1 0x64 ADD PUSH2 0x801 JUMP JUMPDEST DUP1 CALLDATALOAD PUSH1 0x1 PUSH1 0x1 PUSH1 0xA0 SHL SUB DUP2 AND DUP2 EQ PUSH2 0x1FA4 JUMPI PUSH1 0x0 DUP1 REVERT JUMPDEST SWAP2 SWAP1 POP JUMP JUMPDEST PUSH1 0x0 DUP1 PUSH1 0x40 DUP4 DUP6 SUB SLT ISZERO PUSH2 0x1FBC JUMPI PUSH1 0x0 DUP1 REVERT JUMPDEST PUSH2 0x1FC5 DUP4 PUSH2 0x1F8D JUMP JUMPDEST SWAP5 PUSH1 0x20 SWAP4 SWAP1 SWAP4 ADD CALLDATALOAD SWAP4 POP POP POP JUMP JUMPDEST PUSH1 0x0 PUSH1 0x20 DUP3 DUP5 SUB SLT ISZERO PUSH2 0x1FE5 JUMPI PUSH1 0x0 DUP1 REVERT JUMPDEST POP CALLDATALOAD SWAP2 SWAP1 POP JUMP JUMPDEST PUSH1 0x0 PUSH1 0x20 DUP3 DUP5 SUB SLT ISZERO PUSH2 0x1FFE JUMPI PUSH1 0x0 DUP1 REVERT JUMPDEST PUSH2 0x922 DUP3 PUSH2 0x1F8D JUMP JUMPDEST PUSH1 0x0 DUP1 PUSH1 0x40 DUP4 DUP6 SUB SLT ISZERO PUSH2 0x201A JUMPI PUSH1 0x0 DUP1 REVERT JUMPDEST POP POP DUP1 CALLDATALOAD SWAP3 PUSH1 0x20 SWAP1 SWAP2 ADD CALLDATALOAD SWAP2 POP JUMP JUMPDEST PUSH1 0x0 DUP1 PUSH1 0x0 PUSH1 0x60 DUP5 DUP7 SUB SLT ISZERO PUSH2 0x203E JUMPI PUSH1 0x0 DUP1 REVERT JUMPDEST DUP4 CALLDATALOAD SWAP3 POP PUSH1 0x20 DUP5 ADD CALLDATALOAD SWAP2 POP PUSH2 0x2055 PUSH1 0x40 DUP6 ADD PUSH2 0x1F8D JUMP JUMPDEST SWAP1 POP SWAP3 POP SWAP3 POP SWAP3 JUMP JUMPDEST PUSH1 0x0 PUSH1 0x20 DUP3 DUP5 SUB SLT ISZERO PUSH2 0x2070 JUMPI PUSH1 0x0 DUP1 REVERT JUMPDEST DUP2 MLOAD DUP1 ISZERO ISZERO DUP2 EQ PUSH2 0x194A JUMPI PUSH1 0x0 DUP1 REVERT JUMPDEST PUSH4 0x4E487B71 PUSH1 0xE0 SHL PUSH1 0x0 MSTORE PUSH1 0x11 PUSH1 0x4 MSTORE PUSH1 0x24 PUSH1 0x0 REVERT JUMPDEST PUSH1 0x0 DUP3 PUSH2 0x20B3 JUMPI PUSH4 0x4E487B71 PUSH1 0xE0 SHL PUSH1 0x0 MSTORE PUSH1 0x12 PUSH1 0x4 MSTORE PUSH1 0x24 PUSH1 0x0 REVERT JUMPDEST POP DIV SWAP1 JUMP JUMPDEST DUP2 DUP2 SUB DUP2 DUP2 GT ISZERO PUSH2 0x925 JUMPI PUSH2 0x925 PUSH2 0x2080 JUMP JUMPDEST DUP1 DUP3 MUL DUP2 ISZERO DUP3 DUP3 DIV DUP5 EQ OR PUSH2 0x925 JUMPI PUSH2 0x925 PUSH2 0x2080 JUMP JUMPDEST DUP1 DUP3 ADD DUP1 DUP3 GT ISZERO PUSH2 0x925 JUMPI PUSH2 0x925 PUSH2 0x2080 JUMP JUMPDEST PUSH1 0x20 DUP1 DUP3 MSTORE PUSH1 0x19 SWAP1 DUP3 ADD MSTORE PUSH32 0x50726573616C652069742773206F7665722C20736F7272792100000000000000 PUSH1 0x40 DUP3 ADD MSTORE PUSH1 0x60 ADD SWAP1 JUMP JUMPDEST DUP1 MLOAD PUSH10 0xFFFFFFFFFFFFFFFFFFFF DUP2 AND DUP2 EQ PUSH2 0x1FA4 JUMPI PUSH1 0x0 DUP1 REVERT JUMPDEST PUSH1 0x0 DUP1 PUSH1 0x0 DUP1 PUSH1 0x0 PUSH1 0xA0 DUP7 DUP9 SUB SLT ISZERO PUSH2 0x215E JUMPI PUSH1 0x0 DUP1 REVERT JUMPDEST PUSH2 0x2167 DUP7 PUSH2 0x212C JUMP JUMPDEST SWAP5 POP PUSH1 0x20 DUP7 ADD MLOAD SWAP4 POP PUSH1 0x40 DUP7 ADD MLOAD SWAP3 POP PUSH1 0x60 DUP7 ADD MLOAD SWAP2 POP PUSH2 0x218A PUSH1 0x80 DUP8 ADD PUSH2 0x212C JUMP JUMPDEST SWAP1 POP SWAP3 SWAP6 POP SWAP3 SWAP6 SWAP1 SWAP4 POP JUMP JUMPDEST DUP1 DUP3 MUL PUSH1 0x0 DUP3 SLT PUSH1 0x1 PUSH1 0xFF SHL DUP5 EQ AND ISZERO PUSH2 0x21B2 JUMPI PUSH2 0x21B2 PUSH2 0x2080 JUMP JUMPDEST DUP2 DUP2 SDIV DUP4 EQ DUP3 ISZERO OR PUSH2 0x925 JUMPI PUSH2 0x925 PUSH2 0x2080 JUMP JUMPDEST PUSH1 0x0 PUSH1 0x20 DUP3 DUP5 SUB SLT ISZERO PUSH2 0x21D8 JUMPI PUSH1 0x0 DUP1 REVERT JUMPDEST POP MLOAD SWAP2 SWAP1 POP JUMP JUMPDEST PUSH1 0x0 DUP3 MLOAD PUSH1 0x0 JUMPDEST DUP2 DUP2 LT ISZERO PUSH2 0x2200 JUMPI PUSH1 0x20 DUP2 DUP7 ADD DUP2 ADD MLOAD DUP6 DUP4 ADD MSTORE ADD PUSH2 0x21E6 JUMP JUMPDEST POP PUSH1 0x0 SWAP3 ADD SWAP2 DUP3 MSTORE POP SWAP2 SWAP1 POP JUMP INVALID LOG2 PUSH5 0x6970667358 0x22 SLT KECCAK256 OR DUP14 PUSH15 0x6CFDB366CCDF05E6C15A8A1ECA740F PUSH20 0x9D61F2AFDC48481FFF2F6F8FFC64736F6C634300 ADDMOD GT STOP CALLER "
        },
        "gasEstimates": {
          "creation": {
            "codeDepositCost": "1754400",
            "executionCost": "487704",
            "totalCost": "2242104"
          },
          "external": {
            "baseDecimals()": "2396",
            "buyWithETH(uint256)": "infinite",
            "buyWithUSD(uint256,uint256)": "infinite",
            "changeClaimStart(uint256)": "28847",
            "changeMinimumBuyAmount(uint256)": "26758",
            "changeSaleTimes(uint256,uint256)": "48934",
            "changehardcapSize(uint256)": "26756",
            "claim()": "infinite",
            "claimStart()": "2394",
            "currentStep()": "2373",
            "endTime()": "2374",
            "getETHAmount(uint256)": "infinite",
            "getETHLatestPrice()": "infinite",
            "getTokenAmount(uint256,uint256)": "infinite",
            "hardcapSize()": "2395",
            "hardcapsizeUSD()": "2352",
            "hasClaimed(address)": "2690",
            "inSale()": "2352",
            "inSaleUSDvalue()": "2331",
            "isPresalePaused()": "2356",
            "minimumBuyAmount()": "2396",
            "nextPrice()": "2372",
            "owner()": "2465",
            "pause()": "infinite",
            "paused()": "2432",
            "renounceOwnership()": "infinite",
            "salePrice()": "2438",
            "saleToken()": "2470",
            "setDaddress(address)": "26806",
            "setSalePrice(uint256)": "24622",
            "settotalTokensForPresale(uint256)": "infinite",
            "settotalUsdValueForPresale(uint256)": "infinite",
            "startClaim(uint256,uint256,address)": "infinite",
            "startTime()": "2330",
            "totalTokensForPresale()": "2374",
            "totalUsdValueForPresale()": "2373",
            "transferOwnership(address)": "28472",
            "uniswapV2Router()": "2449",
            "unpause()": "infinite",
            "userDeposits(address)": "2647",
            "withdrawETHs()": "infinite",
            "withdrawTokens(address,uint256)": "infinite"
          },
          "internal": {
            "calculatePrice(uint256)": "infinite",
            "checkSoldUSDvalue()": "infinite",
            "sendValue(address payable,uint256)": "infinite",
            "startStep(uint256)": "infinite"
          }
        },
        "methodIdentifiers": {
          "baseDecimals()": "33f76178",
          "buyWithETH(uint256)": "94dc9cf3",
          "buyWithUSD(uint256,uint256)": "99f02935",
          "changeClaimStart(uint256)": "07f18082",
          "changeMinimumBuyAmount(uint256)": "08677efa",
          "changeSaleTimes(uint256,uint256)": "0dc9c838",
          "changehardcapSize(uint256)": "e3c3bb66",
          "claim()": "4e71d92d",
          "claimStart()": "f04d688f",
          "currentStep()": "5bc34f71",
          "endTime()": "3197cbb6",
          "getETHAmount(uint256)": "ef46b2ab",
          "getETHLatestPrice()": "94e99256",
          "getTokenAmount(uint256,uint256)": "0bc1236e",
          "hardcapSize()": "a1bbc6a7",
          "hardcapsizeUSD()": "2e5afcef",
          "hasClaimed(address)": "73b2e80e",
          "inSale()": "8008d5bc",
          "inSaleUSDvalue()": "05f7de4b",
          "isPresalePaused()": "1e8f0d39",
          "minimumBuyAmount()": "8d6a2ed5",
          "nextPrice()": "ef9089d6",
          "owner()": "8da5cb5b",
          "pause()": "8456cb59",
          "paused()": "5c975abb",
          "renounceOwnership()": "715018a6",
          "salePrice()": "f51f96dd",
          "saleToken()": "e985e367",
          "setDaddress(address)": "bc755ec0",
          "setSalePrice(uint256)": "1919fed7",
          "settotalTokensForPresale(uint256)": "e9b8c896",
          "settotalUsdValueForPresale(uint256)": "43a649e3",
          "startClaim(uint256,uint256,address)": "b2caaebd",
          "startTime()": "78e97925",
          "totalTokensForPresale()": "11b3840e",
          "totalUsdValueForPresale()": "dfc7bf6d",
          "transferOwnership(address)": "f2fde38b",
          "uniswapV2Router()": "1694505e",
          "unpause()": "3f4ba83a",
          "userDeposits(address)": "0ba36dcd",
          "withdrawETHs()": "b32c7dc1",
          "withdrawTokens(address,uint256)": "06b091f9"
        }
      },
      "storageLayout": {
        "storage": [
          {
            "astId": 10,
            "contract": "contracts/presale.sol:Deelance_PreSale",
            "label": "_status",
            "offset": 0,
            "slot": "0",
            "type": "t_uint256"
          },
          {
            "astId": 91,
            "contract": "contracts/presale.sol:Deelance_PreSale",
            "label": "_owner",
            "offset": 0,
            "slot": "1",
            "type": "t_address"
          },
          {
            "astId": 212,
            "contract": "contracts/presale.sol:Deelance_PreSale",
            "label": "_paused",
            "offset": 20,
            "slot": "1",
            "type": "t_bool"
          },
          {
            "astId": 1389,
            "contract": "contracts/presale.sol:Deelance_PreSale",
            "label": "uniswapV2Router",
            "offset": 0,
            "slot": "2",
            "type": "t_contract(IUniswapV2Router02)1366"
          },
          {
            "astId": 1391,
            "contract": "contracts/presale.sol:Deelance_PreSale",
            "label": "salePrice",
            "offset": 0,
            "slot": "3",
            "type": "t_uint256"
          },
          {
            "astId": 1393,
            "contract": "contracts/presale.sol:Deelance_PreSale",
            "label": "nextPrice",
            "offset": 0,
            "slot": "4",
            "type": "t_uint256"
          },
          {
            "astId": 1395,
            "contract": "contracts/presale.sol:Deelance_PreSale",
            "label": "totalTokensForPresale",
            "offset": 0,
            "slot": "5",
            "type": "t_uint256"
          },
          {
            "astId": 1397,
            "contract": "contracts/presale.sol:Deelance_PreSale",
            "label": "totalUsdValueForPresale",
            "offset": 0,
            "slot": "6",
            "type": "t_uint256"
          },
          {
            "astId": 1399,
            "contract": "contracts/presale.sol:Deelance_PreSale",
            "label": "minimumBuyAmount",
            "offset": 0,
            "slot": "7",
            "type": "t_uint256"
          },
          {
            "astId": 1401,
            "contract": "contracts/presale.sol:Deelance_PreSale",
            "label": "inSale",
            "offset": 0,
            "slot": "8",
            "type": "t_uint256"
          },
          {
            "astId": 1403,
            "contract": "contracts/presale.sol:Deelance_PreSale",
            "label": "inSaleUSDvalue",
            "offset": 0,
            "slot": "9",
            "type": "t_uint256"
          },
          {
            "astId": 1405,
            "contract": "contracts/presale.sol:Deelance_PreSale",
            "label": "hardcapSize",
            "offset": 0,
            "slot": "10",
            "type": "t_uint256"
          },
          {
            "astId": 1407,
            "contract": "contracts/presale.sol:Deelance_PreSale",
            "label": "startTime",
            "offset": 0,
            "slot": "11",
            "type": "t_uint256"
          },
          {
            "astId": 1409,
            "contract": "contracts/presale.sol:Deelance_PreSale",
            "label": "endTime",
            "offset": 0,
            "slot": "12",
            "type": "t_uint256"
          },
          {
            "astId": 1411,
            "contract": "contracts/presale.sol:Deelance_PreSale",
            "label": "claimStart",
            "offset": 0,
            "slot": "13",
            "type": "t_uint256"
          },
          {
            "astId": 1413,
            "contract": "contracts/presale.sol:Deelance_PreSale",
            "label": "baseDecimals",
            "offset": 0,
            "slot": "14",
            "type": "t_uint256"
          },
          {
            "astId": 1415,
            "contract": "contracts/presale.sol:Deelance_PreSale",
            "label": "isPresalePaused",
            "offset": 0,
            "slot": "15",
            "type": "t_bool"
          },
          {
            "astId": 1417,
            "contract": "contracts/presale.sol:Deelance_PreSale",
            "label": "hardcapsizeUSD",
            "offset": 0,
            "slot": "16",
            "type": "t_uint256"
          },
          {
            "astId": 1419,
            "contract": "contracts/presale.sol:Deelance_PreSale",
            "label": "currentStep",
            "offset": 0,
            "slot": "17",
            "type": "t_uint256"
          },
          {
            "astId": 1421,
            "contract": "contracts/presale.sol:Deelance_PreSale",
            "label": "saleToken",
            "offset": 0,
            "slot": "18",
            "type": "t_address"
          },
          {
            "astId": 1423,
            "contract": "contracts/presale.sol:Deelance_PreSale",
            "label": "dataOracle",
            "offset": 0,
            "slot": "19",
            "type": "t_address"
          },
          {
            "astId": 1425,
            "contract": "contracts/presale.sol:Deelance_PreSale",
            "label": "routerAddress",
            "offset": 0,
            "slot": "20",
            "type": "t_address"
          },
          {
            "astId": 1427,
            "contract": "contracts/presale.sol:Deelance_PreSale",
            "label": "USDTtoken",
            "offset": 0,
            "slot": "21",
            "type": "t_address"
          },
          {
            "astId": 1429,
            "contract": "contracts/presale.sol:Deelance_PreSale",
            "label": "dAddress",
            "offset": 0,
            "slot": "22",
            "type": "t_address"
          },
          {
            "astId": 1433,
            "contract": "contracts/presale.sol:Deelance_PreSale",
            "label": "userDeposits",
            "offset": 0,
            "slot": "23",
            "type": "t_mapping(t_address,t_uint256)"
          },
          {
            "astId": 1437,
            "contract": "contracts/presale.sol:Deelance_PreSale",
            "label": "hasClaimed",
            "offset": 0,
            "slot": "24",
            "type": "t_mapping(t_address,t_bool)"
          }
        ],
        "types": {
          "t_address": {
            "encoding": "inplace",
            "label": "address",
            "numberOfBytes": "20"
          },
          "t_bool": {
            "encoding": "inplace",
            "label": "bool",
            "numberOfBytes": "1"
          },
          "t_contract(IUniswapV2Router02)1366": {
            "encoding": "inplace",
            "label": "contract IUniswapV2Router02",
            "numberOfBytes": "20"
          },
          "t_mapping(t_address,t_bool)": {
            "encoding": "mapping",
            "key": "t_address",
            "label": "mapping(address => bool)",
            "numberOfBytes": "32",
            "value": "t_bool"
          },
          "t_mapping(t_address,t_uint256)": {
            "encoding": "mapping",
            "key": "t_address",
            "label": "mapping(address => uint256)",
            "numberOfBytes": "32",
            "value": "t_uint256"
          },
          "t_uint256": {
            "encoding": "inplace",
            "label": "uint256",
            "numberOfBytes": "32"
          }
        }
      },
      "userdoc": {
        "kind": "user",
        "methods": {},
        "version": 1
      }
    }
  }
}