{
  "_format": "hh-sol-artifact-1",
  "contractName": "BNBStaker",
  "sourceName": "contracts/bnbStaker.sol",
  "abi": [
    {
      "inputs": [],
      "stateMutability": "nonpayable",
      "type": "constructor"
    },
    {
      "anonymous": false,
      "inputs": [
        {
          "indexed": true,
          "internalType": "address",
          "name": "user",
          "type": "address"
        },
        {
          "indexed": false,
          "internalType": "uint256",
          "name": "totalAmount",
          "type": "uint256"
        }
      ],
      "name": "FeePayed",
      "type": "event"
    },
    {
      "anonymous": false,
      "inputs": [
        {
          "indexed": true,
          "internalType": "address",
          "name": "user",
          "type": "address"
        },
        {
          "indexed": false,
          "internalType": "uint8",
          "name": "plan",
          "type": "uint8"
        },
        {
          "indexed": false,
          "internalType": "uint256",
          "name": "percent",
          "type": "uint256"
        },
        {
          "indexed": false,
          "internalType": "uint256",
          "name": "amount",
          "type": "uint256"
        },
        {
          "indexed": false,
          "internalType": "uint256",
          "name": "profit",
          "type": "uint256"
        },
        {
          "indexed": false,
          "internalType": "uint256",
          "name": "start",
          "type": "uint256"
        },
        {
          "indexed": false,
          "internalType": "uint256",
          "name": "finish",
          "type": "uint256"
        }
      ],
      "name": "NewDeposit",
      "type": "event"
    },
    {
      "anonymous": false,
      "inputs": [
        {
          "indexed": false,
          "internalType": "address",
          "name": "user",
          "type": "address"
        }
      ],
      "name": "Newbie",
      "type": "event"
    },
    {
      "anonymous": false,
      "inputs": [
        {
          "indexed": true,
          "internalType": "address",
          "name": "previousOwner",
          "type": "address"
        },
        {
          "indexed": true,
          "internalType": "address",
          "name": "newOwner",
          "type": "address"
        }
      ],
      "name": "OwnershipTransferred",
      "type": "event"
    },
    {
      "anonymous": false,
      "inputs": [
        {
          "indexed": true,
          "internalType": "address",
          "name": "referrer",
          "type": "address"
        },
        {
          "indexed": true,
          "internalType": "address",
          "name": "referral",
          "type": "address"
        },
        {
          "indexed": true,
          "internalType": "uint256",
          "name": "level",
          "type": "uint256"
        },
        {
          "indexed": false,
          "internalType": "uint256",
          "name": "amount",
          "type": "uint256"
        }
      ],
      "name": "RefBonus",
      "type": "event"
    },
    {
      "anonymous": false,
      "inputs": [
        {
          "indexed": true,
          "internalType": "address",
          "name": "user",
          "type": "address"
        },
        {
          "indexed": false,
          "internalType": "uint256",
          "name": "amount",
          "type": "uint256"
        }
      ],
      "name": "Withdrawn",
      "type": "event"
    },
    {
      "inputs": [],
      "name": "INVEST_MIN_AMOUNT",
      "outputs": [
        {
          "internalType": "uint256",
          "name": "",
          "type": "uint256"
        }
      ],
      "stateMutability": "view",
      "type": "function"
    },
    {
      "inputs": [],
      "name": "PERCENTS_DIVIDER",
      "outputs": [
        {
          "internalType": "uint256",
          "name": "",
          "type": "uint256"
        }
      ],
      "stateMutability": "view",
      "type": "function"
    },
    {
      "inputs": [],
      "name": "PERCENT_STEP",
      "outputs": [
        {
          "internalType": "uint256",
          "name": "",
          "type": "uint256"
        }
      ],
      "stateMutability": "view",
      "type": "function"
    },
    {
      "inputs": [],
      "name": "PROJECT_FEE",
      "outputs": [
        {
          "internalType": "uint256",
          "name": "",
          "type": "uint256"
        }
      ],
      "stateMutability": "view",
      "type": "function"
    },
    {
      "inputs": [
        {
          "internalType": "uint256",
          "name": "",
          "type": "uint256"
        }
      ],
      "name": "REFERRAL_PERCENTS",
      "outputs": [
        {
          "internalType": "uint256",
          "name": "",
          "type": "uint256"
        }
      ],
      "stateMutability": "view",
      "type": "function"
    },
    {
      "inputs": [],
      "name": "TIME_STEP",
      "outputs": [
        {
          "internalType": "uint256",
          "name": "",
          "type": "uint256"
        }
      ],
      "stateMutability": "view",
      "type": "function"
    },
    {
      "inputs": [],
      "name": "WITHDRAW_FEE",
      "outputs": [
        {
          "internalType": "uint256",
          "name": "",
          "type": "uint256"
        }
      ],
      "stateMutability": "view",
      "type": "function"
    },
    {
      "inputs": [
        {
          "internalType": "uint256",
          "name": "amount",
          "type": "uint256"
        }
      ],
      "name": "claimETH",
      "outputs": [],
      "stateMutability": "nonpayable",
      "type": "function"
    },
    {
      "inputs": [],
      "name": "commissionWallet",
      "outputs": [
        {
          "internalType": "address payable",
          "name": "",
          "type": "address"
        }
      ],
      "stateMutability": "view",
      "type": "function"
    },
    {
      "inputs": [],
      "name": "getContractBalance",
      "outputs": [
        {
          "internalType": "uint256",
          "name": "",
          "type": "uint256"
        }
      ],
      "stateMutability": "view",
      "type": "function"
    },
    {
      "inputs": [
        {
          "internalType": "uint8",
          "name": "plan",
          "type": "uint8"
        }
      ],
      "name": "getPercent",
      "outputs": [
        {
          "internalType": "uint256",
          "name": "",
          "type": "uint256"
        }
      ],
      "stateMutability": "view",
      "type": "function"
    },
    {
      "inputs": [
        {
          "internalType": "uint8",
          "name": "plan",
          "type": "uint8"
        }
      ],
      "name": "getPlanInfo",
      "outputs": [
        {
          "internalType": "uint256",
          "name": "time",
          "type": "uint256"
        },
        {
          "internalType": "uint256",
          "name": "percent",
          "type": "uint256"
        }
      ],
      "stateMutability": "view",
      "type": "function"
    },
    {
      "inputs": [
        {
          "internalType": "uint8",
          "name": "plan",
          "type": "uint8"
        },
        {
          "internalType": "uint256",
          "name": "deposit",
          "type": "uint256"
        }
      ],
      "name": "getResult",
      "outputs": [
        {
          "internalType": "uint256",
          "name": "percent",
          "type": "uint256"
        },
        {
          "internalType": "uint256",
          "name": "profit",
          "type": "uint256"
        },
        {
          "internalType": "uint256",
          "name": "finish",
          "type": "uint256"
        }
      ],
      "stateMutability": "view",
      "type": "function"
    },
    {
      "inputs": [
        {
          "internalType": "address",
          "name": "userAddress",
          "type": "address"
        }
      ],
      "name": "getUserAmountOfDeposits",
      "outputs": [
        {
          "internalType": "uint256",
          "name": "",
          "type": "uint256"
        }
      ],
      "stateMutability": "view",
      "type": "function"
    },
    {
      "inputs": [
        {
          "internalType": "address",
          "name": "userAddress",
          "type": "address"
        }
      ],
      "name": "getUserAvailable",
      "outputs": [
        {
          "internalType": "uint256",
          "name": "",
          "type": "uint256"
        }
      ],
      "stateMutability": "view",
      "type": "function"
    },
    {
      "inputs": [
        {
          "internalType": "address",
          "name": "userAddress",
          "type": "address"
        }
      ],
      "name": "getUserCheckpoint",
      "outputs": [
        {
          "internalType": "uint256",
          "name": "",
          "type": "uint256"
        }
      ],
      "stateMutability": "view",
      "type": "function"
    },
    {
      "inputs": [
        {
          "internalType": "address",
          "name": "userAddress",
          "type": "address"
        },
        {
          "internalType": "uint256",
          "name": "index",
          "type": "uint256"
        }
      ],
      "name": "getUserDepositInfo",
      "outputs": [
        {
          "internalType": "uint8",
          "name": "plan",
          "type": "uint8"
        },
        {
          "internalType": "uint256",
          "name": "percent",
          "type": "uint256"
        },
        {
          "internalType": "uint256",
          "name": "amount",
          "type": "uint256"
        },
        {
          "internalType": "uint256",
          "name": "profit",
          "type": "uint256"
        },
        {
          "internalType": "uint256",
          "name": "start",
          "type": "uint256"
        },
        {
          "internalType": "uint256",
          "name": "finish",
          "type": "uint256"
        }
      ],
      "stateMutability": "view",
      "type": "function"
    },
    {
      "inputs": [
        {
          "internalType": "address",
          "name": "userAddress",
          "type": "address"
        }
      ],
      "name": "getUserDividends",
      "outputs": [
        {
          "internalType": "uint256",
          "name": "",
          "type": "uint256"
        }
      ],
      "stateMutability": "view",
      "type": "function"
    },
    {
      "inputs": [
        {
          "internalType": "address",
          "name": "userAddress",
          "type": "address"
        }
      ],
      "name": "getUserDownlineCount",
      "outputs": [
        {
          "internalType": "uint256",
          "name": "",
          "type": "uint256"
        },
        {
          "internalType": "uint256",
          "name": "",
          "type": "uint256"
        },
        {
          "internalType": "uint256",
          "name": "",
          "type": "uint256"
        }
      ],
      "stateMutability": "view",
      "type": "function"
    },
    {
      "inputs": [
        {
          "internalType": "address",
          "name": "userAddress",
          "type": "address"
        }
      ],
      "name": "getUserReferralBonus",
      "outputs": [
        {
          "internalType": "uint256",
          "name": "",
          "type": "uint256"
        }
      ],
      "stateMutability": "view",
      "type": "function"
    },
    {
      "inputs": [
        {
          "internalType": "address",
          "name": "userAddress",
          "type": "address"
        }
      ],
      "name": "getUserReferralTotalBonus",
      "outputs": [
        {
          "internalType": "uint256",
          "name": "",
          "type": "uint256"
        }
      ],
      "stateMutability": "view",
      "type": "function"
    },
    {
      "inputs": [
        {
          "internalType": "address",
          "name": "userAddress",
          "type": "address"
        }
      ],
      "name": "getUserReferralWithdrawn",
      "outputs": [
        {
          "internalType": "uint256",
          "name": "",
          "type": "uint256"
        }
      ],
      "stateMutability": "view",
      "type": "function"
    },
    {
      "inputs": [
        {
          "internalType": "address",
          "name": "userAddress",
          "type": "address"
        }
      ],
      "name": "getUserReferrer",
      "outputs": [
        {
          "internalType": "address",
          "name": "",
          "type": "address"
        }
      ],
      "stateMutability": "view",
      "type": "function"
    },
    {
      "inputs": [
        {
          "internalType": "address",
          "name": "userAddress",
          "type": "address"
        }
      ],
      "name": "getUserTotalDeposits",
      "outputs": [
        {
          "internalType": "uint256",
          "name": "amount",
          "type": "uint256"
        }
      ],
      "stateMutability": "view",
      "type": "function"
    },
    {
      "inputs": [
        {
          "internalType": "address",
          "name": "referrer",
          "type": "address"
        },
        {
          "internalType": "uint8",
          "name": "plan",
          "type": "uint8"
        }
      ],
      "name": "invest",
      "outputs": [],
      "stateMutability": "payable",
      "type": "function"
    },
    {
      "inputs": [],
      "name": "launch",
      "outputs": [],
      "stateMutability": "nonpayable",
      "type": "function"
    },
    {
      "inputs": [],
      "name": "owner",
      "outputs": [
        {
          "internalType": "address",
          "name": "",
          "type": "address"
        }
      ],
      "stateMutability": "view",
      "type": "function"
    },
    {
      "inputs": [],
      "name": "renounceOwnership",
      "outputs": [],
      "stateMutability": "nonpayable",
      "type": "function"
    },
    {
      "inputs": [],
      "name": "startUNIX",
      "outputs": [
        {
          "internalType": "uint256",
          "name": "",
          "type": "uint256"
        }
      ],
      "stateMutability": "view",
      "type": "function"
    },
    {
      "inputs": [],
      "name": "totalRefBonus",
      "outputs": [
        {
          "internalType": "uint256",
          "name": "",
          "type": "uint256"
        }
      ],
      "stateMutability": "view",
      "type": "function"
    },
    {
      "inputs": [],
      "name": "totalStaked",
      "outputs": [
        {
          "internalType": "uint256",
          "name": "",
          "type": "uint256"
        }
      ],
      "stateMutability": "view",
      "type": "function"
    },
    {
      "inputs": [
        {
          "internalType": "address",
          "name": "newOwner",
          "type": "address"
        }
      ],
      "name": "transferOwnership",
      "outputs": [],
      "stateMutability": "nonpayable",
      "type": "function"
    },
    {
      "inputs": [],
      "name": "withdraw",
      "outputs": [],
      "stateMutability": "nonpayable",
      "type": "function"
    }
  ],
  "bytecode": "0x60e0604052603c6080908152601e60a052600a60c05262000025906001906003620002c5565b503480156200003357600080fd5b50600080546001600160a01b031916339081178255604051909182917f8be0079c531659141344cd1fd0a4f28419497f9722a3daafe3b4186f6b6457e0908290a3506000546001600160a01b0316600760006101000a8154816001600160a01b0302191690836001600160a01b03160217905550600060068190555060046040518060400160405280600e815260200160508152509080600181540180825580915050600190039060005260206000209060020201600090919091909150600082015181600001556020820151816001015550506004604051806040016040528060158152602001604b81525090806001815401808255809150506001900390600052602060002090600202016000909190919091506000820151816000015560208201518160010155505060046040518060400160405280601c8152602001604681525090806001815401808255809150506001900390600052602060002090600202016000909190919091506000820151816000015560208201518160010155505060046040518060400160405280600e815260200160508152509080600181540180825580915050600190039060005260206000209060020201600090919091909150600082015181600001556020820151816001015550506004604051806040016040528060158152602001604b81525090806001815401808255809150506001900390600052602060002090600202016000909190919091506000820151816000015560208201518160010155505060046040518060400160405280601c8152602001604681525090806001815401808255809150506001900390600052602060002090600202016000909190919091506000820151816000015560208201518160010155505062000331565b82805482825590600052602060002090810192821562000308579160200282015b8281111562000308578251829060ff16905591602001919060010190620002e6565b50620003169291506200031a565b5090565b5b808211156200031657600081556001016200031b565b611a2b80620003416000396000f3fe6080604052600436106101ee5760003560e01c80636f9fb98a1161010d578063a8aeb6c2116100a0578063d7ffca911161006f578063d7ffca91146105d3578063e262113e1461060c578063e85abe0914610628578063f2fde38b14610661578063fe96973a1461068157600080fd5b8063a8aeb6c214610501578063aecaa63414610537578063c0806b031461056c578063c2341238146105bd57600080fd5b80638da5cb5b116100dc5780638da5cb5b146104a357806397c0262a146104c15780639bff5ddb1461020a578063a51b9533146104e157600080fd5b80636f9fb98a14610445578063715018a6146104585780637e3abeea1461046d578063817b1cd21461048d57600080fd5b806348c37203116101855780635936cf61116101545780635936cf61146103cf578063600d20ce146103ef57806369b11dd51461040f5780636bb185561461042557600080fd5b806348c372031461035957806348d44bd11461039257806357fc86b4146103a7578063581c5ae6146103bc57600080fd5b8063153ab9df116101c1578063153ab9df146102b957806332bc298c146102d957806336144c9a146102f05780633ccfd60b1461034457600080fd5b806301339c21146101f357806301c234a81461020a57806303a93c0c14610233578063040a772e14610299575b600080fd5b3480156101ff57600080fd5b506102086106a1565b005b34801561021657600080fd5b506102206103e881565b6040519081526020015b60405180910390f35b34801561023f57600080fd5b5061027e61024e366004611843565b6001600160a01b031660009081526005602081905260409091206003810154600482015491909201549192909190565b6040805193845260208401929092529082015260600161022a565b3480156102a557600080fd5b506102206102b4366004611843565b6106be565b3480156102c557600080fd5b506102206102d4366004611843565b610936565b3480156102e557600080fd5b506102206201518081565b3480156102fc57600080fd5b5061032c61030b366004611843565b6001600160a01b039081166000908152600560205260409020600201541690565b6040516001600160a01b03909116815260200161022a565b34801561035057600080fd5b5061020861096c565b34801561036557600080fd5b50610220610374366004611843565b6001600160a01b031660009081526005602052604090206007015490565b34801561039e57600080fd5b50610220609681565b3480156103b357600080fd5b50610220600381565b6102086103ca36600461186f565b610aa1565b3480156103db57600080fd5b5061027e6103ea3660046118a2565b611036565b3480156103fb57600080fd5b5061022061040a3660046118cc565b611152565b34801561041b57600080fd5b5061022060035481565b34801561043157600080fd5b50610220610440366004611843565b611173565b34801561045157600080fd5b5047610220565b34801561046457600080fd5b5061020861119f565b34801561047957600080fd5b50610220610488366004611843565b611213565b34801561049957600080fd5b5061022060025481565b3480156104af57600080fd5b506000546001600160a01b031661032c565b3480156104cd57600080fd5b5060075461032c906001600160a01b031681565b3480156104ed57600080fd5b506102206104fc3660046118e5565b6112a1565b34801561050d57600080fd5b5061022061051c366004611843565b6001600160a01b031660009081526005602052604090205490565b34801561054357600080fd5b506105576105523660046118e5565b611341565b6040805192835260208301919091520161022a565b34801561057857600080fd5b5061058c610587366004611900565b61139d565b6040805160ff90971687526020870195909552938501929092526060840152608083015260a082015260c00161022a565b3480156105c957600080fd5b5061022060065481565b3480156105df57600080fd5b506102206105ee366004611843565b6001600160a01b031660009081526005602052604090206001015490565b34801561061857600080fd5b5061022067016345785d8a000081565b34801561063457600080fd5b50610220610643366004611843565b6001600160a01b031660009081526005602052604090206006015490565b34801561066d57600080fd5b5061020861067c366004611843565b6114c3565b34801561068d57600080fd5b5061020861069c3660046118cc565b6114f9565b6007546001600160a01b031633146106b857600080fd5b42600655565b6001600160a01b038116600090815260056020526040812081805b825481101561092e578260000181815481106106f7576106f761191c565b9060005260206000209060060201600501548360010154101561091c57600383600001828154811061072b5761072b61191c565b600091825260209091206006909102015460ff1610156108b25760006107b26103e86107ac8660000185815481106107655761076561191c565b90600052602060002090600602016001015487600001868154811061078c5761078c61191c565b9060005260206000209060060201600201546115c190919063ffffffff16565b9061164a565b9050600084600101548560000184815481106107d0576107d061191c565b906000526020600020906006020160040154116107f1578460010154610819565b8460000183815481106108065761080661191c565b9060005260206000209060060201600401545b90506000428660000185815481106108335761083361191c565b906000526020600020906006020160050154106108505742610878565b8560000184815481106108655761086561191c565b9060005260206000209060060201600501545b9050808210156108aa576108a76108a0620151806107ac61089985876116af565b87906115c1565b869061170d565b94505b50505061091c565b8260000181815481106108c7576108c761191c565b90600052602060002090600602016005015442111561091c576109198360000182815481106108f8576108f861191c565b9060005260206000209060060201600301548361170d90919063ffffffff16565b91505b8061092681611948565b9150506106d9565b509392505050565b6000610966610944836106be565b6001600160a01b0384166000908152600560205260409020600601549061170d565b92915050565b33600081815260056020526040812091610985906106be565b9050600061099b6127106107ac846103e86115c1565b90506109a782826116af565b3360009081526005602052604090206006015490925080156109d757600060068501556109d4838261170d565b92505b60008311610a245760405162461bcd60e51b81526020600482015260156024820152745573657220686173206e6f206469766964656e647360581b60448201526064015b60405180910390fd5b4783811015610a31578093505b426001860155604051339085156108fc029086906000818181858888f19350505050158015610a64573d6000803e3d6000fd5b5060405184815233907f7084f5476618d8e60b11ef0d7d3f06914655adb8793e28ff7f018d4c76d505d59060200160405180910390a25050505050565b67016345785d8a0000341015610ae55760405162461bcd60e51b81526020600482015260096024820152681d1bdbc81cdb585b1b60ba1b6044820152606401610a1b565b60068160ff1610610b275760405162461bcd60e51b815260206004820152600c60248201526b24b73b30b634b210383630b760a11b6044820152606401610a1b565b4260065410610b785760405162461bcd60e51b815260206004820152601b60248201527f636f6e7472616374206861736e607420737461727465642079657400000000006044820152606401610a1b565b6000610b8b6103e86107ac3460966115c1565b6007546040519192506001600160a01b03169082156108fc029083906000818181858888f19350505050158015610bc6573d6000803e3d6000fd5b5060405181815233907f2899dc8c12def1caa9accb64257cf2fd9f960f21bb27a560a757eae3c2ec43c19060200160405180910390a233600090815260056020526040902060028101546001600160a01b0316610d4f576001600160a01b03841660009081526005602052604090205415801590610c4d57506001600160a01b0384163314155b15610c70576002810180546001600160a01b0319166001600160a01b0386161790555b60028101546001600160a01b031660005b6003811015610d4c576001600160a01b03821615610d3557610cdf600160056000856001600160a01b03166001600160a01b031681526020019081526020016000206003018360038110610cd757610cd761191c565b01549061170d565b6001600160a01b038316600090815260056020526040902060039081019083908110610d0d57610d0d61191c565b01556001600160a01b0391821660009081526005602052604090206002015490911690610d3a565b610d4c565b80610d4481611948565b915050610c81565b50505b60028101546001600160a01b031615610eb25760028101546001600160a01b031660005b6003811015610eaf576001600160a01b03821615610e98576000610dc36103e86107ac60018581548110610da957610da961191c565b9060005260206000200154346115c190919063ffffffff16565b6001600160a01b038416600090815260056020526040902060060154909150610dec908261170d565b6001600160a01b0384166000908152600560205260409020600681019190915560070154610e1a908261170d565b6001600160a01b038416600081815260056020908152604091829020600701939093555183815284923392917fd41f7e766eebcc7ff42b11ac8691bdf864db4afc0c55e71d629d54edce460d98910160405180910390a4506001600160a01b0391821660009081526005602052604090206002015490911690610e9d565b610eaf565b80610ea781611948565b915050610d73565b50505b8054600003610ef5574260018201556040513381527f9fd565cd14c3c391679eb0cad12a14dcf7534e9d3462bcb9b67a098a9bbbc24a9060200160405180910390a15b6000806000610f048634611036565b925092509250836000016040518060c001604052808860ff16815260200185815260200134815260200184815260200142815260200183815250908060018154018082558091505060019003906000526020600020906006020160009091909190915060008201518160000160006101000a81548160ff021916908360ff1602179055506020820151816001015560408201518160020155606082015181600301556080820151816004015560a082015181600501555050610fd13460025461170d90919063ffffffff16565b6002556040805160ff881681526020810185905234818301526060810184905242608082015260a08101839052905133917f84e02daa69bdb087c9fe8d3041abca495512cb14e723070f6d1d4efface82e5d919081900360c00190a250505050505050565b6000806000611044856112a1565b925060038560ff1610156110995761109260048660ff168154811061106b5761106b61191c565b600091825260209091206002909102015461108c6103e86107ac88886115c1565b906115c1565b915061110b565b60068560ff16101561110b5760005b60048660ff16815481106110be576110be61191c565b906000526020600020906002020160000154811015611109576110f56110ee6103e86107ac8761108c8a8961170d565b849061170d565b92508061110181611948565b9150506110a8565b505b6111496111426201518060048860ff168154811061112b5761112b61191c565b6000918252602090912060029091020154906115c1565b429061170d565b90509250925092565b6001818154811061116257600080fd5b600091825260209091200154905081565b6001600160a01b03811660009081526005602052604081206006810154600790910154610966916116af565b6000546001600160a01b031633146111c95760405162461bcd60e51b8152600401610a1b90611961565b600080546040516001600160a01b03909116907f8be0079c531659141344cd1fd0a4f28419497f9722a3daafe3b4186f6b6457e0908390a3600080546001600160a01b0319169055565b6000805b6001600160a01b03831660009081526005602052604090205481101561129b576001600160a01b038316600090815260056020526040902080546112879190839081106112665761126661191c565b9060005260206000209060060201600201548361170d90919063ffffffff16565b91508061129381611948565b915050611217565b50919050565b600060065442111561130d576109666112d7620151806107ac6112cf600654426116af90919063ffffffff16565b6003906115c1565b60048460ff16815481106112ed576112ed61191c565b90600052602060002090600202016001015461170d90919063ffffffff16565b60048260ff16815481106113235761132361191c565b9060005260206000209060020201600101549050919050565b919050565b60008060048360ff168154811061135a5761135a61191c565b906000526020600020906002020160000154915060048360ff16815481106113845761138461191c565b9060005260206000209060020201600101549050915091565b6001600160a01b0382166000908152600560205260408120805482918291829182918291908190899081106113d4576113d461191c565b6000918252602090912060069091020154815460ff90911697508190899081106114005761140061191c565b90600052602060002090600602016001015495508060000188815481106114295761142961191c565b90600052602060002090600602016002015494508060000188815481106114525761145261191c565b906000526020600020906006020160030154935080600001888154811061147b5761147b61191c565b90600052602060002090600602016004015492508060000188815481106114a4576114a461191c565b9060005260206000209060060201600501549150509295509295509295565b6000546001600160a01b031633146114ed5760405162461bcd60e51b8152600401610a1b90611961565b6114f68161176c565b50565b6000546001600160a01b031633146115235760405162461bcd60e51b8152600401610a1b90611961565b600080546040516001600160a01b039091169083908381818185875af1925050503d8060008114611570576040519150601f19603f3d011682016040523d82523d6000602084013e611575565b606091505b50509050806115bd5760405162461bcd60e51b81526020600482015260146024820152732330b4b632b2103a379039b2b7321022ba3432b960611b6044820152606401610a1b565b5050565b6000826000036115d357506000610966565b60006115df8385611996565b9050826115ec85836119ad565b146116435760405162461bcd60e51b815260206004820152602160248201527f536166654d6174683a206d756c7469706c69636174696f6e206f766572666c6f6044820152607760f81b6064820152608401610a1b565b9392505050565b600080821161169b5760405162461bcd60e51b815260206004820152601a60248201527f536166654d6174683a206469766973696f6e206279207a65726f0000000000006044820152606401610a1b565b60006116a783856119ad565b949350505050565b6000828211156117015760405162461bcd60e51b815260206004820152601e60248201527f536166654d6174683a207375627472616374696f6e206f766572666c6f7700006044820152606401610a1b565b60006116a783856119cf565b60008061171a83856119e2565b9050838110156116435760405162461bcd60e51b815260206004820152601b60248201527f536166654d6174683a206164646974696f6e206f766572666c6f7700000000006044820152606401610a1b565b6001600160a01b0381166117d15760405162461bcd60e51b815260206004820152602660248201527f4f776e61626c653a206e6577206f776e657220697320746865207a65726f206160448201526564647265737360d01b6064820152608401610a1b565b600080546040516001600160a01b03808516939216917f8be0079c531659141344cd1fd0a4f28419497f9722a3daafe3b4186f6b6457e091a3600080546001600160a01b0319166001600160a01b0392909216919091179055565b80356001600160a01b038116811461133c57600080fd5b60006020828403121561185557600080fd5b6116438261182c565b803560ff8116811461133c57600080fd5b6000806040838503121561188257600080fd5b61188b8361182c565b91506118996020840161185e565b90509250929050565b600080604083850312156118b557600080fd5b6118be8361185e565b946020939093013593505050565b6000602082840312156118de57600080fd5b5035919050565b6000602082840312156118f757600080fd5b6116438261185e565b6000806040838503121561191357600080fd5b6118be8361182c565b634e487b7160e01b600052603260045260246000fd5b634e487b7160e01b600052601160045260246000fd5b60006001820161195a5761195a611932565b5060010190565b6020808252818101527f4f776e61626c653a2063616c6c6572206973206e6f7420746865206f776e6572604082015260600190565b808202811582820484141761096657610966611932565b6000826119ca57634e487b7160e01b600052601260045260246000fd5b500490565b8181038181111561096657610966611932565b808201808211156109665761096661193256fea26469706673582212200e779bc988db0a3cfe0527f953db71e7043ccccf0ad0499dd8de697226cff2e764736f6c63430008110033",
  "linkReferences": {},
  "deployedLinkReferences": {}
}