{
  "_format": "hh-sol-artifact-1",
  "contractName": "Plinko",
  "sourceName": "contracts/plinko.sol",
  "abi": [
    {
      "inputs": [],
      "stateMutability": "payable",
      "type": "constructor"
    },
    {
      "anonymous": false,
      "inputs": [
        {
          "indexed": true,
          "internalType": "address",
          "name": "previousOwner",
          "type": "address"
        },
        {
          "indexed": true,
          "internalType": "address",
          "name": "newOwner",
          "type": "address"
        }
      ],
      "name": "OwnershipTransferred",
      "type": "event"
    },
    {
      "stateMutability": "payable",
      "type": "fallback"
    },
    {
      "inputs": [
        {
          "internalType": "uint256",
          "name": "amount",
          "type": "uint256"
        }
      ],
      "name": "claimETH",
      "outputs": [],
      "stateMutability": "nonpayable",
      "type": "function"
    },
    {
      "inputs": [],
      "name": "getResult",
      "outputs": [
        {
          "internalType": "uint256",
          "name": "",
          "type": "uint256"
        }
      ],
      "stateMutability": "view",
      "type": "function"
    },
    {
      "inputs": [],
      "name": "owner",
      "outputs": [
        {
          "internalType": "address",
          "name": "",
          "type": "address"
        }
      ],
      "stateMutability": "view",
      "type": "function"
    },
    {
      "inputs": [
        {
          "internalType": "uint256",
          "name": "rowCount",
          "type": "uint256"
        }
      ],
      "name": "pliko_play",
      "outputs": [],
      "stateMutability": "payable",
      "type": "function"
    },
    {
      "inputs": [],
      "name": "renounceOwnership",
      "outputs": [],
      "stateMutability": "nonpayable",
      "type": "function"
    },
    {
      "inputs": [
        {
          "internalType": "address",
          "name": "newOwner",
          "type": "address"
        }
      ],
      "name": "transferOwnership",
      "outputs": [],
      "stateMutability": "nonpayable",
      "type": "function"
    },
    {
      "inputs": [],
      "name": "withdrawETHs",
      "outputs": [],
      "stateMutability": "nonpayable",
      "type": "function"
    },
    {
      "stateMutability": "payable",
      "type": "receive"
    }
  ],
  "bytecode": "0x6101a060405260a060808181526025808352600f60c0819052600560e0819052600361010052610120526101405261016052610180919091526100469060029060096101bb565b50604080516101a08101825260dc808252602a60208301819052601e938301849052601460608401819052600e60808501819052600660a08601819052600360c0870181905260e08701919091526101008601919091526101208501919091526101408401949094526101608301526101808201526100c79190600d6101bb565b50604080516102208101825260fa808252606060208301819052603f9383018490526028818401819052601360808501819052601160a08601819052600e60c08701819052600560e08801819052600261010089015261012088015261014087015261016086018190526101808601919091526101a08501919091526101c08401949094526101e083015261020082015261016591600491906101bb565b506009600555600d6006556011600755600080546001600160a01b031916339081178255604051909182917f8be0079c531659141344cd1fd0a4f28419497f9722a3daafe3b4186f6b6457e0908290a350610220565b8280548282559060005260206000209081019282156101fb579160200282015b828111156101fb578251829060ff169055916020019190600101906101db565b5061020792915061020b565b5090565b5b80821115610207576000815560010161020c565b6106a08061022f6000396000f3fe60806040526004361061006e5760003560e01c8063b32c7dc11161004b578063b32c7dc1146100cc578063de292789146100e1578063f2fde38b1461010c578063fe96973a1461012c57005b806329a5d94414610077578063715018a61461008a5780638da5cb5b1461009f57005b3661007557005b005b610075610085366004610552565b61014c565b34801561009657600080fd5b50610075610255565b3480156100ab57600080fd5b506000546040516001600160a01b0390911681526020015b60405180910390f35b3480156100d857600080fd5b506100756102d2565b3480156100ed57600080fd5b50336000908152600160205260409020546040519081526020016100c3565b34801561011857600080fd5b5061007561012736600461056b565b610397565b34801561013857600080fd5b50610075610147366004610552565b6103ca565b60006101598260016105b1565b60408051426020820152016040516020818303038152906040528051906020012060001c61018791906105e0565b90506000826008036101b857600282815481106101a6576101a66105f4565b906000526020600020015490506101f4565b82600c036101d357600382815481106101a6576101a66105f4565b600482815481106101e6576101e66105f4565b906000526020600020015490505b6000600a610202833461060a565b61020c9190610621565b604051909150339082156108fc029083906000818181858888f1935050505015801561023c573d6000803e3d6000fd5b5050336000908152600160205260409020919091555050565b6000546001600160a01b031633146102885760405162461bcd60e51b815260040161027f90610635565b60405180910390fd5b600080546040516001600160a01b03909116907f8be0079c531659141344cd1fd0a4f28419497f9722a3daafe3b4186f6b6457e0908390a3600080546001600160a01b0319169055565b6000546001600160a01b031633146102fc5760405162461bcd60e51b815260040161027f90610635565b600080546040516001600160a01b039091169047908381818185875af1925050503d8060008114610349576040519150601f19603f3d011682016040523d82523d6000602084013e61034e565b606091505b50509050806103945760405162461bcd60e51b81526020600482015260126024820152714661696c656420746f20776974686472617760701b604482015260640161027f565b50565b6000546001600160a01b031633146103c15760405162461bcd60e51b815260040161027f90610635565b61039481610492565b6000546001600160a01b031633146103f45760405162461bcd60e51b815260040161027f90610635565b600080546040516001600160a01b039091169083908381818185875af1925050503d8060008114610441576040519150601f19603f3d011682016040523d82523d6000602084013e610446565b606091505b505090508061048e5760405162461bcd60e51b81526020600482015260146024820152732330b4b632b2103a379039b2b7321022ba3432b960611b604482015260640161027f565b5050565b6001600160a01b0381166104f75760405162461bcd60e51b815260206004820152602660248201527f4f776e61626c653a206e6577206f776e657220697320746865207a65726f206160448201526564647265737360d01b606482015260840161027f565b600080546040516001600160a01b03808516939216917f8be0079c531659141344cd1fd0a4f28419497f9722a3daafe3b4186f6b6457e091a3600080546001600160a01b0319166001600160a01b0392909216919091179055565b60006020828403121561056457600080fd5b5035919050565b60006020828403121561057d57600080fd5b81356001600160a01b038116811461059457600080fd5b9392505050565b634e487b7160e01b600052601160045260246000fd5b808201808211156105c4576105c461059b565b92915050565b634e487b7160e01b600052601260045260246000fd5b6000826105ef576105ef6105ca565b500690565b634e487b7160e01b600052603260045260246000fd5b80820281158282048414176105c4576105c461059b565b600082610630576106306105ca565b500490565b6020808252818101527f4f776e61626c653a2063616c6c6572206973206e6f7420746865206f776e657260408201526060019056fea2646970667358221220cc1632ad44e9373b340c00d4c5f1e018f008d1c343507735c2ceb786773804b564736f6c63430008110033",
  "linkReferences": {},
  "deployedLinkReferences": {}
}