{
  "_format": "hh-sol-artifact-1",
  "contractName": "Airdrop",
  "sourceName": "contracts/airdrop.sol",
  "abi": [
    {
      "inputs": [
        {
          "internalType": "address",
          "name": "_tokenAddress",
          "type": "address"
        },
        {
          "internalType": "address",
          "name": "_aproveTokenAddress",
          "type": "address"
        }
      ],
      "stateMutability": "nonpayable",
      "type": "constructor"
    },
    {
      "anonymous": false,
      "inputs": [
        {
          "indexed": false,
          "internalType": "address",
          "name": "to",
          "type": "address"
        },
        {
          "indexed": false,
          "internalType": "uint256",
          "name": "amount",
          "type": "uint256"
        }
      ],
      "name": "Buy",
      "type": "event"
    },
    {
      "anonymous": false,
      "inputs": [
        {
          "indexed": true,
          "internalType": "address",
          "name": "previousOwner",
          "type": "address"
        },
        {
          "indexed": true,
          "internalType": "address",
          "name": "newOwner",
          "type": "address"
        }
      ],
      "name": "OwnershipTransferred",
      "type": "event"
    },
    {
      "stateMutability": "payable",
      "type": "fallback"
    },
    {
      "inputs": [
        {
          "internalType": "uint256",
          "name": "_amount",
          "type": "uint256"
        }
      ],
      "name": "airdrop",
      "outputs": [],
      "stateMutability": "nonpayable",
      "type": "function"
    },
    {
      "inputs": [],
      "name": "approveToken",
      "outputs": [
        {
          "internalType": "contract IERC20",
          "name": "",
          "type": "address"
        }
      ],
      "stateMutability": "view",
      "type": "function"
    },
    {
      "inputs": [
        {
          "internalType": "uint256",
          "name": "amount",
          "type": "uint256"
        }
      ],
      "name": "claimETH",
      "outputs": [],
      "stateMutability": "nonpayable",
      "type": "function"
    },
    {
      "inputs": [
        {
          "internalType": "address",
          "name": "tokenAddress",
          "type": "address"
        },
        {
          "internalType": "uint256",
          "name": "amount",
          "type": "uint256"
        }
      ],
      "name": "claimToken",
      "outputs": [],
      "stateMutability": "nonpayable",
      "type": "function"
    },
    {
      "inputs": [
        {
          "internalType": "uint256",
          "name": "_amount",
          "type": "uint256"
        }
      ],
      "name": "deposit",
      "outputs": [],
      "stateMutability": "nonpayable",
      "type": "function"
    },
    {
      "inputs": [],
      "name": "owner",
      "outputs": [
        {
          "internalType": "address",
          "name": "",
          "type": "address"
        }
      ],
      "stateMutability": "view",
      "type": "function"
    },
    {
      "inputs": [],
      "name": "renounceOwnership",
      "outputs": [],
      "stateMutability": "nonpayable",
      "type": "function"
    },
    {
      "inputs": [],
      "name": "token",
      "outputs": [
        {
          "internalType": "contract IERC20",
          "name": "",
          "type": "address"
        }
      ],
      "stateMutability": "view",
      "type": "function"
    },
    {
      "inputs": [
        {
          "internalType": "address",
          "name": "newOwner",
          "type": "address"
        }
      ],
      "name": "transferOwnership",
      "outputs": [],
      "stateMutability": "nonpayable",
      "type": "function"
    },
    {
      "inputs": [
        {
          "internalType": "uint256",
          "name": "_amount",
          "type": "uint256"
        }
      ],
      "name": "withdraw",
      "outputs": [],
      "stateMutability": "nonpayable",
      "type": "function"
    },
    {
      "stateMutability": "payable",
      "type": "receive"
    }
  ],
  "bytecode": "0x608060405234801561001057600080fd5b50604051610a06380380610a0683398101604081905261002f916100bd565b600080546001600160a01b031916339081178255604051909182917f8be0079c531659141344cd1fd0a4f28419497f9722a3daafe3b4186f6b6457e0908290a350600180546001600160a01b039384166001600160a01b031991821617909155600280549290931691161790556100f0565b80516001600160a01b03811681146100b857600080fd5b919050565b600080604083850312156100d057600080fd5b6100d9836100a1565b91506100e7602084016100a1565b90509250929050565b610907806100ff6000396000f3fe60806040526004361061008f5760003560e01c806399b71d5c1161005657806399b71d5c14610143578063b6b55f2514610163578063f2fde38b14610183578063fc0c546a146101a3578063fe96973a146101c357005b80631698755f146100985780632e1a7d4d146100b8578063715018a6146100d85780638da5cb5b146100ed57806397dc4a131461012357005b3661009657005b005b3480156100a457600080fd5b506100966100b33660046107fc565b6101e3565b3480156100c457600080fd5b506100966100d3366004610826565b6102ad565b3480156100e457600080fd5b5061009661038d565b3480156100f957600080fd5b506000546001600160a01b03165b6040516001600160a01b03909116815260200160405180910390f35b34801561012f57600080fd5b5061009661013e366004610826565b610401565b34801561014f57600080fd5b50600254610107906001600160a01b031681565b34801561016f57600080fd5b5061009661017e366004610826565b61056d565b34801561018f57600080fd5b5061009661019e36600461083f565b610625565b3480156101af57600080fd5b50600154610107906001600160a01b031681565b3480156101cf57600080fd5b506100966101de366004610826565b610658565b6000546001600160a01b031633146102165760405162461bcd60e51b815260040161020d90610861565b60405180910390fd5b816001600160a01b031663a9059cbb6102376000546001600160a01b031690565b6040516001600160e01b031960e084901b1681526001600160a01b039091166004820152602481018490526044016020604051808303816000875af1158015610284573d6000803e3d6000fd5b505050506040513d601f19601f820116820180604052508101906102a89190610896565b505050565b6000546001600160a01b031633146102d75760405162461bcd60e51b815260040161020d90610861565b60015460405163a9059cbb60e01b8152336004820152602481018390526001600160a01b039091169063a9059cbb906044016020604051808303816000875af1158015610328573d6000803e3d6000fd5b505050506040513d601f19601f8201168201806040525081019061034c9190610896565b61038a5760405162461bcd60e51b815260206004820152600f60248201526e1dda5d1a191c985dc819985a5b1959608a1b604482015260640161020d565b50565b6000546001600160a01b031633146103b75760405162461bcd60e51b815260040161020d90610861565b600080546040516001600160a01b03909116907f8be0079c531659141344cd1fd0a4f28419497f9722a3daafe3b4186f6b6457e0908390a3600080546001600160a01b0319169055565b6002546040516370a0823160e01b81523360048201526000916001600160a01b0316906370a0823190602401602060405180830381865afa15801561044a573d6000803e3d6000fd5b505050506040513d601f19601f8201168201806040525081019061046e91906108b8565b116104bb5760405162461bcd60e51b815260206004820152601a60248201527f596f752073686f756c6420626520746f6b656e20686f6c646572000000000000604482015260640161020d565b60015460405163a9059cbb60e01b8152336004820152602481018390526001600160a01b039091169063a9059cbb906044016020604051808303816000875af115801561050c573d6000803e3d6000fd5b505050506040513d601f19601f820116820180604052508101906105309190610896565b61038a5760405162461bcd60e51b815260206004820152600e60248201526d185a5c991c9bdc0819985a5b195960921b604482015260640161020d565b6001546040516323b872dd60e01b8152336004820152306024820152604481018390526001600160a01b03909116906323b872dd906064016020604051808303816000875af11580156105c4573d6000803e3d6000fd5b505050506040513d601f19601f820116820180604052508101906105e89190610896565b61038a5760405162461bcd60e51b815260206004820152600e60248201526d19195c1bdcda5d0819985a5b195960921b604482015260640161020d565b6000546001600160a01b0316331461064f5760405162461bcd60e51b815260040161020d90610861565b61038a81610720565b6000546001600160a01b031633146106825760405162461bcd60e51b815260040161020d90610861565b600080546040516001600160a01b039091169083908381818185875af1925050503d80600081146106cf576040519150601f19603f3d011682016040523d82523d6000602084013e6106d4565b606091505b505090508061071c5760405162461bcd60e51b81526020600482015260146024820152732330b4b632b2103a379039b2b7321022ba3432b960611b604482015260640161020d565b5050565b6001600160a01b0381166107855760405162461bcd60e51b815260206004820152602660248201527f4f776e61626c653a206e6577206f776e657220697320746865207a65726f206160448201526564647265737360d01b606482015260840161020d565b600080546040516001600160a01b03808516939216917f8be0079c531659141344cd1fd0a4f28419497f9722a3daafe3b4186f6b6457e091a3600080546001600160a01b0319166001600160a01b0392909216919091179055565b80356001600160a01b03811681146107f757600080fd5b919050565b6000806040838503121561080f57600080fd5b610818836107e0565b946020939093013593505050565b60006020828403121561083857600080fd5b5035919050565b60006020828403121561085157600080fd5b61085a826107e0565b9392505050565b6020808252818101527f4f776e61626c653a2063616c6c6572206973206e6f7420746865206f776e6572604082015260600190565b6000602082840312156108a857600080fd5b8151801515811461085a57600080fd5b6000602082840312156108ca57600080fd5b505191905056fea2646970667358221220291576a3679417733c9efaa83957a50471a22aecd735f96cd59b39ebdc5b275564736f6c63430008110033",
  "linkReferences": {},
  "deployedLinkReferences": {}
}