{
  "_format": "hh-sol-artifact-1",
  "contractName": "Claimable",
  "sourceName": "contracts/airdrop.sol",
  "abi": [
    {
      "anonymous": false,
      "inputs": [
        {
          "indexed": true,
          "internalType": "address",
          "name": "previousOwner",
          "type": "address"
        },
        {
          "indexed": true,
          "internalType": "address",
          "name": "newOwner",
          "type": "address"
        }
      ],
      "name": "OwnershipTransferred",
      "type": "event"
    },
    {
      "inputs": [
        {
          "internalType": "uint256",
          "name": "amount",
          "type": "uint256"
        }
      ],
      "name": "claimETH",
      "outputs": [],
      "stateMutability": "nonpayable",
      "type": "function"
    },
    {
      "inputs": [
        {
          "internalType": "address",
          "name": "tokenAddress",
          "type": "address"
        },
        {
          "internalType": "uint256",
          "name": "amount",
          "type": "uint256"
        }
      ],
      "name": "claimToken",
      "outputs": [],
      "stateMutability": "nonpayable",
      "type": "function"
    },
    {
      "inputs": [],
      "name": "owner",
      "outputs": [
        {
          "internalType": "address",
          "name": "",
          "type": "address"
        }
      ],
      "stateMutability": "view",
      "type": "function"
    },
    {
      "inputs": [],
      "name": "renounceOwnership",
      "outputs": [],
      "stateMutability": "nonpayable",
      "type": "function"
    },
    {
      "inputs": [
        {
          "internalType": "address",
          "name": "newOwner",
          "type": "address"
        }
      ],
      "name": "transferOwnership",
      "outputs": [],
      "stateMutability": "nonpayable",
      "type": "function"
    }
  ],
  "bytecode": "0x608060405234801561001057600080fd5b50600080546001600160a01b031916339081178255604051909182917f8be0079c531659141344cd1fd0a4f28419497f9722a3daafe3b4186f6b6457e0908290a3506104c8806100616000396000f3fe608060405234801561001057600080fd5b50600436106100575760003560e01c80631698755f1461005c578063715018a6146100715780638da5cb5b14610079578063f2fde38b14610098578063fe96973a146100ab575b600080fd5b61006f61006a3660046103d6565b6100be565b005b61006f610188565b600054604080516001600160a01b039092168252519081900360200190f35b61006f6100a6366004610400565b6101fc565b61006f6100b9366004610422565b610232565b6000546001600160a01b031633146100f15760405162461bcd60e51b81526004016100e89061043b565b60405180910390fd5b816001600160a01b031663a9059cbb6101126000546001600160a01b031690565b6040516001600160e01b031960e084901b1681526001600160a01b039091166004820152602481018490526044016020604051808303816000875af115801561015f573d6000803e3d6000fd5b505050506040513d601f19601f820116820180604052508101906101839190610470565b505050565b6000546001600160a01b031633146101b25760405162461bcd60e51b81526004016100e89061043b565b600080546040516001600160a01b03909116907f8be0079c531659141344cd1fd0a4f28419497f9722a3daafe3b4186f6b6457e0908390a3600080546001600160a01b0319169055565b6000546001600160a01b031633146102265760405162461bcd60e51b81526004016100e89061043b565b61022f816102fa565b50565b6000546001600160a01b0316331461025c5760405162461bcd60e51b81526004016100e89061043b565b600080546040516001600160a01b039091169083908381818185875af1925050503d80600081146102a9576040519150601f19603f3d011682016040523d82523d6000602084013e6102ae565b606091505b50509050806102f65760405162461bcd60e51b81526020600482015260146024820152732330b4b632b2103a379039b2b7321022ba3432b960611b60448201526064016100e8565b5050565b6001600160a01b03811661035f5760405162461bcd60e51b815260206004820152602660248201527f4f776e61626c653a206e6577206f776e657220697320746865207a65726f206160448201526564647265737360d01b60648201526084016100e8565b600080546040516001600160a01b03808516939216917f8be0079c531659141344cd1fd0a4f28419497f9722a3daafe3b4186f6b6457e091a3600080546001600160a01b0319166001600160a01b0392909216919091179055565b80356001600160a01b03811681146103d157600080fd5b919050565b600080604083850312156103e957600080fd5b6103f2836103ba565b946020939093013593505050565b60006020828403121561041257600080fd5b61041b826103ba565b9392505050565b60006020828403121561043457600080fd5b5035919050565b6020808252818101527f4f776e61626c653a2063616c6c6572206973206e6f7420746865206f776e6572604082015260600190565b60006020828403121561048257600080fd5b8151801515811461041b57600080fdfea26469706673582212200ffb57475c4f2725096b48c19beeefb8b362182d79dc1a617a827f74b527604964736f6c63430008110033",
  "linkReferences": {},
  "deployedLinkReferences": {}
}