{
  "_format": "hh-sol-artifact-1",
  "contractName": "tolspad",
  "sourceName": "contracts/zksync.sol",
  "abi": [
    {
      "inputs": [],
      "stateMutability": "nonpayable",
      "type": "constructor"
    },
    {
      "anonymous": false,
      "inputs": [
        {
          "indexed": true,
          "internalType": "address",
          "name": "owner",
          "type": "address"
        },
        {
          "indexed": true,
          "internalType": "address",
          "name": "spender",
          "type": "address"
        },
        {
          "indexed": false,
          "internalType": "uint256",
          "name": "value",
          "type": "uint256"
        }
      ],
      "name": "Approval",
      "type": "event"
    },
    {
      "anonymous": false,
      "inputs": [
        {
          "indexed": true,
          "internalType": "address",
          "name": "previousOwner",
          "type": "address"
        },
        {
          "indexed": true,
          "internalType": "address",
          "name": "newOwner",
          "type": "address"
        }
      ],
      "name": "OwnershipTransferred",
      "type": "event"
    },
    {
      "anonymous": false,
      "inputs": [
        {
          "indexed": false,
          "internalType": "uint256",
          "name": "tokensSwapped",
          "type": "uint256"
        },
        {
          "indexed": false,
          "internalType": "uint256",
          "name": "ethReceived",
          "type": "uint256"
        },
        {
          "indexed": false,
          "internalType": "uint256",
          "name": "tokensIntoLiqudity",
          "type": "uint256"
        }
      ],
      "name": "SwapAndLiquify",
      "type": "event"
    },
    {
      "anonymous": false,
      "inputs": [
        {
          "indexed": false,
          "internalType": "bool",
          "name": "enabled",
          "type": "bool"
        }
      ],
      "name": "SwapAndLiquifyEnabledUpdated",
      "type": "event"
    },
    {
      "anonymous": false,
      "inputs": [
        {
          "indexed": true,
          "internalType": "address",
          "name": "from",
          "type": "address"
        },
        {
          "indexed": true,
          "internalType": "address",
          "name": "to",
          "type": "address"
        },
        {
          "indexed": false,
          "internalType": "uint256",
          "name": "value",
          "type": "uint256"
        }
      ],
      "name": "Transfer",
      "type": "event"
    },
    {
      "inputs": [
        {
          "internalType": "address payable",
          "name": "wallet",
          "type": "address"
        }
      ],
      "name": "Wallet_Update_Dev",
      "outputs": [],
      "stateMutability": "nonpayable",
      "type": "function"
    },
    {
      "inputs": [],
      "name": "_buyFee",
      "outputs": [
        {
          "internalType": "uint256",
          "name": "",
          "type": "uint256"
        }
      ],
      "stateMutability": "view",
      "type": "function"
    },
    {
      "inputs": [
        {
          "internalType": "address",
          "name": "",
          "type": "address"
        }
      ],
      "name": "_isBlacklisted",
      "outputs": [
        {
          "internalType": "bool",
          "name": "",
          "type": "bool"
        }
      ],
      "stateMutability": "view",
      "type": "function"
    },
    {
      "inputs": [
        {
          "internalType": "address",
          "name": "",
          "type": "address"
        }
      ],
      "name": "_isExcludedFromFee",
      "outputs": [
        {
          "internalType": "bool",
          "name": "",
          "type": "bool"
        }
      ],
      "stateMutability": "view",
      "type": "function"
    },
    {
      "inputs": [],
      "name": "_maxTxAmount",
      "outputs": [
        {
          "internalType": "uint256",
          "name": "",
          "type": "uint256"
        }
      ],
      "stateMutability": "view",
      "type": "function"
    },
    {
      "inputs": [],
      "name": "_maxWalletToken",
      "outputs": [
        {
          "internalType": "uint256",
          "name": "",
          "type": "uint256"
        }
      ],
      "stateMutability": "view",
      "type": "function"
    },
    {
      "inputs": [],
      "name": "_sellFee",
      "outputs": [
        {
          "internalType": "uint256",
          "name": "",
          "type": "uint256"
        }
      ],
      "stateMutability": "view",
      "type": "function"
    },
    {
      "inputs": [
        {
          "internalType": "uint256",
          "name": "Buy_Fee",
          "type": "uint256"
        },
        {
          "internalType": "uint256",
          "name": "Sell_Fee",
          "type": "uint256"
        }
      ],
      "name": "_set_Fees",
      "outputs": [],
      "stateMutability": "nonpayable",
      "type": "function"
    },
    {
      "inputs": [
        {
          "internalType": "address",
          "name": "owner",
          "type": "address"
        },
        {
          "internalType": "address",
          "name": "spender",
          "type": "address"
        }
      ],
      "name": "allowance",
      "outputs": [
        {
          "internalType": "uint256",
          "name": "",
          "type": "uint256"
        }
      ],
      "stateMutability": "view",
      "type": "function"
    },
    {
      "inputs": [
        {
          "internalType": "address",
          "name": "spender",
          "type": "address"
        },
        {
          "internalType": "uint256",
          "name": "amount",
          "type": "uint256"
        }
      ],
      "name": "approve",
      "outputs": [
        {
          "internalType": "bool",
          "name": "",
          "type": "bool"
        }
      ],
      "stateMutability": "nonpayable",
      "type": "function"
    },
    {
      "inputs": [
        {
          "internalType": "address",
          "name": "account",
          "type": "address"
        }
      ],
      "name": "balanceOf",
      "outputs": [
        {
          "internalType": "uint256",
          "name": "",
          "type": "uint256"
        }
      ],
      "stateMutability": "view",
      "type": "function"
    },
    {
      "inputs": [
        {
          "internalType": "address[]",
          "name": "addresses",
          "type": "address[]"
        }
      ],
      "name": "blacklist_Add_Wallets",
      "outputs": [],
      "stateMutability": "nonpayable",
      "type": "function"
    },
    {
      "inputs": [
        {
          "internalType": "address[]",
          "name": "addresses",
          "type": "address[]"
        }
      ],
      "name": "blacklist_Remove_Wallets",
      "outputs": [],
      "stateMutability": "nonpayable",
      "type": "function"
    },
    {
      "inputs": [
        {
          "internalType": "bool",
          "name": "true_or_false",
          "type": "bool"
        }
      ],
      "name": "blacklist_Switch",
      "outputs": [],
      "stateMutability": "nonpayable",
      "type": "function"
    },
    {
      "inputs": [],
      "name": "decimals",
      "outputs": [
        {
          "internalType": "uint8",
          "name": "",
          "type": "uint8"
        }
      ],
      "stateMutability": "view",
      "type": "function"
    },
    {
      "inputs": [
        {
          "internalType": "address",
          "name": "spender",
          "type": "address"
        },
        {
          "internalType": "uint256",
          "name": "subtractedValue",
          "type": "uint256"
        }
      ],
      "name": "decreaseAllowance",
      "outputs": [
        {
          "internalType": "bool",
          "name": "",
          "type": "bool"
        }
      ],
      "stateMutability": "nonpayable",
      "type": "function"
    },
    {
      "inputs": [
        {
          "internalType": "address",
          "name": "account",
          "type": "address"
        }
      ],
      "name": "excludeFromFee",
      "outputs": [],
      "stateMutability": "nonpayable",
      "type": "function"
    },
    {
      "inputs": [],
      "name": "inSwapAndLiquify",
      "outputs": [
        {
          "internalType": "bool",
          "name": "",
          "type": "bool"
        }
      ],
      "stateMutability": "view",
      "type": "function"
    },
    {
      "inputs": [
        {
          "internalType": "address",
          "name": "account",
          "type": "address"
        }
      ],
      "name": "includeInFee",
      "outputs": [],
      "stateMutability": "nonpayable",
      "type": "function"
    },
    {
      "inputs": [
        {
          "internalType": "address",
          "name": "spender",
          "type": "address"
        },
        {
          "internalType": "uint256",
          "name": "addedValue",
          "type": "uint256"
        }
      ],
      "name": "increaseAllowance",
      "outputs": [
        {
          "internalType": "bool",
          "name": "",
          "type": "bool"
        }
      ],
      "stateMutability": "nonpayable",
      "type": "function"
    },
    {
      "inputs": [],
      "name": "name",
      "outputs": [
        {
          "internalType": "string",
          "name": "",
          "type": "string"
        }
      ],
      "stateMutability": "view",
      "type": "function"
    },
    {
      "inputs": [],
      "name": "noBlackList",
      "outputs": [
        {
          "internalType": "bool",
          "name": "",
          "type": "bool"
        }
      ],
      "stateMutability": "view",
      "type": "function"
    },
    {
      "inputs": [],
      "name": "noFeeToTransfer",
      "outputs": [
        {
          "internalType": "bool",
          "name": "",
          "type": "bool"
        }
      ],
      "stateMutability": "view",
      "type": "function"
    },
    {
      "inputs": [],
      "name": "owner",
      "outputs": [
        {
          "internalType": "address",
          "name": "",
          "type": "address"
        }
      ],
      "stateMutability": "view",
      "type": "function"
    },
    {
      "inputs": [
        {
          "internalType": "uint256",
          "name": "percent_Of_Tokens_To_Process",
          "type": "uint256"
        }
      ],
      "name": "process_Tokens_Now",
      "outputs": [],
      "stateMutability": "nonpayable",
      "type": "function"
    },
    {
      "inputs": [
        {
          "internalType": "address",
          "name": "random_Token_Address",
          "type": "address"
        },
        {
          "internalType": "address",
          "name": "send_to_wallet",
          "type": "address"
        },
        {
          "internalType": "uint256",
          "name": "number_of_tokens",
          "type": "uint256"
        }
      ],
      "name": "remove_Random_Tokens",
      "outputs": [
        {
          "internalType": "bool",
          "name": "_sent",
          "type": "bool"
        }
      ],
      "stateMutability": "nonpayable",
      "type": "function"
    },
    {
      "inputs": [],
      "name": "renounceOwnership",
      "outputs": [],
      "stateMutability": "nonpayable",
      "type": "function"
    },
    {
      "inputs": [
        {
          "internalType": "uint256",
          "name": "maxTxPercent_x100",
          "type": "uint256"
        }
      ],
      "name": "set_Max_Transaction_Percent",
      "outputs": [],
      "stateMutability": "nonpayable",
      "type": "function"
    },
    {
      "inputs": [
        {
          "internalType": "uint256",
          "name": "maxWallPercent_x100",
          "type": "uint256"
        }
      ],
      "name": "set_Max_Wallet_Percent",
      "outputs": [],
      "stateMutability": "nonpayable",
      "type": "function"
    },
    {
      "inputs": [
        {
          "internalType": "address",
          "name": "newPair",
          "type": "address"
        }
      ],
      "name": "set_New_Pair_Address",
      "outputs": [],
      "stateMutability": "nonpayable",
      "type": "function"
    },
    {
      "inputs": [
        {
          "internalType": "address",
          "name": "newRouter",
          "type": "address"
        }
      ],
      "name": "set_New_Router_Address",
      "outputs": [],
      "stateMutability": "nonpayable",
      "type": "function"
    },
    {
      "inputs": [
        {
          "internalType": "address",
          "name": "newRouter",
          "type": "address"
        }
      ],
      "name": "set_New_Router_and_Make_Pair",
      "outputs": [],
      "stateMutability": "nonpayable",
      "type": "function"
    },
    {
      "inputs": [
        {
          "internalType": "uint8",
          "name": "number_of_transactions",
          "type": "uint8"
        }
      ],
      "name": "set_Number_Of_Transactions_Before_Liquify_Trigger",
      "outputs": [],
      "stateMutability": "nonpayable",
      "type": "function"
    },
    {
      "inputs": [
        {
          "internalType": "bool",
          "name": "true_or_false",
          "type": "bool"
        }
      ],
      "name": "set_Swap_And_Liquify_Enabled",
      "outputs": [],
      "stateMutability": "nonpayable",
      "type": "function"
    },
    {
      "inputs": [
        {
          "internalType": "bool",
          "name": "true_or_false",
          "type": "bool"
        }
      ],
      "name": "set_Transfers_Without_Fees",
      "outputs": [],
      "stateMutability": "nonpayable",
      "type": "function"
    },
    {
      "inputs": [],
      "name": "swapAndLiquifyEnabled",
      "outputs": [
        {
          "internalType": "bool",
          "name": "",
          "type": "bool"
        }
      ],
      "stateMutability": "view",
      "type": "function"
    },
    {
      "inputs": [],
      "name": "symbol",
      "outputs": [
        {
          "internalType": "string",
          "name": "",
          "type": "string"
        }
      ],
      "stateMutability": "view",
      "type": "function"
    },
    {
      "inputs": [],
      "name": "totalSupply",
      "outputs": [
        {
          "internalType": "uint256",
          "name": "",
          "type": "uint256"
        }
      ],
      "stateMutability": "view",
      "type": "function"
    },
    {
      "inputs": [
        {
          "internalType": "address",
          "name": "recipient",
          "type": "address"
        },
        {
          "internalType": "uint256",
          "name": "amount",
          "type": "uint256"
        }
      ],
      "name": "transfer",
      "outputs": [
        {
          "internalType": "bool",
          "name": "",
          "type": "bool"
        }
      ],
      "stateMutability": "nonpayable",
      "type": "function"
    },
    {
      "inputs": [
        {
          "internalType": "address",
          "name": "sender",
          "type": "address"
        },
        {
          "internalType": "address",
          "name": "recipient",
          "type": "address"
        },
        {
          "internalType": "uint256",
          "name": "amount",
          "type": "uint256"
        }
      ],
      "name": "transferFrom",
      "outputs": [
        {
          "internalType": "bool",
          "name": "",
          "type": "bool"
        }
      ],
      "stateMutability": "nonpayable",
      "type": "function"
    },
    {
      "inputs": [
        {
          "internalType": "address",
          "name": "newOwner",
          "type": "address"
        }
      ],
      "name": "transferOwnership",
      "outputs": [],
      "stateMutability": "nonpayable",
      "type": "function"
    },
    {
      "inputs": [],
      "name": "uniswapV2Pair",
      "outputs": [
        {
          "internalType": "address",
          "name": "",
          "type": "address"
        }
      ],
      "stateMutability": "view",
      "type": "function"
    },
    {
      "inputs": [],
      "name": "uniswapV2Router",
      "outputs": [
        {
          "internalType": "contract IUniswapV2Router02",
          "name": "",
          "type": "address"
        }
      ],
      "stateMutability": "view",
      "type": "function"
    },
    {
      "stateMutability": "payable",
      "type": "receive"
    }
  ],
  "bytecode": "0x60058054610100600160a81b03191674523618825b5d6571782ea54dbbd2520a2882fcba001790556006805461dead6001600160a01b03199182161790915560078054909116815560c0604052608090815266151bdb1cdc185960ca1b60a0526008906200006e90826200029b565b50604080518082019091526005815264169514105160da1b60208201526009906200009a90826200029b565b50600a8054600960ff19909116179055670de0b6b3a7640000600b819055600d805461ffff19166103001790556064600e8190556046600f819055601460108190556032601181905560129290925560138190555562000121916200010d906004620001d1602090811b6200152c17901c565b620001e860201b6200153f1790919060201c565b6015556015546016556200014d60646200010d6004600b54620001d160201b6200152c1790919060201c565b6017819055601855601a805461ffff60a81b191661010160a81b1790553480156200017757600080fd5b50600080546001600160a01b03191673523618825b5d6571782ea54dbbd2520a2882fcba90811782556040519091907f8be0079c531659141344cd1fd0a4f28419497f9722a3daafe3b4186f6b6457e0908290a3620003b0565b6000620001df828462000367565b90505b92915050565b6000620001df82846200038d565b634e487b7160e01b600052604160045260246000fd5b600181811c908216806200022157607f821691505b6020821081036200024257634e487b7160e01b600052602260045260246000fd5b50919050565b601f8211156200029657600081815260208120601f850160051c81016020861015620002715750805b601f850160051c820191505b8181101562000292578281556001016200027d565b5050505b505050565b81516001600160401b03811115620002b757620002b7620001f6565b620002cf81620002c884546200020c565b8462000248565b602080601f831160018114620003075760008415620002ee5750858301515b600019600386901b1c1916600185901b17855562000292565b600085815260208120601f198616915b82811015620003385788860151825594840194600190910190840162000317565b5085821015620003575787850151600019600388901b60f8161c191681555b5050505050600190811b01905550565b8082028115828204841417620001e257634e487b7160e01b600052601160045260246000fd5b600082620003ab57634e487b7160e01b600052601260045260246000fd5b500490565b61238180620003c06000396000f3fe6080604052600436106102605760003560e01c806370a0823111610144578063a457c2d7116100b6578063d785d5be1161007a578063d785d5be14610735578063dd62ed3e14610755578063ddbf52661461079b578063ea2f0b37146107bb578063f2fde38b146107db578063f7739b5f146107fb57600080fd5b8063a457c2d714610695578063a514a07d146106b5578063a9059cbb146106d5578063a9de975d146106f5578063c1f619081461071557600080fd5b80637d1db4a5116101085780637d1db4a5146105ec5780638824e16e146106025780638da5cb5b146106225780638ec0e9a114610640578063942201841461066057806395d89b411461068057600080fd5b806370a082311461053b578063715018a614610571578063768dc7101461058657806378109e54146105b65780637caefa89146105cc57600080fd5b8063313ce567116101dd578063437823ec116101a1578063437823ec1461048a57806349bd5a5e146104aa5780634a74bb02146104ca578063590f897e146104eb57806367cbd84c146105015780636f0941f61461052157600080fd5b8063313ce567146103f25780633343ab831461041457806336b1a1bc14610434578063395093511461045457806340b9a54b1461047457600080fd5b806318160ddd1161022457806318160ddd146103425780631cdd3be314610361578063220f66961461039157806323b872dd146103b25780632e39c6c6146103d257600080fd5b806306fdde031461026c578063095ea7b3146102975780631282a0a0146102c757806313fad07a146102e95780631694505e1461030a57600080fd5b3661026757005b600080fd5b34801561027857600080fd5b5061028161081b565b60405161028e9190611ee1565b60405180910390f35b3480156102a357600080fd5b506102b76102b2366004611f47565b6108ad565b604051901515815260200161028e565b3480156102d357600080fd5b506102e76102e2366004611f73565b6108c4565b005b3480156102f557600080fd5b50601a546102b790600160b01b900460ff1681565b34801561031657600080fd5b5060195461032a906001600160a01b031681565b6040516001600160a01b03909116815260200161028e565b34801561034e57600080fd5b50600b545b60405190815260200161028e565b34801561036d57600080fd5b506102b761037c366004611f73565b60046020526000908152604090205460ff1681565b34801561039d57600080fd5b50601a546102b790600160a01b900460ff1681565b3480156103be57600080fd5b506102b76103cd366004611f90565b610a80565b3480156103de57600080fd5b506102e76103ed366004611fd1565b610ae9565b3480156103fe57600080fd5b50600a5460405160ff909116815260200161028e565b34801561042057600080fd5b506102b761042f366004611f90565b610b34565b34801561044057600080fd5b506102e761044f366004611f73565b610cac565b34801561046057600080fd5b506102b761046f366004611f47565b610cf8565b34801561048057600080fd5b5061035360105481565b34801561049657600080fd5b506102e76104a5366004611f73565b610d2e565b3480156104b657600080fd5b50601a5461032a906001600160a01b031681565b3480156104d657600080fd5b50601a546102b790600160a81b900460ff1681565b3480156104f757600080fd5b5061035360115481565b34801561050d57600080fd5b506102e761051c366004611fea565b610d7c565b34801561052d57600080fd5b506005546102b79060ff1681565b34801561054757600080fd5b50610353610556366004611f73565b6001600160a01b031660009081526001602052604090205490565b34801561057d57600080fd5b506102e7610dfc565b34801561059257600080fd5b506102b76105a1366004611f73565b60036020526000908152604090205460ff1681565b3480156105c257600080fd5b5061035360155481565b3480156105d857600080fd5b506102e76105e736600461200c565b610e70565b3480156105f857600080fd5b5061035360175481565b34801561060e57600080fd5b506102e761061d366004611f73565b610eb6565b34801561062e57600080fd5b506000546001600160a01b031661032a565b34801561064c57600080fd5b506102e761065b36600461202f565b610f25565b34801561066c57600080fd5b506102e761067b366004611fd1565b611030565b34801561068c57600080fd5b5061028161107b565b3480156106a157600080fd5b506102b76106b0366004611f47565b61108a565b3480156106c157600080fd5b506102e76106d03660046120b2565b6110d9565b3480156106e157600080fd5b506102b76106f0366004611f47565b611121565b34801561070157600080fd5b506102e761071036600461202f565b61112e565b34801561072157600080fd5b506102e76107303660046120b2565b611231565b34801561074157600080fd5b506102e7610750366004611f73565b61126e565b34801561076157600080fd5b506103536107703660046120cf565b6001600160a01b03918216600090815260026020908152604080832093909416825291909152205490565b3480156107a757600080fd5b506102e76107b6366004611fd1565b6112ba565b3480156107c757600080fd5b506102e76107d6366004611f73565b611375565b3480156107e757600080fd5b506102e76107f6366004611f73565b6113c0565b34801561080757600080fd5b506102e76108163660046120b2565b6114aa565b60606008805461082a90612108565b80601f016020809104026020016040519081016040528092919081815260200182805461085690612108565b80156108a35780601f10610878576101008083540402835291602001916108a3565b820191906000526020600020905b81548152906001019060200180831161088657829003601f168201915b5050505050905090565b60006108ba33848461154b565b5060015b92915050565b6000546001600160a01b031633146108f75760405162461bcd60e51b81526004016108ee90612142565b60405180910390fd5b6000819050806001600160a01b031663c45a01556040518163ffffffff1660e01b8152600401602060405180830381865afa15801561093a573d6000803e3d6000fd5b505050506040513d601f19601f8201168201806040525081019061095e9190612177565b6001600160a01b031663b2e916d630836001600160a01b031663ad5c46486040518163ffffffff1660e01b8152600401602060405180830381865afa1580156109ab573d6000803e3d6000fd5b505050506040513d601f19601f820116820180604052508101906109cf9190612177565b6040516001600160e01b031960e085901b1681526001600160a01b0392831660048201529116602482015260fa6044820152600060648201526084016020604051808303816000875af1158015610a2a573d6000803e3d6000fd5b505050506040513d601f19601f82011682018060405250810190610a4e9190612177565b601a80546001600160a01b039283166001600160a01b0319918216179091556019805493909216921691909117905550565b6000610a8d84848461160c565b610adf8433610ada856040518060600160405280602881526020016122ff602891396001600160a01b038a1660009081526002602090815260408083203384529091529020549190611af4565b61154b565b5060019392505050565b6000546001600160a01b03163314610b135760405162461bcd60e51b81526004016108ee90612142565b61271081600b54610b2491906121aa565b610b2e91906121c1565b60175550565b600080546001600160a01b03163314610b5f5760405162461bcd60e51b81526004016108ee90612142565b306001600160a01b03851603610bb75760405162461bcd60e51b815260206004820152601b60248201527f43616e206e6f742072656d6f7665206e617469766520746f6b656e000000000060448201526064016108ee565b6040516370a0823160e01b81523060048201526000906001600160a01b038616906370a0823190602401602060405180830381865afa158015610bfe573d6000803e3d6000fd5b505050506040513d601f19601f82011682018060405250810190610c2291906121e3565b905080831115610c30578092505b60405163a9059cbb60e01b81526001600160a01b0385811660048301526024820185905286169063a9059cbb906044016020604051808303816000875af1158015610c7f573d6000803e3d6000fd5b505050506040513d601f19601f82011682018060405250810190610ca391906121fc565b95945050505050565b6000546001600160a01b03163314610cd65760405162461bcd60e51b81526004016108ee90612142565b601980546001600160a01b0319166001600160a01b0392909216919091179055565b3360008181526002602090815260408083206001600160a01b038716845290915281205490916108ba918590610ada9086611b20565b6000546001600160a01b03163314610d585760405162461bcd60e51b81526004016108ee90612142565b6001600160a01b03166000908152600360205260409020805460ff19166001179055565b6000546001600160a01b03163314610da65760405162461bcd60e51b81526004016108ee90612142565b600e54610db38284612219565b1115610df45760405162461bcd60e51b815260206004820152601060248201526f46656520697320746f6f20686967682160801b60448201526064016108ee565b601155601055565b6000546001600160a01b03163314610e265760405162461bcd60e51b81526004016108ee90612142565b600080546040516001600160a01b03909116907f8be0079c531659141344cd1fd0a4f28419497f9722a3daafe3b4186f6b6457e0908390a3600080546001600160a01b0319169055565b6000546001600160a01b03163314610e9a5760405162461bcd60e51b81526004016108ee90612142565b600d805460ff9092166101000261ff0019909216919091179055565b6000546001600160a01b03163314610ee05760405162461bcd60e51b81526004016108ee90612142565b60058054610100600160a81b0319166101006001600160a01b03938416810291909117918290559004166000908152600360205260409020805460ff19166001179055565b6000546001600160a01b03163314610f4f5760405162461bcd60e51b81526004016108ee90612142565b60008060005b83811015611029575a821015611019575a925060046000868684818110610f7e57610f7e61222c565b9050602002016020810190610f939190611f73565b6001600160a01b0316815260208101919091526040016000205460ff161561100b57600060046000878785818110610fcd57610fcd61222c565b9050602002016020810190610fe29190611f73565b6001600160a01b031681526020810191909152604001600020805460ff19169115159190911790555b5a6110169084612242565b91505b61102281612255565b9050610f55565b5050505050565b6000546001600160a01b0316331461105a5760405162461bcd60e51b81526004016108ee90612142565b61271081600b5461106b91906121aa565b61107591906121c1565b60155550565b60606009805461082a90612108565b60006108ba3384610ada85604051806060016040528060258152602001612327602591393360009081526002602090815260408083206001600160a01b038d1684529091529020549190611af4565b6000546001600160a01b031633146111035760405162461bcd60e51b81526004016108ee90612142565b601a8054911515600160b01b0260ff60b01b19909216919091179055565b60006108ba33848461160c565b6000546001600160a01b031633146111585760405162461bcd60e51b81526004016108ee90612142565b60008060005b83811015611029575a821015611221575a9250600460008686848181106111875761118761222c565b905060200201602081019061119c9190611f73565b6001600160a01b0316815260208101919091526040016000205460ff16611213576001600460008787858181106111d5576111d561222c565b90506020020160208101906111ea9190611f73565b6001600160a01b031681526020810191909152604001600020805460ff19169115159190911790555b5a61121e9084612242565b91505b61122a81612255565b905061115e565b6000546001600160a01b0316331461125b5760405162461bcd60e51b81526004016108ee90612142565b6005805460ff1916911515919091179055565b6000546001600160a01b031633146112985760405162461bcd60e51b81526004016108ee90612142565b601a80546001600160a01b0319166001600160a01b0392909216919091179055565b6000546001600160a01b031633146112e45760405162461bcd60e51b81526004016108ee90612142565b601a54600160a01b900460ff161561133e5760405162461bcd60e51b815260206004820181905260248201527f43757272656e746c792070726f63657373696e672c20747279206c617465722e60448201526064016108ee565b3060009081526001602052604081205490606461135b84846121aa565b61136591906121c1565b905061137081611b2c565b505050565b6000546001600160a01b0316331461139f5760405162461bcd60e51b81526004016108ee90612142565b6001600160a01b03166000908152600360205260409020805460ff19169055565b6000546001600160a01b031633146113ea5760405162461bcd60e51b81526004016108ee90612142565b6001600160a01b03811661144f5760405162461bcd60e51b815260206004820152602660248201527f4f776e61626c653a206e6577206f776e657220697320746865207a65726f206160448201526564647265737360d01b60648201526084016108ee565b600080546040516001600160a01b03808516939216917f8be0079c531659141344cd1fd0a4f28419497f9722a3daafe3b4186f6b6457e091a3600080546001600160a01b0319166001600160a01b0392909216919091179055565b6000546001600160a01b031633146114d45760405162461bcd60e51b81526004016108ee90612142565b601a8054821515600160a81b0260ff60a81b199091161790556040517f53726dfcaf90650aa7eb35524f4d3220f07413c8d6cb404cc8c18bf5591bc1599061152190831515815260200190565b60405180910390a150565b600061153882846121aa565b9392505050565b600061153882846121c1565b6001600160a01b0383161580159061156b57506001600160a01b03821615155b6115ab5760405162461bcd60e51b81526020600482015260116024820152704552523a207a65726f206164647265737360781b60448201526064016108ee565b6001600160a01b0383811660008181526002602090815260408083209487168084529482529182902085905590518481527f8c5be1e5ebec7d5bd14f71427d1e84f3dd0314c0f7b2291e5b200ac8c7c3b925910160405180910390a3505050565b6000546001600160a01b0383811691161480159061163d57506005546001600160a01b038381166101009092041614155b801561165257506001600160a01b0382163014155b801561166c5750601a546001600160a01b03838116911614155b801561168657506006546001600160a01b03838116911614155b80156116a057506000546001600160a01b03848116911614155b1561175b576001600160a01b0382166000908152600160205260409020546015546116cb8383612219565b11156117595760405162461bcd60e51b815260206004820152605160248201527f596f752061726520747279696e6720746f2062757920746f6f206d616e79207460448201527f6f6b656e732e20596f752068617665207265616368656420746865206c696d696064820152703a103337b91037b732903bb0b63632ba1760791b608482015260a4016108ee565b505b6000546001600160a01b0384811691161480159061178757506000546001600160a01b03838116911614155b15611804576017548111156118045760405162461bcd60e51b815260206004820152603a60248201527f596f752061726520747279696e6720746f20627579206d6f7265207468616e2060448201527f746865206d6178207472616e73616374696f6e206c696d69742e00000000000060648201526084016108ee565b60055460ff16156118b8576001600160a01b03831660009081526004602052604090205460ff1615801561185157506001600160a01b03821660009081526004602052604090205460ff16155b6118b85760405162461bcd60e51b815260206004820152603260248201527f54686973206164647265737320697320626c61636b6c69737465642e205472616044820152713739b0b1ba34b7b7103932bb32b93a32b21760711b60648201526084016108ee565b6001600160a01b038316158015906118d857506001600160a01b03821615155b61191c5760405162461bcd60e51b81526020600482015260156024820152744552523a205573696e67203020616464726573732160581b60448201526064016108ee565b6000811161197a5760405162461bcd60e51b815260206004820152602560248201527f546f6b656e2076616c7565206d75737420626520686967686572207468616e206044820152643d32b9379760d91b60648201526084016108ee565b600d5460ff610100820481169116108015906119a05750601a54600160a01b900460ff16155b80156119ba5750601a546001600160a01b03848116911614155b80156119cf5750601a54600160a81b900460ff165b15611a0e57600d805460ff19169055306000908152600160205260409020546017548111156119fd57506017545b8015611a0c57611a0c81611b2c565b505b6001600160a01b03831660009081526003602052604090205460019060ff1680611a5057506001600160a01b03831660009081526003602052604090205460ff165b80611a975750601a54600160b01b900460ff168015611a7d5750601a546001600160a01b03858116911614155b8015611a975750601a546001600160a01b03848116911614155b15611aa457506000611ae2565b601a546001600160a01b0390811690851603611ac557601054600f55611ae2565b601a546001600160a01b0390811690841603611ae257601154600f555b611aee84848484611b76565b50505050565b60008184841115611b185760405162461bcd60e51b81526004016108ee9190611ee1565b505050900390565b60006115388284612219565b601a805460ff60a01b1916600160a01b179055611b4881611bdc565b6005544790611b659061010090046001600160a01b031682611d36565b5050601a805460ff60a01b19169055565b80611b8857611b83611d6c565b611bb5565b600d805460ff16906000611b9b8361226e565b91906101000a81548160ff021916908360ff160217905550505b611bc0848484611db1565b80611aee57611aee601254600f55601354601055601454601155565b6040805160028082526060820183526000926020830190803683370190505090503081600081518110611c1157611c1161222c565b6001600160a01b03928316602091820292909201810191909152601954604080516315ab88c960e31b81529051919093169263ad5c46489260048083019391928290030181865afa158015611c6a573d6000803e3d6000fd5b505050506040513d601f19601f82011682018060405250810190611c8e9190612177565b81600181518110611ca157611ca161222c565b6001600160a01b039283166020918202929092010152601954611cc7913091168461154b565b60195460405163791ac94760e01b81526001600160a01b039091169063791ac94790611d0090859060009086903090429060040161228d565b600060405180830381600087803b158015611d1a57600080fd5b505af1158015611d2e573d6000803e3d6000fd5b505050505050565b6040516001600160a01b0383169082156108fc029083906000818181858888f19350505050158015611370573d6000803e3d6000fd5b600f54158015611d7c5750601054155b8015611d885750601154155b15611d8f57565b6010805460135560118054601455600f80546012556000928390559082905555565b600080611dbd83611e9d565b6001600160a01b0387166000908152600160205260409020549193509150611de59084611ed5565b6001600160a01b038087166000908152600160205260408082209390935590861681522054611e149083611b20565b6001600160a01b038516600090815260016020526040808220929092553081522054611e409082611b20565b3060009081526001602090815260409182902092909255518381526001600160a01b0386811692908816917fddf252ad1be2c89b69c2b068fc378daa952ba7f163c4a11628f55a4df523b3ef910160405180910390a35050505050565b60008060006064600f5485611eb291906121aa565b611ebc91906121c1565b90506000611eca8583611ed5565b959194509092505050565b60006115388284612242565b600060208083528351808285015260005b81811015611f0e57858101830151858201604001528201611ef2565b506000604082860101526040601f19601f8301168501019250505092915050565b6001600160a01b0381168114611f4457600080fd5b50565b60008060408385031215611f5a57600080fd5b8235611f6581611f2f565b946020939093013593505050565b600060208284031215611f8557600080fd5b813561153881611f2f565b600080600060608486031215611fa557600080fd5b8335611fb081611f2f565b92506020840135611fc081611f2f565b929592945050506040919091013590565b600060208284031215611fe357600080fd5b5035919050565b60008060408385031215611ffd57600080fd5b50508035926020909101359150565b60006020828403121561201e57600080fd5b813560ff8116811461153857600080fd5b6000806020838503121561204257600080fd5b823567ffffffffffffffff8082111561205a57600080fd5b818501915085601f83011261206e57600080fd5b81358181111561207d57600080fd5b8660208260051b850101111561209257600080fd5b60209290920196919550909350505050565b8015158114611f4457600080fd5b6000602082840312156120c457600080fd5b8135611538816120a4565b600080604083850312156120e257600080fd5b82356120ed81611f2f565b915060208301356120fd81611f2f565b809150509250929050565b600181811c9082168061211c57607f821691505b60208210810361213c57634e487b7160e01b600052602260045260246000fd5b50919050565b6020808252818101527f4f776e61626c653a2063616c6c6572206973206e6f7420746865206f776e6572604082015260600190565b60006020828403121561218957600080fd5b815161153881611f2f565b634e487b7160e01b600052601160045260246000fd5b80820281158282048414176108be576108be612194565b6000826121de57634e487b7160e01b600052601260045260246000fd5b500490565b6000602082840312156121f557600080fd5b5051919050565b60006020828403121561220e57600080fd5b8151611538816120a4565b808201808211156108be576108be612194565b634e487b7160e01b600052603260045260246000fd5b818103818111156108be576108be612194565b60006001820161226757612267612194565b5060010190565b600060ff821660ff810361228457612284612194565b60010192915050565b600060a082018783526020878185015260a0604085015281875180845260c086019150828901935060005b818110156122dd5784516001600160a01b0316835293830193918301916001016122b8565b50506001600160a01b0396909616606085015250505060800152939250505056fe45524332303a207472616e7366657220616d6f756e74206578636565647320616c6c6f77616e636545524332303a2064656372656173656420616c6c6f77616e63652062656c6f77207a65726fa26469706673582212203df23f101ebdbac0407f2ef5a7700f1c6b3e076a483e540f58f830c9bbeb91e764736f6c63430008110033",
  "linkReferences": {},
  "deployedLinkReferences": {}
}