{
  "_format": "hh-sol-artifact-1",
  "contractName": "Deelance_PreSale",
  "sourceName": "contracts/presale.sol",
  "abi": [
    {
      "inputs": [],
      "stateMutability": "nonpayable",
      "type": "constructor"
    },
    {
      "anonymous": false,
      "inputs": [
        {
          "indexed": true,
          "internalType": "address",
          "name": "previousOwner",
          "type": "address"
        },
        {
          "indexed": true,
          "internalType": "address",
          "name": "newOwner",
          "type": "address"
        }
      ],
      "name": "OwnershipTransferred",
      "type": "event"
    },
    {
      "anonymous": false,
      "inputs": [
        {
          "indexed": false,
          "internalType": "address",
          "name": "account",
          "type": "address"
        }
      ],
      "name": "Paused",
      "type": "event"
    },
    {
      "anonymous": false,
      "inputs": [
        {
          "indexed": true,
          "internalType": "address",
          "name": "user",
          "type": "address"
        },
        {
          "indexed": true,
          "internalType": "uint256",
          "name": "tokensBought",
          "type": "uint256"
        },
        {
          "indexed": true,
          "internalType": "address",
          "name": "purchaseToken",
          "type": "address"
        },
        {
          "indexed": false,
          "internalType": "uint256",
          "name": "amountPaid",
          "type": "uint256"
        },
        {
          "indexed": false,
          "internalType": "uint256",
          "name": "timestamp",
          "type": "uint256"
        }
      ],
      "name": "TokensBought",
      "type": "event"
    },
    {
      "anonymous": false,
      "inputs": [
        {
          "indexed": true,
          "internalType": "address",
          "name": "user",
          "type": "address"
        },
        {
          "indexed": false,
          "internalType": "uint256",
          "name": "amount",
          "type": "uint256"
        },
        {
          "indexed": false,
          "internalType": "uint256",
          "name": "timestamp",
          "type": "uint256"
        }
      ],
      "name": "TokensClaimed",
      "type": "event"
    },
    {
      "anonymous": false,
      "inputs": [
        {
          "indexed": false,
          "internalType": "address",
          "name": "account",
          "type": "address"
        }
      ],
      "name": "Unpaused",
      "type": "event"
    },
    {
      "inputs": [],
      "name": "baseDecimals",
      "outputs": [
        {
          "internalType": "uint256",
          "name": "",
          "type": "uint256"
        }
      ],
      "stateMutability": "view",
      "type": "function"
    },
    {
      "inputs": [
        {
          "internalType": "uint256",
          "name": "amount",
          "type": "uint256"
        }
      ],
      "name": "buyWithETH",
      "outputs": [],
      "stateMutability": "payable",
      "type": "function"
    },
    {
      "inputs": [
        {
          "internalType": "uint256",
          "name": "amount",
          "type": "uint256"
        },
        {
          "internalType": "uint256",
          "name": "purchaseToken",
          "type": "uint256"
        }
      ],
      "name": "buyWithUSD",
      "outputs": [],
      "stateMutability": "nonpayable",
      "type": "function"
    },
    {
      "inputs": [
        {
          "internalType": "uint256",
          "name": "_claimStart",
          "type": "uint256"
        }
      ],
      "name": "changeClaimStart",
      "outputs": [],
      "stateMutability": "nonpayable",
      "type": "function"
    },
    {
      "inputs": [
        {
          "internalType": "uint256",
          "name": "_amount",
          "type": "uint256"
        }
      ],
      "name": "changeMinimumBuyAmount",
      "outputs": [],
      "stateMutability": "nonpayable",
      "type": "function"
    },
    {
      "inputs": [
        {
          "internalType": "uint256",
          "name": "_startTime",
          "type": "uint256"
        },
        {
          "internalType": "uint256",
          "name": "_endTime",
          "type": "uint256"
        }
      ],
      "name": "changeSaleTimes",
      "outputs": [],
      "stateMutability": "nonpayable",
      "type": "function"
    },
    {
      "inputs": [
        {
          "internalType": "uint256",
          "name": "_hardcapSize",
          "type": "uint256"
        }
      ],
      "name": "changehardcapSize",
      "outputs": [],
      "stateMutability": "nonpayable",
      "type": "function"
    },
    {
      "inputs": [],
      "name": "claim",
      "outputs": [],
      "stateMutability": "nonpayable",
      "type": "function"
    },
    {
      "inputs": [],
      "name": "claimStart",
      "outputs": [
        {
          "internalType": "uint256",
          "name": "",
          "type": "uint256"
        }
      ],
      "stateMutability": "view",
      "type": "function"
    },
    {
      "inputs": [],
      "name": "currentStep",
      "outputs": [
        {
          "internalType": "uint256",
          "name": "",
          "type": "uint256"
        }
      ],
      "stateMutability": "view",
      "type": "function"
    },
    {
      "inputs": [],
      "name": "endTime",
      "outputs": [
        {
          "internalType": "uint256",
          "name": "",
          "type": "uint256"
        }
      ],
      "stateMutability": "view",
      "type": "function"
    },
    {
      "inputs": [
        {
          "internalType": "uint256",
          "name": "amount",
          "type": "uint256"
        }
      ],
      "name": "getETHAmount",
      "outputs": [
        {
          "internalType": "uint256",
          "name": "ETHAmount",
          "type": "uint256"
        }
      ],
      "stateMutability": "view",
      "type": "function"
    },
    {
      "inputs": [],
      "name": "getETHLatestPrice",
      "outputs": [
        {
          "internalType": "uint256",
          "name": "",
          "type": "uint256"
        }
      ],
      "stateMutability": "view",
      "type": "function"
    },
    {
      "inputs": [
        {
          "internalType": "uint256",
          "name": "amount",
          "type": "uint256"
        },
        {
          "internalType": "uint256",
          "name": "purchaseToken",
          "type": "uint256"
        }
      ],
      "name": "getTokenAmount",
      "outputs": [
        {
          "internalType": "uint256",
          "name": "usdPrice",
          "type": "uint256"
        }
      ],
      "stateMutability": "view",
      "type": "function"
    },
    {
      "inputs": [],
      "name": "hardcapSize",
      "outputs": [
        {
          "internalType": "uint256",
          "name": "",
          "type": "uint256"
        }
      ],
      "stateMutability": "view",
      "type": "function"
    },
    {
      "inputs": [],
      "name": "hardcapsizeUSD",
      "outputs": [
        {
          "internalType": "uint256",
          "name": "",
          "type": "uint256"
        }
      ],
      "stateMutability": "view",
      "type": "function"
    },
    {
      "inputs": [
        {
          "internalType": "address",
          "name": "",
          "type": "address"
        }
      ],
      "name": "hasClaimed",
      "outputs": [
        {
          "internalType": "bool",
          "name": "",
          "type": "bool"
        }
      ],
      "stateMutability": "view",
      "type": "function"
    },
    {
      "inputs": [],
      "name": "inSale",
      "outputs": [
        {
          "internalType": "uint256",
          "name": "",
          "type": "uint256"
        }
      ],
      "stateMutability": "view",
      "type": "function"
    },
    {
      "inputs": [],
      "name": "inSaleUSDvalue",
      "outputs": [
        {
          "internalType": "uint256",
          "name": "",
          "type": "uint256"
        }
      ],
      "stateMutability": "view",
      "type": "function"
    },
    {
      "inputs": [],
      "name": "isPresalePaused",
      "outputs": [
        {
          "internalType": "bool",
          "name": "",
          "type": "bool"
        }
      ],
      "stateMutability": "view",
      "type": "function"
    },
    {
      "inputs": [],
      "name": "minimumBuyAmount",
      "outputs": [
        {
          "internalType": "uint256",
          "name": "",
          "type": "uint256"
        }
      ],
      "stateMutability": "view",
      "type": "function"
    },
    {
      "inputs": [],
      "name": "nextPrice",
      "outputs": [
        {
          "internalType": "uint256",
          "name": "",
          "type": "uint256"
        }
      ],
      "stateMutability": "view",
      "type": "function"
    },
    {
      "inputs": [],
      "name": "owner",
      "outputs": [
        {
          "internalType": "address",
          "name": "",
          "type": "address"
        }
      ],
      "stateMutability": "view",
      "type": "function"
    },
    {
      "inputs": [],
      "name": "pause",
      "outputs": [],
      "stateMutability": "nonpayable",
      "type": "function"
    },
    {
      "inputs": [],
      "name": "paused",
      "outputs": [
        {
          "internalType": "bool",
          "name": "",
          "type": "bool"
        }
      ],
      "stateMutability": "view",
      "type": "function"
    },
    {
      "inputs": [],
      "name": "renounceOwnership",
      "outputs": [],
      "stateMutability": "nonpayable",
      "type": "function"
    },
    {
      "inputs": [],
      "name": "salePrice",
      "outputs": [
        {
          "internalType": "uint256",
          "name": "",
          "type": "uint256"
        }
      ],
      "stateMutability": "view",
      "type": "function"
    },
    {
      "inputs": [],
      "name": "saleToken",
      "outputs": [
        {
          "internalType": "address",
          "name": "",
          "type": "address"
        }
      ],
      "stateMutability": "view",
      "type": "function"
    },
    {
      "inputs": [
        {
          "internalType": "address",
          "name": "_dAddress",
          "type": "address"
        }
      ],
      "name": "setDaddress",
      "outputs": [],
      "stateMutability": "nonpayable",
      "type": "function"
    },
    {
      "inputs": [
        {
          "internalType": "uint256",
          "name": "_value",
          "type": "uint256"
        }
      ],
      "name": "setSalePrice",
      "outputs": [],
      "stateMutability": "nonpayable",
      "type": "function"
    },
    {
      "inputs": [
        {
          "internalType": "uint256",
          "name": "_value",
          "type": "uint256"
        }
      ],
      "name": "settotalTokensForPresale",
      "outputs": [],
      "stateMutability": "nonpayable",
      "type": "function"
    },
    {
      "inputs": [
        {
          "internalType": "uint256",
          "name": "_value",
          "type": "uint256"
        }
      ],
      "name": "settotalUsdValueForPresale",
      "outputs": [],
      "stateMutability": "nonpayable",
      "type": "function"
    },
    {
      "inputs": [
        {
          "internalType": "uint256",
          "name": "_claimStart",
          "type": "uint256"
        },
        {
          "internalType": "uint256",
          "name": "tokensAmount",
          "type": "uint256"
        },
        {
          "internalType": "address",
          "name": "_saleToken",
          "type": "address"
        }
      ],
      "name": "startClaim",
      "outputs": [],
      "stateMutability": "nonpayable",
      "type": "function"
    },
    {
      "inputs": [],
      "name": "startTime",
      "outputs": [
        {
          "internalType": "uint256",
          "name": "",
          "type": "uint256"
        }
      ],
      "stateMutability": "view",
      "type": "function"
    },
    {
      "inputs": [],
      "name": "totalTokensForPresale",
      "outputs": [
        {
          "internalType": "uint256",
          "name": "",
          "type": "uint256"
        }
      ],
      "stateMutability": "view",
      "type": "function"
    },
    {
      "inputs": [],
      "name": "totalUsdValueForPresale",
      "outputs": [
        {
          "internalType": "uint256",
          "name": "",
          "type": "uint256"
        }
      ],
      "stateMutability": "view",
      "type": "function"
    },
    {
      "inputs": [
        {
          "internalType": "address",
          "name": "newOwner",
          "type": "address"
        }
      ],
      "name": "transferOwnership",
      "outputs": [],
      "stateMutability": "nonpayable",
      "type": "function"
    },
    {
      "inputs": [],
      "name": "uniswapV2Router",
      "outputs": [
        {
          "internalType": "contract IUniswapV2Router02",
          "name": "",
          "type": "address"
        }
      ],
      "stateMutability": "view",
      "type": "function"
    },
    {
      "inputs": [],
      "name": "unpause",
      "outputs": [],
      "stateMutability": "nonpayable",
      "type": "function"
    },
    {
      "inputs": [
        {
          "internalType": "address",
          "name": "",
          "type": "address"
        }
      ],
      "name": "userDeposits",
      "outputs": [
        {
          "internalType": "uint256",
          "name": "",
          "type": "uint256"
        }
      ],
      "stateMutability": "view",
      "type": "function"
    },
    {
      "inputs": [],
      "name": "withdrawETHs",
      "outputs": [],
      "stateMutability": "nonpayable",
      "type": "function"
    },
    {
      "inputs": [
        {
          "internalType": "address",
          "name": "token",
          "type": "address"
        },
        {
          "internalType": "uint256",
          "name": "amount",
          "type": "uint256"
        }
      ],
      "name": "withdrawTokens",
      "outputs": [],
      "stateMutability": "nonpayable",
      "type": "function"
    }
  ],
  "bytecode": "0x60806040523480156200001157600080fd5b506001600055620000223362000133565b6001805460ff60a01b19169055600280546001600160a01b031916737a250d5630b4cf539739df2c5dacb4c659f2488d908117909155670de0b6b3a7640000600e55667c5850872380006003556311b3dc40600a818155600582905560075560085542600b81905562000099906276a70062000288565b600c55601380546001600160a01b0319908116735f4ec3df9cbd43714fe2740f5e3616155c5b841917909155601680548216730ae9285d8c67956639b82bafa08a03156379408c179055601480548216737a250d5630b4cf539739df2c5dacb4c659f2488d1790556015805490911673dac17f958d2ee523a2206206994597c13d831ec71790556200012c600162000185565b50620002b0565b600180546001600160a01b038381166001600160a01b0319831681179093556040519116919082907f8be0079c531659141344cd1fd0a4f28419497f9722a3daafe3b4186f6b6457e090600090a35050565b60118190556001819003620001c857667c585087238000600355668e1bc9bf040000600455622dc6c060108190556006556a027b46536c66c8e300000060095550565b806002036200020557668e1bc9bf040000600355669fdf42f6e48000600455623d090060108190556006556a034f086f3b33b68400000060095550565b806003036200023c57669fdf42f6e480006003819055600455624c4b4060108190556006556a0422ca8b0a00a42500000060095550565b60405162461bcd60e51b815260206004820152601960248201527f50726573616c652069742773206f7665722c20736f7272792100000000000000604482015260640160405180910390fd5b80820180821115620002aa57634e487b7160e01b600052601160045260246000fd5b92915050565b61224480620002c06000396000f3fe6080604052600436106102515760003560e01c806378e9792511610139578063b32c7dc1116100b6578063e9b8c8961161007a578063e9b8c8961461066a578063ef46b2ab1461068a578063ef9089d6146106aa578063f04d688f146106c0578063f2fde38b146106d6578063f51f96dd146106f657600080fd5b8063b32c7dc1146105df578063bc755ec0146105f4578063dfc7bf6d14610614578063e3c3bb661461062a578063e985e3671461064a57600080fd5b806394dc9cf3116100fd57806394dc9cf31461056157806394e992561461057457806399f0293514610589578063a1bbc6a7146105a9578063b2caaebd146105bf57600080fd5b806378e97925146104ec5780638008d5bc146105025780638456cb59146105185780638d6a2ed51461052d5780638da5cb5b1461054357600080fd5b80631e8f0d39116101d257806343a649e31161019657806343a649e31461043d5780634e71d92d1461045d5780635bc34f71146104725780635c975abb14610488578063715018a6146104a757806373b2e80e146104bc57600080fd5b80631e8f0d39146103bc5780632e5afcef146103e65780633197cbb6146103fc57806333f76178146104125780633f4ba83a1461042857600080fd5b80630bc1236e116102195780630bc1236e1461030e5780630dc9c8381461032e57806311b3840e1461034e5780631694505e146103645780631919fed71461039c57600080fd5b806305f7de4b1461025657806306b091f91461027f57806307f18082146102a157806308677efa146102c15780630ba36dcd146102e1575b600080fd5b34801561026257600080fd5b5061026c60095481565b6040519081526020015b60405180910390f35b34801561028b57600080fd5b5061029f61029a366004611fa9565b61070c565b005b3480156102ad57600080fd5b5061029f6102bc366004611fd3565b6107ab565b3480156102cd57600080fd5b5061029f6102dc366004611fd3565b610898565b3480156102ed57600080fd5b5061026c6102fc366004611fec565b60176020526000908152604090205481565b34801561031a57600080fd5b5061026c610329366004612007565b6108f4565b34801561033a57600080fd5b5061029f610349366004612007565b61092b565b34801561035a57600080fd5b5061026c60055481565b34801561037057600080fd5b50600254610384906001600160a01b031681565b6040516001600160a01b039091168152602001610276565b3480156103a857600080fd5b5061029f6103b7366004611fd3565b610a25565b3480156103c857600080fd5b50600f546103d69060ff1681565b6040519015158152602001610276565b3480156103f257600080fd5b5061026c60105481565b34801561040857600080fd5b5061026c600c5481565b34801561041e57600080fd5b5061026c600e5481565b34801561043457600080fd5b5061029f610a32565b34801561044957600080fd5b5061029f610458366004611fd3565b610a4e565b34801561046957600080fd5b5061029f610a90565b34801561047e57600080fd5b5061026c60115481565b34801561049457600080fd5b50600154600160a01b900460ff166103d6565b3480156104b357600080fd5b5061029f610cbc565b3480156104c857600080fd5b506103d66104d7366004611fec565b60186020526000908152604090205460ff1681565b3480156104f857600080fd5b5061026c600b5481565b34801561050e57600080fd5b5061026c60085481565b34801561052457600080fd5b5061029f610cd0565b34801561053957600080fd5b5061026c60075481565b34801561054f57600080fd5b506001546001600160a01b0316610384565b61029f61056f366004611fd3565b610cef565b34801561058057600080fd5b5061026c6110a5565b34801561059557600080fd5b5061029f6105a4366004612007565b611136565b3480156105b557600080fd5b5061026c600a5481565b3480156105cb57600080fd5b5061029f6105da366004612029565b611605565b3480156105eb57600080fd5b5061029f61179e565b34801561060057600080fd5b5061029f61060f366004611fec565b611852565b34801561062057600080fd5b5061026c60065481565b34801561063657600080fd5b5061029f610645366004611fd3565b61187c565b34801561065657600080fd5b50601254610384906001600160a01b031681565b34801561067657600080fd5b5061029f610685366004611fd3565b6118e7565b34801561069657600080fd5b5061026c6106a5366004611fd3565b611918565b3480156106b657600080fd5b5061026c60045481565b3480156106cc57600080fd5b5061026c600d5481565b3480156106e257600080fd5b5061029f6106f1366004611fec565b611951565b34801561070257600080fd5b5061026c60035481565b6107146119c7565b816001600160a01b031663a9059cbb6107356001546001600160a01b031690565b6040516001600160e01b031960e084901b1681526001600160a01b039091166004820152602481018490526044016020604051808303816000875af1158015610782573d6000803e3d6000fd5b505050506040513d601f19601f820116820180604052508101906107a6919061205e565b505050565b6107b36119c7565b6000600d541161080a5760405162461bcd60e51b815260206004820152601a60248201527f496e697469616c20636c61696d2064617461206e6f742073657400000000000060448201526064015b60405180910390fd5b600c54811161084e5760405162461bcd60e51b815260206004820152601060248201526f53616c6520696e2070726f677265737360801b6044820152606401610801565b4281116108935760405162461bcd60e51b815260206004820152601360248201527210db185a5b481cdd185c9d081a5b881c185cdd606a1b6044820152606401610801565b600d55565b6108a06119c7565b6000811180156108b257506007548114155b6108ef5760405162461bcd60e51b815260206004820152600e60248201526d125b9d985b1a5908185b5bdd5b9d60921b6044820152606401610801565b600755565b60006108ff83611a21565b905081158061090e5750816001145b156109255761092264e8d4a5100082612096565b90505b92915050565b6109336119c7565b60008211806109425750600081115b6109835760405162461bcd60e51b8152602060048201526012602482015271496e76616c696420706172616d657465727360701b6044820152606401610801565b81156109d2578142106109cc5760405162461bcd60e51b815260206004820152601160248201527014d85b19481d1a5b59481a5b881c185cdd607a1b6044820152606401610801565b600b8290555b8015610a2157600b548111610a1b5760405162461bcd60e51b815260206004820152600f60248201526e496e76616c696420656e6454696d6560881b6044820152606401610801565b600c8190555b5050565b610a2d6119c7565b600355565b610a3a6119c7565b610a42611c0b565b600f805460ff19169055565b610a566119c7565b6006546000610a6582806120b8565b9050610a7981670de0b6b3a76400006120cb565b600954610a8691906120e2565b6009555050600655565b610a98611c60565b6012546001600160a01b0316610ae75760405162461bcd60e51b815260206004820152601460248201527314d85b19481d1bdad95b881b9bdd08185919195960621b6044820152606401610801565b600d54421015610b395760405162461bcd60e51b815260206004820152601960248201527f436c61696d20686173206e6f74207374617274656420796574000000000000006044820152606401610801565b3360009081526018602052604090205460ff1615610b8b5760405162461bcd60e51b815260206004820152600f60248201526e105b1c9958591e4818db185a5b5959608a1b6044820152606401610801565b336000908152601860209081526040808320805460ff19166001179055601790915290205480610bf05760405162461bcd60e51b815260206004820152601060248201526f4e6f7468696e6720746f20636c61696d60801b6044820152606401610801565b336000818152601760209081526040808320839055601254815163a9059cbb60e01b815260048101959095526024850186905290516001600160a01b039091169363a9059cbb93604480830194939283900301908290875af1158015610c5a573d6000803e3d6000fd5b505050506040513d601f19601f82011682018060405250810190610c7e919061205e565b506040805182815242602082015233917f9923b4306c6c030f2bdfbf156517d5983b87e15b96176da122cd4f2effa4ba7b910160405180910390a250565b610cc46119c7565b610cce6000611cad565b565b610cd86119c7565b610ce0611cff565b600f805460ff19166001179055565b60165481906001600160a01b03163314610a2157600b544210158015610d175750600c544211155b610d5d5760405162461bcd60e51b8152602060048201526017602482015276496e76616c69642074696d6520666f7220627579696e6760481b6044820152606401610801565b600754811015610da25760405162461bcd60e51b815260206004820152601060248201526f151bdbc81cdb585b1b08185b5bdd5b9d60821b6044820152606401610801565b600081118015610db457506008548111155b610df65760405162461bcd60e51b8152602060048201526013602482015272125b9d985b1a59081cd85b1948185b5bdd5b9d606a1b6044820152606401610801565b610dfe611c60565b610e06611d42565b6000610e1183611a21565b905080158015610e2357506011546003145b15610e405760405162461bcd60e51b8152600401610801906120f5565b6000610e4a6110a5565b610e5c83670de0b6b3a76400006120cb565b610e669190612096565b905080341015610ea75760405162461bcd60e51b815260206004820152600c60248201526b13195cdcc81c185e5b595b9d60a21b6044820152606401610801565b6000610eb382346120b8565b9050600954831115610f6f57600060095484610ecf91906120b8565b9050610ee86011546001610ee391906120e2565b611d9b565b8560086000828254610efa91906120b8565b9091555050600954811115610f515760405162461bcd60e51b815260206004820152601d60248201527f506c6561736520747279207769746820736d616c6c20616d6f756e742e0000006044820152606401610801565b8060096000828254610f6391906120b8565b90915550610ffd915050565b60095483148015610f8257506011546003145b15610fcc57600354610f949084612096565b94508460086000828254610fa891906120b8565b925050819055508260096000828254610fc191906120b8565b90915550610ffd9050565b8460086000828254610fde91906120b8565b925050819055508260096000828254610ff791906120b8565b90915550505b61100f85670de0b6b3a76400006120cb565b336000908152601760205260408120805490919061102e9084906120e2565b9091555050601654611049906001600160a01b031683611e67565b8015611059576110593382611e67565b60408051838152426020820152600091879133917f62e796e00a8e66154d78da76daae129635b4795a6e1b889f2caa6c5cea22ac68910160405180910390a4505050610a216001600055565b600080601360009054906101000a90046001600160a01b03166001600160a01b031663feaf968c6040518163ffffffff1660e01b815260040160a060405180830381865afa1580156110fb573d6000803e3d6000fd5b505050506040513d601f19601f8201168201806040525081019061111f9190612146565b505050915050806402540be4006109259190612196565b60165482906001600160a01b031633146107a657600b54421015801561115e5750600c544211155b6111a45760405162461bcd60e51b8152602060048201526017602482015276496e76616c69642074696d6520666f7220627579696e6760481b6044820152606401610801565b6007548110156111e95760405162461bcd60e51b815260206004820152601060248201526f151bdbc81cdb585b1b08185b5bdd5b9d60821b6044820152606401610801565b6000811180156111fb57506008548111155b61123d5760405162461bcd60e51b8152602060048201526013602482015272125b9d985b1a59081cd85b1948185b5bdd5b9d606a1b6044820152606401610801565b611245611c60565b600061125084611a21565b90508015801561126257506011546003145b1561127f5760405162461bcd60e51b8152600401610801906120f5565b82158061128c5750826001145b506009548111156112f2576000600954826112a791906120b8565b90506112bb6011546001610ee391906120e2565b84600860008282546112cd91906120b8565b9250508190555080600960008282546112e691906120b8565b90915550611380915050565b6009548114801561130557506011546003145b1561134f576003546113179082612096565b9350836008600082825461132b91906120b8565b92505081905550806009600082825461134491906120b8565b909155506113809050565b836008600082825461136191906120b8565b92505081905550806009600082825461137a91906120b8565b90915550505b61139284670de0b6b3a76400006120cb565b33600090815260176020526040812080549091906113b19084906120e2565b90915550600090508381036113ce57506015546001600160a01b03165b60006001600160a01b03821663dd62ed3e336040516001600160e01b031960e084901b1681526001600160a01b039091166004820152306024820152604401602060405180830381865afa15801561142a573d6000803e3d6000fd5b505050506040513d601f19601f8201168201806040525081019061144e91906121c6565b9050808311156114aa5760405162461bcd60e51b815260206004820152602160248201527f4d616b65207375726520746f2061646420656e6f75676820616c6c6f77616e636044820152606560f81b6064820152608401610801565b60006001600160a01b038316336001546001600160a01b03166114d264e8d4a5100088612096565b6040516001600160a01b039384166024820152929091166044830152606482015260840160408051601f198184030181529181526020820180516001600160e01b03166323b872dd60e01b1790525161152b91906121df565b6000604051808303816000865af19150503d8060008114611568576040519150601f19603f3d011682016040523d82523d6000602084013e61156d565b606091505b50509050806115b55760405162461bcd60e51b8152602060048201526014602482015273151bdad95b881c185e5b595b9d0819985a5b195960621b6044820152606401610801565b604080518581524260208201526001600160a01b03851691899133917f62e796e00a8e66154d78da76daae129635b4795a6e1b889f2caa6c5cea22ac68910160405180910390a450505050505050565b61160d6119c7565b600c548311801561161d57504283115b6116695760405162461bcd60e51b815260206004820152601860248201527f496e76616c696420636c61696d2073746172742074696d6500000000000000006044820152606401610801565b6001600160a01b0381166116b45760405162461bcd60e51b81526020600482015260126024820152715a65726f20746f6b656e206164647265737360701b6044820152606401610801565b600d54156116f85760405162461bcd60e51b815260206004820152601160248201527010db185a5b48185b1c9958591e481cd95d607a1b6044820152606401610801565b600d839055601280546001600160a01b0319166001600160a01b0383169081179091556323b872dd336040516001600160e01b031960e084901b1681526001600160a01b039091166004820152306024820152604481018590526064016020604051808303816000875af1158015611774573d6000803e3d6000fd5b505050506040513d601f19601f82011682018060405250810190611798919061205e565b50505050565b6117a66119c7565b60006117ba6001546001600160a01b031690565b6001600160a01b03164760405160006040518083038185875af1925050503d8060008114611804576040519150601f19603f3d011682016040523d82523d6000602084013e611809565b606091505b505090508061184f5760405162461bcd60e51b81526020600482015260126024820152714661696c656420746f20776974686472617760701b6044820152606401610801565b50565b61185a6119c7565b601680546001600160a01b0319166001600160a01b0392909216919091179055565b6118846119c7565b6000811180156118965750600a548114155b6118e25760405162461bcd60e51b815260206004820152601860248201527f496e76616c6964206861726463617053697a652073697a6500000000000000006044820152606401610801565b600a55565b6118ef6119c7565b60055460006118fe82806120b8565b90508060085461190e91906120e2565b6008555050600555565b60008061192483611a21565b905061192e6110a5565b61194082670de0b6b3a76400006120cb565b61194a9190612096565b9392505050565b6119596119c7565b6001600160a01b0381166119be5760405162461bcd60e51b815260206004820152602660248201527f4f776e61626c653a206e6577206f776e657220697320746865207a65726f206160448201526564647265737360d01b6064820152608401610801565b61184f81611cad565b6001546001600160a01b03163314610cce5760405162461bcd60e51b815260206004820181905260248201527f4f776e61626c653a2063616c6c6572206973206e6f7420746865206f776e65726044820152606401610801565b600080600954600654670de0b6b3a7640000611a3d91906120cb565b611a4791906120b8565b6016549091506001600160a01b03163314611bb65760008060035485611a6d91906120cb565b611a7790846120e2565b601054611a8c90670de0b6b3a76400006120cb565b108015611a9b57506003601154105b15611b525760035483601054670de0b6b3a7640000611aba91906120cb565b611ac491906120b8565b611ace9190612096565b9150611ada82866120b8565b600f5490915060ff161515600103611b255760405162461bcd60e51b815260206004820152600e60248201526d1c1c995cd85b19481c185d5cd95960921b6044820152606401610801565b600454611b3290826120cb565b600354611b3f90846120cb565b611b4991906120e2565b95945050505050565b600354611b5f90866120cb565b611b6990846120e2565b601054611b7e90670de0b6b3a76400006120cb565b108015611b8d57506011546003145b15611bb35782601054670de0b6b3a7640000611ba991906120cb565b611b4991906120b8565b50505b600f5460ff161515600103611bfe5760405162461bcd60e51b815260206004820152600e60248201526d1c1c995cd85b19481c185d5cd95960921b6044820152606401610801565b60035461194a90846120cb565b611c13611f3d565b6001805460ff60a01b191690557f5db9ee0a495bf2e6ff9c91a7834c1ba4fdd244a5e8aa4e537bd38aeae4b073aa335b6040516001600160a01b03909116815260200160405180910390a1565b600154600160a01b900460ff1615610cce5760405162461bcd60e51b815260206004820152601060248201526f14185d5cd8589b194e881c185d5cd95960821b6044820152606401610801565b600180546001600160a01b038381166001600160a01b0319831681179093556040519116919082907f8be0079c531659141344cd1fd0a4f28419497f9722a3daafe3b4186f6b6457e090600090a35050565b611d07611c60565b6001805460ff60a01b1916600160a01b1790557f62e78cea01bee320cd4e420270b5ea74000d11b0c9f74754ebdbfc544b05a258611c433390565b600260005403611d945760405162461bcd60e51b815260206004820152601f60248201527f5265656e7472616e637947756172643a207265656e7472616e742063616c6c006044820152606401610801565b6002600055565b60118190556001819003611ddd57667c585087238000600355668e1bc9bf040000600455622dc6c060108190556006556a027b46536c66c8e300000060095550565b80600203611e1957668e1bc9bf040000600355669fdf42f6e48000600455623d090060108190556006556a034f086f3b33b68400000060095550565b80600303611e4f57669fdf42f6e480006003819055600455624c4b4060108190556006556a0422ca8b0a00a42500000060095550565b60405162461bcd60e51b8152600401610801906120f5565b80471015611ea55760405162461bcd60e51b815260206004820152600b60248201526a4c6f772062616c616e636560a81b6044820152606401610801565b6000826001600160a01b03168260405160006040518083038185875af1925050503d8060008114611ef2576040519150601f19603f3d011682016040523d82523d6000602084013e611ef7565b606091505b50509050806107a65760405162461bcd60e51b81526020600482015260126024820152711155120814185e5b595b9d0819985a5b195960721b6044820152606401610801565b600154600160a01b900460ff16610cce5760405162461bcd60e51b815260206004820152601460248201527314185d5cd8589b194e881b9bdd081c185d5cd95960621b6044820152606401610801565b80356001600160a01b0381168114611fa457600080fd5b919050565b60008060408385031215611fbc57600080fd5b611fc583611f8d565b946020939093013593505050565b600060208284031215611fe557600080fd5b5035919050565b600060208284031215611ffe57600080fd5b61092282611f8d565b6000806040838503121561201a57600080fd5b50508035926020909101359150565b60008060006060848603121561203e57600080fd5b833592506020840135915061205560408501611f8d565b90509250925092565b60006020828403121561207057600080fd5b8151801515811461194a57600080fd5b634e487b7160e01b600052601160045260246000fd5b6000826120b357634e487b7160e01b600052601260045260246000fd5b500490565b8181038181111561092557610925612080565b808202811582820484141761092557610925612080565b8082018082111561092557610925612080565b60208082526019908201527f50726573616c652069742773206f7665722c20736f7272792100000000000000604082015260600190565b805169ffffffffffffffffffff81168114611fa457600080fd5b600080600080600060a0868803121561215e57600080fd5b6121678661212c565b945060208601519350604086015192506060860151915061218a6080870161212c565b90509295509295909350565b80820260008212600160ff1b841416156121b2576121b2612080565b818105831482151761092557610925612080565b6000602082840312156121d857600080fd5b5051919050565b6000825160005b8181101561220057602081860181015185830152016121e6565b50600092019182525091905056fea2646970667358221220178d6e6cfdb366ccdf05e6c15a8a1eca740f739d61f2afdc48481fff2f6f8ffc64736f6c63430008110033",
  "linkReferences": {},
  "deployedLinkReferences": {}
}